{"contracts/LiveQnA.sol":{"LiveQnA":{"abi":[{"inputs":[],"stateMutability":"nonpayable","type":"constructor"},{"anonymous":false,"inputs":[{"indexed":false,"internalType":"uint256","name":"channelId","type":"uint256"},{"indexed":false,"internalType":"string","name":"channelName","type":"string"},{"indexed":false,"internalType":"uint256","name":"pin","type":"uint256"}],"name":"ChannelCreated","type":"event"},{"anonymous":false,"inputs":[{"components":[{"internalType":"uint256","name":"id","type":"uint256"},{"internalType":"string","name":"text","type":"string"},{"internalType":"string","name":"author","type":"string"},{"internalType":"uint256","name":"channelId","type":"uint256"},{"internalType":"uint256","name":"votes","type":"uint256"},{"internalType":"bool","name":"isVoted","type":"bool"}],"indexed":false,"internalType":"struct LiveQnA.Question","name":"question","type":"tuple"}],"name":"QuestionAdded","type":"event"},{"anonymous":false,"inputs":[{"indexed":false,"internalType":"uint256","name":"channelId","type":"uint256"},{"indexed":false,"internalType":"uint256","name":"questionId","type":"uint256"},{"indexed":false,"internalType":"uint256","name":"votes","type":"uint256"}],"name":"QuestionUnvoted","type":"event"},{"anonymous":false,"inputs":[{"indexed":false,"internalType":"uint256","name":"channelId","type":"uint256"},{"indexed":false,"internalType":"uint256","name":"questionId","type":"uint256"},{"indexed":false,"internalType":"uint256","name":"votes","type":"uint256"}],"name":"QuestionVoted","type":"event"},{"inputs":[{"internalType":"uint256","name":"channelId","type":"uint256"},{"internalType":"uint256","name":"pin","type":"uint256"},{"internalType":"uint256","name":"questionId","type":"uint256"}],"name":"UnvoteQuestionOfChannel","outputs":[],"stateMutability":"nonpayable","type":"function"},{"inputs":[{"internalType":"uint256","name":"channelId","type":"uint256"},{"internalType":"uint256","name":"pin","type":"uint256"},{"internalType":"string","name":"text","type":"string"},{"internalType":"string","name":"author","type":"string"}],"name":"addQuestionToChannel","outputs":[],"stateMutability":"nonpayable","type":"function"},{"inputs":[],"name":"channelIdCounter","outputs":[{"internalType":"uint256","name":"","type":"uint256"}],"stateMutability":"view","type":"function"},{"inputs":[{"internalType":"string","name":"channelName","type":"string"}],"name":"createChannel","outputs":[],"stateMutability":"nonpayable","type":"function"},{"inputs":[{"internalType":"uint256","name":"channelId","type":"uint256"}],"name":"getChannel","outputs":[{"components":[{"internalType":"string","name":"name","type":"string"},{"internalType":"uint256","name":"pin","type":"uint256"},{"internalType":"address","name":"admin","type":"address"}],"internalType":"struct LiveQnA.Channel","name":"","type":"tuple"}],"stateMutability":"view","type":"function"},{"inputs":[{"internalType":"uint256","name":"channelId","type":"uint256"},{"internalType":"uint256","name":"pin","type":"uint256"}],"name":"getQuestionsOfChannel","outputs":[{"components":[{"internalType":"uint256","name":"id","type":"uint256"},{"internalType":"string","name":"text","type":"string"},{"internalType":"string","name":"author","type":"string"},{"internalType":"uint256","name":"channelId","type":"uint256"},{"internalType":"uint256","name":"votes","type":"uint256"},{"internalType":"bool","name":"isVoted","type":"bool"}],"internalType":"struct LiveQnA.Question[]","name":"","type":"tuple[]"}],"stateMutability":"view","type":"function"},{"inputs":[],"name":"owner","outputs":[{"internalType":"address","name":"","type":"address"}],"stateMutability":"view","type":"function"},{"inputs":[{"internalType":"uint256","name":"","type":"uint256"}],"name":"questions","outputs":[{"internalType":"uint256","name":"id","type":"uint256"},{"internalType":"string","name":"text","type":"string"},{"internalType":"string","name":"author","type":"string"},{"internalType":"uint256","name":"channelId","type":"uint256"},{"internalType":"uint256","name":"votes","type":"uint256"},{"internalType":"bool","name":"isVoted","type":"bool"}],"stateMutability":"view","type":"function"},{"inputs":[{"internalType":"uint256","name":"","type":"uint256"},{"internalType":"uint256","name":"","type":"uint256"}],"name":"sortedQuestionIdsByVotes","outputs":[{"internalType":"uint256","name":"","type":"uint256"}],"stateMutability":"view","type":"function"},{"inputs":[{"internalType":"uint256","name":"","type":"uint256"}],"name":"totalQuestionsPerChannel","outputs":[{"internalType":"uint256","name":"","type":"uint256"}],"stateMutability":"view","type":"function"},{"inputs":[{"internalType":"address","name":"","type":"address"},{"internalType":"uint256","name":"","type":"uint256"}],"name":"userVotes","outputs":[{"internalType":"uint256","name":"","type":"uint256"}],"stateMutability":"view","type":"function"},{"inputs":[{"internalType":"uint256","name":"channelId","type":"uint256"},{"internalType":"uint256","name":"pin","type":"uint256"},{"internalType":"uint256","name":"questionId","type":"uint256"}],"name":"voteQuestionOfChannel","outputs":[],"stateMutability":"nonpayable","type":"function"}],"evm":{"bytecode":{"linkReferences":{},"object":"6080604052600080556000600255600060035534801561001e57600080fd5b5033600160006101000a81548173ffffffffffffffffffffffffffffffffffffffff021916908373ffffffffffffffffffffffffffffffffffffffff1602179055506124a98061006f6000396000f3fe608060405234801561001057600080fd5b50600436106100b45760003560e01c80638b3511f7116100715780638b3511f7146101905780638baa6ff8146101c05780638da5cb5b146101f0578063aa7ff0b51461020e578063cb6af4cb1461023e578063f6c200771461025a576100b4565b80630be8179a146100b957806310df54a0146100d557806331b1b978146101055780633c3102661461013a5780637553efb4146101585780637b2a1e5d14610174575b600080fd5b6100d360048036038101906100ce91906115f7565b61028a565b005b6100ef60048036038101906100ea919061164a565b6104e7565b6040516100fc91906117b0565b60405180910390f35b61011f600480360381019061011a919061164a565b610696565b60405161013196959493929190611846565b60405180910390f35b6101426107ef565b60405161014f91906118b5565b60405180910390f35b610172600480360381019061016d9190611a05565b6107f5565b005b61018e600480360381019061018991906115f7565b6109e4565b005b6101aa60048036038101906101a59190611ad0565b610cf2565b6040516101b791906118b5565b60405180910390f35b6101da60048036038101906101d59190611b10565b610d23565b6040516101e79190611cb1565b60405180910390f35b6101f8611131565b6040516102059190611ce2565b60405180910390f35b6102286004803603810190610223919061164a565b611157565b60405161023591906118b5565b60405180910390f35b61025860048036038101906102539190611cfd565b61116f565b005b610274600480360381019061026f9190611b10565b61128f565b60405161028191906118b5565b60405180910390f35b8282806004600084815260200190815260200160002060010154146102e4576040517f08c379a00000000000000000000000000000000000000000000000000000000081526004016102db90611d92565b60405180910390fd5b6000600860003373ffffffffffffffffffffffffffffffffffffffff1673ffffffffffffffffffffffffffffffffffffffff16815260200190815260200160002080548060200260200160405190810160405280929190818152602001828054801561036f57602002820191906000526020600020905b81548152602001906001019080831161035b575b5050505050905060005b81518110156103f2578482828151811061039657610395611db2565b5b602002602001015114156103df576040517f08c379a00000000000000000000000000000000000000000000000000000000081526004016103d690611e53565b60405180910390fd5b80806103ea90611ea2565b915050610379565b5060056000858152602001908152602001600020600401600081548092919061041a90611ea2565b9190505550610428866112c0565b600860003373ffffffffffffffffffffffffffffffffffffffff1673ffffffffffffffffffffffffffffffffffffffff1681526020019081526020016000208490806001815401808255809150506001900390600052602060002001600090919091909150557fe032b0171b8688390474f14cb113a546cf69cd6385ba4a5ae43550afe994e0cc868560056000888152602001908152602001600020600401546040516104d793929190611eeb565b60405180910390a1505050505050565b6104ef61149b565b600160009054906101000a900473ffffffffffffffffffffffffffffffffffffffff1673ffffffffffffffffffffffffffffffffffffffff163373ffffffffffffffffffffffffffffffffffffffff161461057f576040517f08c379a000000000000000000000000000000000000000000000000000000000815260040161057690611f6e565b60405180910390fd5b600460008381526020019081526020016000206040518060600160405290816000820180546105ad90611fbd565b80601f01602080910402602001604051908101604052809291908181526020018280546105d990611fbd565b80156106265780601f106105fb57610100808354040283529160200191610626565b820191906000526020600020905b81548152906001019060200180831161060957829003601f168201915b50505050508152602001600182015481526020016002820160009054906101000a900473ffffffffffffffffffffffffffffffffffffffff1673ffffffffffffffffffffffffffffffffffffffff1673ffffffffffffffffffffffffffffffffffffffff16815250509050919050565b60056020528060005260406000206000915090508060000154908060010180546106bf90611fbd565b80601f01602080910402602001604051908101604052809291908181526020018280546106eb90611fbd565b80156107385780601f1061070d57610100808354040283529160200191610738565b820191906000526020600020905b81548152906001019060200180831161071b57829003601f168201915b50505050509080600201805461074d90611fbd565b80601f016020809104026020016040519081016040528092919081815260200182805461077990611fbd565b80156107c65780601f1061079b576101008083540402835291602001916107c6565b820191906000526020600020905b8154815290600101906020018083116107a957829003601f168201915b5050505050908060030154908060040154908060050160009054906101000a900460ff16905086565b60025481565b83838060046000848152602001908152602001600020600101541461084f576040517f08c379a000000000000000000000000000000000000000000000000000000000815260040161084690611d92565b60405180910390fd5b600060035490506040518060c0016040528082815260200186815260200185815260200188815260200160008152602001600015158152506005600060035481526020019081526020016000206000820151816000015560208201518160010190805190602001906108c29291906114d2565b5060408201518160020190805190602001906108df9291906114d2565b50606082015181600301556080820151816004015560a08201518160050160006101000a81548160ff0219169083151502179055509050506003600081548092919061092a90611ea2565b919050555060066000888152602001908152602001600020600081548092919061095390611ea2565b9190505550600760008881526020019081526020016000208190806001815401808255809150506001900390600052602060002001600090919091909150557f491fdc42458554e4129b4791a55a9106d21fd297a6b991e5165112a8b4ea0088600560008381526020019081526020016000206040516109d39190612198565b60405180910390a150505050505050565b828280600460008481526020019081526020016000206001015414610a3e576040517f08c379a0000000000000000000000000000000000000000000000000000000008152600401610a3590611d92565b60405180910390fd5b6000600860003373ffffffffffffffffffffffffffffffffffffffff1673ffffffffffffffffffffffffffffffffffffffff168152602001908152602001600020805480602002602001604051908101604052809291908181526020018280548015610ac957602002820191906000526020600020905b815481526020019060010190808311610ab5575b505050505090506000805b8251811015610b1b5785838281518110610af157610af0611db2565b5b60200260200101511415610b085760019150610b1b565b8080610b1390611ea2565b915050610ad4565b5080610b5c576040517f08c379a0000000000000000000000000000000000000000000000000000000008152600401610b539061222c565b60405180910390fd5b600560008681526020019081526020016000206004016000815480929190610b839061224c565b9190505550610b91876112c0565b6000600860003373ffffffffffffffffffffffffffffffffffffffff1673ffffffffffffffffffffffffffffffffffffffff168152602001908152602001600020905060005b8180549050811015610c965786828281548110610bf757610bf6611db2565b5b90600052602060002001541415610c83578160018380549050610c1a9190612276565b81548110610c2b57610c2a611db2565b5b9060005260206000200154828281548110610c4957610c48611db2565b5b906000526020600020018190555081805480610c6857610c676122aa565b5b60019003818190600052602060002001600090559055610c96565b8080610c8e90611ea2565b915050610bd7565b507f9ac3d178fd7a3254ba35847b1c82f6886954cba1eb2265b381373c8ea17418968887600560008a815260200190815260200160002060040154604051610ce093929190611eeb565b60405180910390a15050505050505050565b60086020528160005260406000208181548110610d0e57600080fd5b90600052602060002001600091509150505481565b6060828280600460008481526020019081526020016000206001015414610d7f576040517f08c379a0000000000000000000000000000000000000000000000000000000008152600401610d7690611d92565b60405180910390fd5b60006006600087815260200190815260200160002054905060008167ffffffffffffffff811115610db357610db26118da565b5b604051908082528060200260200182016040528015610dec57816020015b610dd9611558565b815260200190600190039081610dd15790505b50905060005b828110156111235760056000600760008b81526020019081526020016000208381548110610e2357610e22611db2565b5b906000526020600020015481526020019081526020016000206040518060c001604052908160008201548152602001600182018054610e6190611fbd565b80601f0160208091040260200160405190810160405280929190818152602001828054610e8d90611fbd565b8015610eda5780601f10610eaf57610100808354040283529160200191610eda565b820191906000526020600020905b815481529060010190602001808311610ebd57829003601f168201915b50505050508152602001600282018054610ef390611fbd565b80601f0160208091040260200160405190810160405280929190818152602001828054610f1f90611fbd565b8015610f6c5780601f10610f4157610100808354040283529160200191610f6c565b820191906000526020600020905b815481529060010190602001808311610f4f57829003601f168201915b5050505050815260200160038201548152602001600482015481526020016005820160009054906101000a900460ff161515151581525050828281518110610fb757610fb6611db2565b5b60200260200101819052506000828281518110610fd757610fd6611db2565b5b602002602001015160a00190151590811515815250506000600860003373ffffffffffffffffffffffffffffffffffffffff1673ffffffffffffffffffffffffffffffffffffffff16815260200190815260200160002080548060200260200160405190810160405280929190818152602001828054801561107857602002820191906000526020600020905b815481526020019060010190808311611064575b5050505050905060005b815181101561110e5783838151811061109e5761109d611db2565b5b6020026020010151600001518282815181106110bd576110bc611db2565b5b602002602001015114156110fb5760018484815181106110e0576110df611db2565b5b602002602001015160a001901515908115158152505061110e565b808061110690611ea2565b915050611082565b5050808061111b90611ea2565b915050610df2565b508094505050505092915050565b600160009054906101000a900473ffffffffffffffffffffffffffffffffffffffff1681565b60066020528060005260406000206000915090505481565b600060025490506000611180611425565b905060405180606001604052808481526020018281526020013373ffffffffffffffffffffffffffffffffffffffff168152506004600084815260200190815260200160002060008201518160000190805190602001906111e29291906114d2565b506020820151816001015560408201518160020160006101000a81548173ffffffffffffffffffffffffffffffffffffffff021916908373ffffffffffffffffffffffffffffffffffffffff1602179055509050506002600081548092919061124a90611ea2565b91905055507f0d2054cd4b5b00c541fea07e8af0136637b383528db2f4bdfa9b7ae096e7dcf8828483604051611282939291906122d9565b60405180910390a1505050565b600760205281600052604060002081815481106112ab57600080fd5b90600052602060002001600091509150505481565b600060076000838152602001908152602001600020905060008180549050905060005b8181101561141f5760006001826112fa9190612317565b90505b8281101561140b576005600085838154811061131c5761131b611db2565b5b9060005260206000200154815260200190815260200160002060040154600560008685815481106113505761134f611db2565b5b906000526020600020015481526020019081526020016000206004015410156113f857600084838154811061138857611387611db2565b5b906000526020600020015490508482815481106113a8576113a7611db2565b5b90600052602060002001548584815481106113c6576113c5611db2565b5b9060005260206000200181905550808583815481106113e8576113e7611db2565b5b9060005260206000200181905550505b808061140390611ea2565b9150506112fd565b50808061141790611ea2565b9150506112e3565b50505050565b600080600081548092919061143990611ea2565b919050555060004233600054604051602001611457939291906123d6565b6040516020818303038152906040528051906020012060001c90506000620186a0620dbba0836114879190612442565b6114919190612317565b9050809250505090565b60405180606001604052806060815260200160008152602001600073ffffffffffffffffffffffffffffffffffffffff1681525090565b8280546114de90611fbd565b90600052602060002090601f0160209004810192826115005760008555611547565b82601f1061151957805160ff1916838001178555611547565b82800160010185558215611547579182015b8281111561154657825182559160200191906001019061152b565b5b5090506115549190611590565b5090565b6040518060c0016040528060008152602001606081526020016060815260200160008152602001600081526020016000151581525090565b5b808211156115a9576000816000905550600101611591565b5090565b6000604051905090565b600080fd5b600080fd5b6000819050919050565b6115d4816115c1565b81146115df57600080fd5b50565b6000813590506115f1816115cb565b92915050565b6000806000606084860312156116105761160f6115b7565b5b600061161e868287016115e2565b935050602061162f868287016115e2565b9250506040611640868287016115e2565b9150509250925092565b6000602082840312156116605761165f6115b7565b5b600061166e848285016115e2565b91505092915050565b600081519050919050565b600082825260208201905092915050565b60005b838110156116b1578082015181840152602081019050611696565b838111156116c0576000848401525b50505050565b6000601f19601f8301169050919050565b60006116e282611677565b6116ec8185611682565b93506116fc818560208601611693565b611705816116c6565b840191505092915050565b611719816115c1565b82525050565b600073ffffffffffffffffffffffffffffffffffffffff82169050919050565b600061174a8261171f565b9050919050565b61175a8161173f565b82525050565b6000606083016000830151848203600086015261177d82826116d7565b91505060208301516117926020860182611710565b5060408301516117a56040860182611751565b508091505092915050565b600060208201905081810360008301526117ca8184611760565b905092915050565b6117db816115c1565b82525050565b600082825260208201905092915050565b60006117fd82611677565b61180781856117e1565b9350611817818560208601611693565b611820816116c6565b840191505092915050565b60008115159050919050565b6118408161182b565b82525050565b600060c08201905061185b60008301896117d2565b818103602083015261186d81886117f2565b9050818103604083015261188181876117f2565b905061189060608301866117d2565b61189d60808301856117d2565b6118aa60a0830184611837565b979650505050505050565b60006020820190506118ca60008301846117d2565b92915050565b600080fd5b600080fd5b7f4e487b7100000000000000000000000000000000000000000000000000000000600052604160045260246000fd5b611912826116c6565b810181811067ffffffffffffffff82111715611931576119306118da565b5b80604052505050565b60006119446115ad565b90506119508282611909565b919050565b600067ffffffffffffffff8211156119705761196f6118da565b5b611979826116c6565b9050602081019050919050565b82818337600083830152505050565b60006119a86119a384611955565b61193a565b9050828152602081018484840111156119c4576119c36118d5565b5b6119cf848285611986565b509392505050565b600082601f8301126119ec576119eb6118d0565b5b81356119fc848260208601611995565b91505092915050565b60008060008060808587031215611a1f57611a1e6115b7565b5b6000611a2d878288016115e2565b9450506020611a3e878288016115e2565b935050604085013567ffffffffffffffff811115611a5f57611a5e6115bc565b5b611a6b878288016119d7565b925050606085013567ffffffffffffffff811115611a8c57611a8b6115bc565b5b611a98878288016119d7565b91505092959194509250565b611aad8161173f565b8114611ab857600080fd5b50565b600081359050611aca81611aa4565b92915050565b60008060408385031215611ae757611ae66115b7565b5b6000611af585828601611abb565b9250506020611b06858286016115e2565b9150509250929050565b60008060408385031215611b2757611b266115b7565b5b6000611b35858286016115e2565b9250506020611b46858286016115e2565b9150509250929050565b600081519050919050565b600082825260208201905092915050565b6000819050602082019050919050565b611b858161182b565b82525050565b600060c083016000830151611ba36000860182611710565b5060208301518482036020860152611bbb82826116d7565b91505060408301518482036040860152611bd582826116d7565b9150506060830151611bea6060860182611710565b506080830151611bfd6080860182611710565b5060a0830151611c1060a0860182611b7c565b508091505092915050565b6000611c278383611b8b565b905092915050565b6000602082019050919050565b6000611c4782611b50565b611c518185611b5b565b935083602082028501611c6385611b6c565b8060005b85811015611c9f5784840389528151611c808582611c1b565b9450611c8b83611c2f565b925060208a01995050600181019050611c67565b50829750879550505050505092915050565b60006020820190508181036000830152611ccb8184611c3c565b905092915050565b611cdc8161173f565b82525050565b6000602082019050611cf76000830184611cd3565b92915050565b600060208284031215611d1357611d126115b7565b5b600082013567ffffffffffffffff811115611d3157611d306115bc565b5b611d3d848285016119d7565b91505092915050565b7f596f75722070696e20697320696e636f72726563740000000000000000000000600082015250565b6000611d7c6015836117e1565b9150611d8782611d46565b602082019050919050565b60006020820190508181036000830152611dab81611d6f565b9050919050565b7f4e487b7100000000000000000000000000000000000000000000000000000000600052603260045260246000fd5b7f596f75206861766520616c726561647920766f74656420666f7220746869732060008201527f7175657374696f6e000000000000000000000000000000000000000000000000602082015250565b6000611e3d6028836117e1565b9150611e4882611de1565b604082019050919050565b60006020820190508181036000830152611e6c81611e30565b9050919050565b7f4e487b7100000000000000000000000000000000000000000000000000000000600052601160045260246000fd5b6000611ead826115c1565b91507fffffffffffffffffffffffffffffffffffffffffffffffffffffffffffffffff821415611ee057611edf611e73565b5b600182019050919050565b6000606082019050611f0060008301866117d2565b611f0d60208301856117d2565b611f1a60408301846117d2565b949350505050565b7f4f6e6c79206f776e65722063616e20646f207468697300000000000000000000600082015250565b6000611f586016836117e1565b9150611f6382611f22565b602082019050919050565b60006020820190508181036000830152611f8781611f4b565b9050919050565b7f4e487b7100000000000000000000000000000000000000000000000000000000600052602260045260246000fd5b60006002820490506001821680611fd557607f821691505b60208210811415611fe957611fe8611f8e565b5b50919050565b60008160001c9050919050565b6000819050919050565b600061201961201483611fef565b611ffc565b9050919050565b60008190508160005260206000209050919050565b6000815461204281611fbd565b61204c8186611682565b945060018216600081146120675760018114612079576120ac565b60ff19831686526020860193506120ac565b61208285612020565b60005b838110156120a457815481890152600182019150602081019050612085565b808801955050505b50505092915050565b600060ff82169050919050565b60006120d56120d083611fef565b6120b5565b9050919050565b600060c0830160008084015490506120f381612006565b6121006000870182611710565b506001840185830360208701526121178382612035565b9250506002840185830360408701526121308382612035565b9250506003840154905061214381612006565b6121506060870182611710565b506004840154905061216181612006565b61216e6080870182611710565b506005840154905061217f816120c2565b61218c60a0870182611b7c565b50819250505092915050565b600060208201905081810360008301526121b281846120dc565b905092915050565b7f596f752068617665206e6f7420766f74656420666f722074686973207175657360008201527f74696f6e00000000000000000000000000000000000000000000000000000000602082015250565b60006122166024836117e1565b9150612221826121ba565b604082019050919050565b6000602082019050818103600083015261224581612209565b9050919050565b6000612257826115c1565b9150600082141561226b5761226a611e73565b5b600182039050919050565b6000612281826115c1565b915061228c836115c1565b92508282101561229f5761229e611e73565b5b828203905092915050565b7f4e487b7100000000000000000000000000000000000000000000000000000000600052603160045260246000fd5b60006060820190506122ee60008301866117d2565b818103602083015261230081856117f2565b905061230f60408301846117d2565b949350505050565b6000612322826115c1565b915061232d836115c1565b9250827fffffffffffffffffffffffffffffffffffffffffffffffffffffffffffffffff0382111561236257612361611e73565b5b828201905092915050565b6000819050919050565b612388612383826115c1565b61236d565b82525050565b60008160601b9050919050565b60006123a68261238e565b9050919050565b60006123b88261239b565b9050919050565b6123d06123cb8261173f565b6123ad565b82525050565b60006123e28286612377565b6020820191506123f282856123bf565b6014820191506124028284612377565b602082019150819050949350505050565b7f4e487b7100000000000000000000000000000000000000000000000000000000600052601260045260246000fd5b600061244d826115c1565b9150612458836115c1565b92508261246857612467612413565b5b82820690509291505056fea2646970667358221220bb86e3e1ee79f37636753b35dafdaf22675d44261dc7376b7ee2d29729ca3a6d64736f6c63430008090033","opcodes":"PUSH1 0x80 PUSH1 0x40 MSTORE PUSH1 0x0 DUP1 SSTORE PUSH1 0x0 PUSH1 0x2 SSTORE PUSH1 0x0 PUSH1 0x3 SSTORE CALLVALUE DUP1 ISZERO PUSH2 0x1E JUMPI PUSH1 0x0 DUP1 REVERT JUMPDEST POP CALLER PUSH1 0x1 PUSH1 0x0 PUSH2 0x100 EXP DUP2 SLOAD DUP2 PUSH20 0xFFFFFFFFFFFFFFFFFFFFFFFFFFFFFFFFFFFFFFFF MUL NOT AND SWAP1 DUP4 PUSH20 0xFFFFFFFFFFFFFFFFFFFFFFFFFFFFFFFFFFFFFFFF AND MUL OR SWAP1 SSTORE POP PUSH2 0x24A9 DUP1 PUSH2 0x6F PUSH1 0x0 CODECOPY PUSH1 0x0 RETURN INVALID PUSH1 0x80 PUSH1 0x40 MSTORE CALLVALUE DUP1 ISZERO PUSH2 0x10 JUMPI PUSH1 0x0 DUP1 REVERT JUMPDEST POP PUSH1 0x4 CALLDATASIZE LT PUSH2 0xB4 JUMPI PUSH1 0x0 CALLDATALOAD PUSH1 0xE0 SHR DUP1 PUSH4 0x8B3511F7 GT PUSH2 0x71 JUMPI DUP1 PUSH4 0x8B3511F7 EQ PUSH2 0x190 JUMPI DUP1 PUSH4 0x8BAA6FF8 EQ PUSH2 0x1C0 JUMPI DUP1 PUSH4 0x8DA5CB5B EQ PUSH2 0x1F0 JUMPI DUP1 PUSH4 0xAA7FF0B5 EQ PUSH2 0x20E JUMPI DUP1 PUSH4 0xCB6AF4CB EQ PUSH2 0x23E JUMPI DUP1 PUSH4 0xF6C20077 EQ PUSH2 0x25A JUMPI PUSH2 0xB4 JUMP JUMPDEST DUP1 PUSH4 0xBE8179A EQ PUSH2 0xB9 JUMPI DUP1 PUSH4 0x10DF54A0 EQ PUSH2 0xD5 JUMPI DUP1 PUSH4 0x31B1B978 EQ PUSH2 0x105 JUMPI DUP1 PUSH4 0x3C310266 EQ PUSH2 0x13A JUMPI DUP1 PUSH4 0x7553EFB4 EQ PUSH2 0x158 JUMPI DUP1 PUSH4 0x7B2A1E5D EQ PUSH2 0x174 JUMPI JUMPDEST PUSH1 0x0 DUP1 REVERT JUMPDEST PUSH2 0xD3 PUSH1 0x4 DUP1 CALLDATASIZE SUB DUP2 ADD SWAP1 PUSH2 0xCE SWAP2 SWAP1 PUSH2 0x15F7 JUMP JUMPDEST PUSH2 0x28A JUMP JUMPDEST STOP JUMPDEST PUSH2 0xEF PUSH1 0x4 DUP1 CALLDATASIZE SUB DUP2 ADD SWAP1 PUSH2 0xEA SWAP2 SWAP1 PUSH2 0x164A JUMP JUMPDEST PUSH2 0x4E7 JUMP JUMPDEST PUSH1 0x40 MLOAD PUSH2 0xFC SWAP2 SWAP1 PUSH2 0x17B0 JUMP JUMPDEST PUSH1 0x40 MLOAD DUP1 SWAP2 SUB SWAP1 RETURN JUMPDEST PUSH2 0x11F PUSH1 0x4 DUP1 CALLDATASIZE SUB DUP2 ADD SWAP1 PUSH2 0x11A SWAP2 SWAP1 PUSH2 0x164A JUMP JUMPDEST PUSH2 0x696 JUMP JUMPDEST PUSH1 0x40 MLOAD PUSH2 0x131 SWAP7 SWAP6 SWAP5 SWAP4 SWAP3 SWAP2 SWAP1 PUSH2 0x1846 JUMP JUMPDEST PUSH1 0x40 MLOAD DUP1 SWAP2 SUB SWAP1 RETURN JUMPDEST PUSH2 0x142 PUSH2 0x7EF JUMP JUMPDEST PUSH1 0x40 MLOAD PUSH2 0x14F SWAP2 SWAP1 PUSH2 0x18B5 JUMP JUMPDEST PUSH1 0x40 MLOAD DUP1 SWAP2 SUB SWAP1 RETURN JUMPDEST PUSH2 0x172 PUSH1 0x4 DUP1 CALLDATASIZE SUB DUP2 ADD SWAP1 PUSH2 0x16D SWAP2 SWAP1 PUSH2 0x1A05 JUMP JUMPDEST PUSH2 0x7F5 JUMP JUMPDEST STOP JUMPDEST PUSH2 0x18E PUSH1 0x4 DUP1 CALLDATASIZE SUB DUP2 ADD SWAP1 PUSH2 0x189 SWAP2 SWAP1 PUSH2 0x15F7 JUMP JUMPDEST PUSH2 0x9E4 JUMP JUMPDEST STOP JUMPDEST PUSH2 0x1AA PUSH1 0x4 DUP1 CALLDATASIZE SUB DUP2 ADD SWAP1 PUSH2 0x1A5 SWAP2 SWAP1 PUSH2 0x1AD0 JUMP JUMPDEST PUSH2 0xCF2 JUMP JUMPDEST PUSH1 0x40 MLOAD PUSH2 0x1B7 SWAP2 SWAP1 PUSH2 0x18B5 JUMP JUMPDEST PUSH1 0x40 MLOAD DUP1 SWAP2 SUB SWAP1 RETURN JUMPDEST PUSH2 0x1DA PUSH1 0x4 DUP1 CALLDATASIZE SUB DUP2 ADD SWAP1 PUSH2 0x1D5 SWAP2 SWAP1 PUSH2 0x1B10 JUMP JUMPDEST PUSH2 0xD23 JUMP JUMPDEST PUSH1 0x40 MLOAD PUSH2 0x1E7 SWAP2 SWAP1 PUSH2 0x1CB1 JUMP JUMPDEST PUSH1 0x40 MLOAD DUP1 SWAP2 SUB SWAP1 RETURN JUMPDEST PUSH2 0x1F8 PUSH2 0x1131 JUMP JUMPDEST PUSH1 0x40 MLOAD PUSH2 0x205 SWAP2 SWAP1 PUSH2 0x1CE2 JUMP JUMPDEST PUSH1 0x40 MLOAD DUP1 SWAP2 SUB SWAP1 RETURN JUMPDEST PUSH2 0x228 PUSH1 0x4 DUP1 CALLDATASIZE SUB DUP2 ADD SWAP1 PUSH2 0x223 SWAP2 SWAP1 PUSH2 0x164A JUMP JUMPDEST PUSH2 0x1157 JUMP JUMPDEST PUSH1 0x40 MLOAD PUSH2 0x235 SWAP2 SWAP1 PUSH2 0x18B5 JUMP JUMPDEST PUSH1 0x40 MLOAD DUP1 SWAP2 SUB SWAP1 RETURN JUMPDEST PUSH2 0x258 PUSH1 0x4 DUP1 CALLDATASIZE SUB DUP2 ADD SWAP1 PUSH2 0x253 SWAP2 SWAP1 PUSH2 0x1CFD JUMP JUMPDEST PUSH2 0x116F JUMP JUMPDEST STOP JUMPDEST PUSH2 0x274 PUSH1 0x4 DUP1 CALLDATASIZE SUB DUP2 ADD SWAP1 PUSH2 0x26F SWAP2 SWAP1 PUSH2 0x1B10 JUMP JUMPDEST PUSH2 0x128F JUMP JUMPDEST PUSH1 0x40 MLOAD PUSH2 0x281 SWAP2 SWAP1 PUSH2 0x18B5 JUMP JUMPDEST PUSH1 0x40 MLOAD DUP1 SWAP2 SUB SWAP1 RETURN JUMPDEST DUP3 DUP3 DUP1 PUSH1 0x4 PUSH1 0x0 DUP5 DUP2 MSTORE PUSH1 0x20 ADD SWAP1 DUP2 MSTORE PUSH1 0x20 ADD PUSH1 0x0 KECCAK256 PUSH1 0x1 ADD SLOAD EQ PUSH2 0x2E4 JUMPI PUSH1 0x40 MLOAD PUSH32 0x8C379A000000000000000000000000000000000000000000000000000000000 DUP2 MSTORE PUSH1 0x4 ADD PUSH2 0x2DB SWAP1 PUSH2 0x1D92 JUMP JUMPDEST PUSH1 0x40 MLOAD DUP1 SWAP2 SUB SWAP1 REVERT JUMPDEST PUSH1 0x0 PUSH1 0x8 PUSH1 0x0 CALLER PUSH20 0xFFFFFFFFFFFFFFFFFFFFFFFFFFFFFFFFFFFFFFFF AND PUSH20 0xFFFFFFFFFFFFFFFFFFFFFFFFFFFFFFFFFFFFFFFF AND DUP2 MSTORE PUSH1 0x20 ADD SWAP1 DUP2 MSTORE PUSH1 0x20 ADD PUSH1 0x0 KECCAK256 DUP1 SLOAD DUP1 PUSH1 0x20 MUL PUSH1 0x20 ADD PUSH1 0x40 MLOAD SWAP1 DUP2 ADD PUSH1 0x40 MSTORE DUP1 SWAP3 SWAP2 SWAP1 DUP2 DUP2 MSTORE PUSH1 0x20 ADD DUP3 DUP1 SLOAD DUP1 ISZERO PUSH2 0x36F JUMPI PUSH1 0x20 MUL DUP3 ADD SWAP2 SWAP1 PUSH1 0x0 MSTORE PUSH1 0x20 PUSH1 0x0 KECCAK256 SWAP1 JUMPDEST DUP2 SLOAD DUP2 MSTORE PUSH1 0x20 ADD SWAP1 PUSH1 0x1 ADD SWAP1 DUP1 DUP4 GT PUSH2 0x35B JUMPI JUMPDEST POP POP POP POP POP SWAP1 POP PUSH1 0x0 JUMPDEST DUP2 MLOAD DUP2 LT ISZERO PUSH2 0x3F2 JUMPI DUP5 DUP3 DUP3 DUP2 MLOAD DUP2 LT PUSH2 0x396 JUMPI PUSH2 0x395 PUSH2 0x1DB2 JUMP JUMPDEST JUMPDEST PUSH1 0x20 MUL PUSH1 0x20 ADD ADD MLOAD EQ ISZERO PUSH2 0x3DF JUMPI PUSH1 0x40 MLOAD PUSH32 0x8C379A000000000000000000000000000000000000000000000000000000000 DUP2 MSTORE PUSH1 0x4 ADD PUSH2 0x3D6 SWAP1 PUSH2 0x1E53 JUMP JUMPDEST PUSH1 0x40 MLOAD DUP1 SWAP2 SUB SWAP1 REVERT JUMPDEST DUP1 DUP1 PUSH2 0x3EA SWAP1 PUSH2 0x1EA2 JUMP JUMPDEST SWAP2 POP POP PUSH2 0x379 JUMP JUMPDEST POP PUSH1 0x5 PUSH1 0x0 DUP6 DUP2 MSTORE PUSH1 0x20 ADD SWAP1 DUP2 MSTORE PUSH1 0x20 ADD PUSH1 0x0 KECCAK256 PUSH1 0x4 ADD PUSH1 0x0 DUP2 SLOAD DUP1 SWAP3 SWAP2 SWAP1 PUSH2 0x41A SWAP1 PUSH2 0x1EA2 JUMP JUMPDEST SWAP2 SWAP1 POP SSTORE POP PUSH2 0x428 DUP7 PUSH2 0x12C0 JUMP JUMPDEST PUSH1 0x8 PUSH1 0x0 CALLER PUSH20 0xFFFFFFFFFFFFFFFFFFFFFFFFFFFFFFFFFFFFFFFF AND PUSH20 0xFFFFFFFFFFFFFFFFFFFFFFFFFFFFFFFFFFFFFFFF AND DUP2 MSTORE PUSH1 0x20 ADD SWAP1 DUP2 MSTORE PUSH1 0x20 ADD PUSH1 0x0 KECCAK256 DUP5 SWAP1 DUP1 PUSH1 0x1 DUP2 SLOAD ADD DUP1 DUP3 SSTORE DUP1 SWAP2 POP POP PUSH1 0x1 SWAP1 SUB SWAP1 PUSH1 0x0 MSTORE PUSH1 0x20 PUSH1 0x0 KECCAK256 ADD PUSH1 0x0 SWAP1 SWAP2 SWAP1 SWAP2 SWAP1 SWAP2 POP SSTORE PUSH32 0xE032B0171B8688390474F14CB113A546CF69CD6385BA4A5AE43550AFE994E0CC DUP7 DUP6 PUSH1 0x5 PUSH1 0x0 DUP9 DUP2 MSTORE PUSH1 0x20 ADD SWAP1 DUP2 MSTORE PUSH1 0x20 ADD PUSH1 0x0 KECCAK256 PUSH1 0x4 ADD SLOAD PUSH1 0x40 MLOAD PUSH2 0x4D7 SWAP4 SWAP3 SWAP2 SWAP1 PUSH2 0x1EEB JUMP JUMPDEST PUSH1 0x40 MLOAD DUP1 SWAP2 SUB SWAP1 LOG1 POP POP POP POP POP POP JUMP JUMPDEST PUSH2 0x4EF PUSH2 0x149B JUMP JUMPDEST PUSH1 0x1 PUSH1 0x0 SWAP1 SLOAD SWAP1 PUSH2 0x100 EXP SWAP1 DIV PUSH20 0xFFFFFFFFFFFFFFFFFFFFFFFFFFFFFFFFFFFFFFFF AND PUSH20 0xFFFFFFFFFFFFFFFFFFFFFFFFFFFFFFFFFFFFFFFF AND CALLER PUSH20 0xFFFFFFFFFFFFFFFFFFFFFFFFFFFFFFFFFFFFFFFF AND EQ PUSH2 0x57F JUMPI PUSH1 0x40 MLOAD PUSH32 0x8C379A000000000000000000000000000000000000000000000000000000000 DUP2 MSTORE PUSH1 0x4 ADD PUSH2 0x576 SWAP1 PUSH2 0x1F6E JUMP JUMPDEST PUSH1 0x40 MLOAD DUP1 SWAP2 SUB SWAP1 REVERT JUMPDEST PUSH1 0x4 PUSH1 0x0 DUP4 DUP2 MSTORE PUSH1 0x20 ADD SWAP1 DUP2 MSTORE PUSH1 0x20 ADD PUSH1 0x0 KECCAK256 PUSH1 0x40 MLOAD DUP1 PUSH1 0x60 ADD PUSH1 0x40 MSTORE SWAP1 DUP2 PUSH1 0x0 DUP3 ADD DUP1 SLOAD PUSH2 0x5AD SWAP1 PUSH2 0x1FBD JUMP JUMPDEST DUP1 PUSH1 0x1F ADD PUSH1 0x20 DUP1 SWAP2 DIV MUL PUSH1 0x20 ADD PUSH1 0x40 MLOAD SWAP1 DUP2 ADD PUSH1 0x40 MSTORE DUP1 SWAP3 SWAP2 SWAP1 DUP2 DUP2 MSTORE PUSH1 0x20 ADD DUP3 DUP1 SLOAD PUSH2 0x5D9 SWAP1 PUSH2 0x1FBD JUMP JUMPDEST DUP1 ISZERO PUSH2 0x626 JUMPI DUP1 PUSH1 0x1F LT PUSH2 0x5FB JUMPI PUSH2 0x100 DUP1 DUP4 SLOAD DIV MUL DUP4 MSTORE SWAP2 PUSH1 0x20 ADD SWAP2 PUSH2 0x626 JUMP JUMPDEST DUP3 ADD SWAP2 SWAP1 PUSH1 0x0 MSTORE PUSH1 0x20 PUSH1 0x0 KECCAK256 SWAP1 JUMPDEST DUP2 SLOAD DUP2 MSTORE SWAP1 PUSH1 0x1 ADD SWAP1 PUSH1 0x20 ADD DUP1 DUP4 GT PUSH2 0x609 JUMPI DUP3 SWAP1 SUB PUSH1 0x1F AND DUP3 ADD SWAP2 JUMPDEST POP POP POP POP POP DUP2 MSTORE PUSH1 0x20 ADD PUSH1 0x1 DUP3 ADD SLOAD DUP2 MSTORE PUSH1 0x20 ADD PUSH1 0x2 DUP3 ADD PUSH1 0x0 SWAP1 SLOAD SWAP1 PUSH2 0x100 EXP SWAP1 DIV PUSH20 0xFFFFFFFFFFFFFFFFFFFFFFFFFFFFFFFFFFFFFFFF AND PUSH20 0xFFFFFFFFFFFFFFFFFFFFFFFFFFFFFFFFFFFFFFFF AND PUSH20 0xFFFFFFFFFFFFFFFFFFFFFFFFFFFFFFFFFFFFFFFF AND DUP2 MSTORE POP POP SWAP1 POP SWAP2 SWAP1 POP JUMP JUMPDEST PUSH1 0x5 PUSH1 0x20 MSTORE DUP1 PUSH1 0x0 MSTORE PUSH1 0x40 PUSH1 0x0 KECCAK256 PUSH1 0x0 SWAP2 POP SWAP1 POP DUP1 PUSH1 0x0 ADD SLOAD SWAP1 DUP1 PUSH1 0x1 ADD DUP1 SLOAD PUSH2 0x6BF SWAP1 PUSH2 0x1FBD JUMP JUMPDEST DUP1 PUSH1 0x1F ADD PUSH1 0x20 DUP1 SWAP2 DIV MUL PUSH1 0x20 ADD PUSH1 0x40 MLOAD SWAP1 DUP2 ADD PUSH1 0x40 MSTORE DUP1 SWAP3 SWAP2 SWAP1 DUP2 DUP2 MSTORE PUSH1 0x20 ADD DUP3 DUP1 SLOAD PUSH2 0x6EB SWAP1 PUSH2 0x1FBD JUMP JUMPDEST DUP1 ISZERO PUSH2 0x738 JUMPI DUP1 PUSH1 0x1F LT PUSH2 0x70D JUMPI PUSH2 0x100 DUP1 DUP4 SLOAD DIV MUL DUP4 MSTORE SWAP2 PUSH1 0x20 ADD SWAP2 PUSH2 0x738 JUMP JUMPDEST DUP3 ADD SWAP2 SWAP1 PUSH1 0x0 MSTORE PUSH1 0x20 PUSH1 0x0 KECCAK256 SWAP1 JUMPDEST DUP2 SLOAD DUP2 MSTORE SWAP1 PUSH1 0x1 ADD SWAP1 PUSH1 0x20 ADD DUP1 DUP4 GT PUSH2 0x71B JUMPI DUP3 SWAP1 SUB PUSH1 0x1F AND DUP3 ADD SWAP2 JUMPDEST POP POP POP POP POP SWAP1 DUP1 PUSH1 0x2 ADD DUP1 SLOAD PUSH2 0x74D SWAP1 PUSH2 0x1FBD JUMP JUMPDEST DUP1 PUSH1 0x1F ADD PUSH1 0x20 DUP1 SWAP2 DIV MUL PUSH1 0x20 ADD PUSH1 0x40 MLOAD SWAP1 DUP2 ADD PUSH1 0x40 MSTORE DUP1 SWAP3 SWAP2 SWAP1 DUP2 DUP2 MSTORE PUSH1 0x20 ADD DUP3 DUP1 SLOAD PUSH2 0x779 SWAP1 PUSH2 0x1FBD JUMP JUMPDEST DUP1 ISZERO PUSH2 0x7C6 JUMPI DUP1 PUSH1 0x1F LT PUSH2 0x79B JUMPI PUSH2 0x100 DUP1 DUP4 SLOAD DIV MUL DUP4 MSTORE SWAP2 PUSH1 0x20 ADD SWAP2 PUSH2 0x7C6 JUMP JUMPDEST DUP3 ADD SWAP2 SWAP1 PUSH1 0x0 MSTORE PUSH1 0x20 PUSH1 0x0 KECCAK256 SWAP1 JUMPDEST DUP2 SLOAD DUP2 MSTORE SWAP1 PUSH1 0x1 ADD SWAP1 PUSH1 0x20 ADD DUP1 DUP4 GT PUSH2 0x7A9 JUMPI DUP3 SWAP1 SUB PUSH1 0x1F AND DUP3 ADD SWAP2 JUMPDEST POP POP POP POP POP SWAP1 DUP1 PUSH1 0x3 ADD SLOAD SWAP1 DUP1 PUSH1 0x4 ADD SLOAD SWAP1 DUP1 PUSH1 0x5 ADD PUSH1 0x0 SWAP1 SLOAD SWAP1 PUSH2 0x100 EXP SWAP1 DIV PUSH1 0xFF AND SWAP1 POP DUP7 JUMP JUMPDEST PUSH1 0x2 SLOAD DUP2 JUMP JUMPDEST DUP4 DUP4 DUP1 PUSH1 0x4 PUSH1 0x0 DUP5 DUP2 MSTORE PUSH1 0x20 ADD SWAP1 DUP2 MSTORE PUSH1 0x20 ADD PUSH1 0x0 KECCAK256 PUSH1 0x1 ADD SLOAD EQ PUSH2 0x84F JUMPI PUSH1 0x40 MLOAD PUSH32 0x8C379A000000000000000000000000000000000000000000000000000000000 DUP2 MSTORE PUSH1 0x4 ADD PUSH2 0x846 SWAP1 PUSH2 0x1D92 JUMP JUMPDEST PUSH1 0x40 MLOAD DUP1 SWAP2 SUB SWAP1 REVERT JUMPDEST PUSH1 0x0 PUSH1 0x3 SLOAD SWAP1 POP PUSH1 0x40 MLOAD DUP1 PUSH1 0xC0 ADD PUSH1 0x40 MSTORE DUP1 DUP3 DUP2 MSTORE PUSH1 0x20 ADD DUP7 DUP2 MSTORE PUSH1 0x20 ADD DUP6 DUP2 MSTORE PUSH1 0x20 ADD DUP9 DUP2 MSTORE PUSH1 0x20 ADD PUSH1 0x0 DUP2 MSTORE PUSH1 0x20 ADD PUSH1 0x0 ISZERO ISZERO DUP2 MSTORE POP PUSH1 0x5 PUSH1 0x0 PUSH1 0x3 SLOAD DUP2 MSTORE PUSH1 0x20 ADD SWAP1 DUP2 MSTORE PUSH1 0x20 ADD PUSH1 0x0 KECCAK256 PUSH1 0x0 DUP3 ADD MLOAD DUP2 PUSH1 0x0 ADD SSTORE PUSH1 0x20 DUP3 ADD MLOAD DUP2 PUSH1 0x1 ADD SWAP1 DUP1 MLOAD SWAP1 PUSH1 0x20 ADD SWAP1 PUSH2 0x8C2 SWAP3 SWAP2 SWAP1 PUSH2 0x14D2 JUMP JUMPDEST POP PUSH1 0x40 DUP3 ADD MLOAD DUP2 PUSH1 0x2 ADD SWAP1 DUP1 MLOAD SWAP1 PUSH1 0x20 ADD SWAP1 PUSH2 0x8DF SWAP3 SWAP2 SWAP1 PUSH2 0x14D2 JUMP JUMPDEST POP PUSH1 0x60 DUP3 ADD MLOAD DUP2 PUSH1 0x3 ADD SSTORE PUSH1 0x80 DUP3 ADD MLOAD DUP2 PUSH1 0x4 ADD SSTORE PUSH1 0xA0 DUP3 ADD MLOAD DUP2 PUSH1 0x5 ADD PUSH1 0x0 PUSH2 0x100 EXP DUP2 SLOAD DUP2 PUSH1 0xFF MUL NOT AND SWAP1 DUP4 ISZERO ISZERO MUL OR SWAP1 SSTORE POP SWAP1 POP POP PUSH1 0x3 PUSH1 0x0 DUP2 SLOAD DUP1 SWAP3 SWAP2 SWAP1 PUSH2 0x92A SWAP1 PUSH2 0x1EA2 JUMP JUMPDEST SWAP2 SWAP1 POP SSTORE POP PUSH1 0x6 PUSH1 0x0 DUP9 DUP2 MSTORE PUSH1 0x20 ADD SWAP1 DUP2 MSTORE PUSH1 0x20 ADD PUSH1 0x0 KECCAK256 PUSH1 0x0 DUP2 SLOAD DUP1 SWAP3 SWAP2 SWAP1 PUSH2 0x953 SWAP1 PUSH2 0x1EA2 JUMP JUMPDEST SWAP2 SWAP1 POP SSTORE POP PUSH1 0x7 PUSH1 0x0 DUP9 DUP2 MSTORE PUSH1 0x20 ADD SWAP1 DUP2 MSTORE PUSH1 0x20 ADD PUSH1 0x0 KECCAK256 DUP2 SWAP1 DUP1 PUSH1 0x1 DUP2 SLOAD ADD DUP1 DUP3 SSTORE DUP1 SWAP2 POP POP PUSH1 0x1 SWAP1 SUB SWAP1 PUSH1 0x0 MSTORE PUSH1 0x20 PUSH1 0x0 KECCAK256 ADD PUSH1 0x0 SWAP1 SWAP2 SWAP1 SWAP2 SWAP1 SWAP2 POP SSTORE PUSH32 0x491FDC42458554E4129B4791A55A9106D21FD297A6B991E5165112A8B4EA0088 PUSH1 0x5 PUSH1 0x0 DUP4 DUP2 MSTORE PUSH1 0x20 ADD SWAP1 DUP2 MSTORE PUSH1 0x20 ADD PUSH1 0x0 KECCAK256 PUSH1 0x40 MLOAD PUSH2 0x9D3 SWAP2 SWAP1 PUSH2 0x2198 JUMP JUMPDEST PUSH1 0x40 MLOAD DUP1 SWAP2 SUB SWAP1 LOG1 POP POP POP POP POP POP POP JUMP JUMPDEST DUP3 DUP3 DUP1 PUSH1 0x4 PUSH1 0x0 DUP5 DUP2 MSTORE PUSH1 0x20 ADD SWAP1 DUP2 MSTORE PUSH1 0x20 ADD PUSH1 0x0 KECCAK256 PUSH1 0x1 ADD SLOAD EQ PUSH2 0xA3E JUMPI PUSH1 0x40 MLOAD PUSH32 0x8C379A000000000000000000000000000000000000000000000000000000000 DUP2 MSTORE PUSH1 0x4 ADD PUSH2 0xA35 SWAP1 PUSH2 0x1D92 JUMP JUMPDEST PUSH1 0x40 MLOAD DUP1 SWAP2 SUB SWAP1 REVERT JUMPDEST PUSH1 0x0 PUSH1 0x8 PUSH1 0x0 CALLER PUSH20 0xFFFFFFFFFFFFFFFFFFFFFFFFFFFFFFFFFFFFFFFF AND PUSH20 0xFFFFFFFFFFFFFFFFFFFFFFFFFFFFFFFFFFFFFFFF AND DUP2 MSTORE PUSH1 0x20 ADD SWAP1 DUP2 MSTORE PUSH1 0x20 ADD PUSH1 0x0 KECCAK256 DUP1 SLOAD DUP1 PUSH1 0x20 MUL PUSH1 0x20 ADD PUSH1 0x40 MLOAD SWAP1 DUP2 ADD PUSH1 0x40 MSTORE DUP1 SWAP3 SWAP2 SWAP1 DUP2 DUP2 MSTORE PUSH1 0x20 ADD DUP3 DUP1 SLOAD DUP1 ISZERO PUSH2 0xAC9 JUMPI PUSH1 0x20 MUL DUP3 ADD SWAP2 SWAP1 PUSH1 0x0 MSTORE PUSH1 0x20 PUSH1 0x0 KECCAK256 SWAP1 JUMPDEST DUP2 SLOAD DUP2 MSTORE PUSH1 0x20 ADD SWAP1 PUSH1 0x1 ADD SWAP1 DUP1 DUP4 GT PUSH2 0xAB5 JUMPI JUMPDEST POP POP POP POP POP SWAP1 POP PUSH1 0x0 DUP1 JUMPDEST DUP3 MLOAD DUP2 LT ISZERO PUSH2 0xB1B JUMPI DUP6 DUP4 DUP3 DUP2 MLOAD DUP2 LT PUSH2 0xAF1 JUMPI PUSH2 0xAF0 PUSH2 0x1DB2 JUMP JUMPDEST JUMPDEST PUSH1 0x20 MUL PUSH1 0x20 ADD ADD MLOAD EQ ISZERO PUSH2 0xB08 JUMPI PUSH1 0x1 SWAP2 POP PUSH2 0xB1B JUMP JUMPDEST DUP1 DUP1 PUSH2 0xB13 SWAP1 PUSH2 0x1EA2 JUMP JUMPDEST SWAP2 POP POP PUSH2 0xAD4 JUMP JUMPDEST POP DUP1 PUSH2 0xB5C JUMPI PUSH1 0x40 MLOAD PUSH32 0x8C379A000000000000000000000000000000000000000000000000000000000 DUP2 MSTORE PUSH1 0x4 ADD PUSH2 0xB53 SWAP1 PUSH2 0x222C JUMP JUMPDEST PUSH1 0x40 MLOAD DUP1 SWAP2 SUB SWAP1 REVERT JUMPDEST PUSH1 0x5 PUSH1 0x0 DUP7 DUP2 MSTORE PUSH1 0x20 ADD SWAP1 DUP2 MSTORE PUSH1 0x20 ADD PUSH1 0x0 KECCAK256 PUSH1 0x4 ADD PUSH1 0x0 DUP2 SLOAD DUP1 SWAP3 SWAP2 SWAP1 PUSH2 0xB83 SWAP1 PUSH2 0x224C JUMP JUMPDEST SWAP2 SWAP1 POP SSTORE POP PUSH2 0xB91 DUP8 PUSH2 0x12C0 JUMP JUMPDEST PUSH1 0x0 PUSH1 0x8 PUSH1 0x0 CALLER PUSH20 0xFFFFFFFFFFFFFFFFFFFFFFFFFFFFFFFFFFFFFFFF AND PUSH20 0xFFFFFFFFFFFFFFFFFFFFFFFFFFFFFFFFFFFFFFFF AND DUP2 MSTORE PUSH1 0x20 ADD SWAP1 DUP2 MSTORE PUSH1 0x20 ADD PUSH1 0x0 KECCAK256 SWAP1 POP PUSH1 0x0 JUMPDEST DUP2 DUP1 SLOAD SWAP1 POP DUP2 LT ISZERO PUSH2 0xC96 JUMPI DUP7 DUP3 DUP3 DUP2 SLOAD DUP2 LT PUSH2 0xBF7 JUMPI PUSH2 0xBF6 PUSH2 0x1DB2 JUMP JUMPDEST JUMPDEST SWAP1 PUSH1 0x0 MSTORE PUSH1 0x20 PUSH1 0x0 KECCAK256 ADD SLOAD EQ ISZERO PUSH2 0xC83 JUMPI DUP2 PUSH1 0x1 DUP4 DUP1 SLOAD SWAP1 POP PUSH2 0xC1A SWAP2 SWAP1 PUSH2 0x2276 JUMP JUMPDEST DUP2 SLOAD DUP2 LT PUSH2 0xC2B JUMPI PUSH2 0xC2A PUSH2 0x1DB2 JUMP JUMPDEST JUMPDEST SWAP1 PUSH1 0x0 MSTORE PUSH1 0x20 PUSH1 0x0 KECCAK256 ADD SLOAD DUP3 DUP3 DUP2 SLOAD DUP2 LT PUSH2 0xC49 JUMPI PUSH2 0xC48 PUSH2 0x1DB2 JUMP JUMPDEST JUMPDEST SWAP1 PUSH1 0x0 MSTORE PUSH1 0x20 PUSH1 0x0 KECCAK256 ADD DUP2 SWAP1 SSTORE POP DUP2 DUP1 SLOAD DUP1 PUSH2 0xC68 JUMPI PUSH2 0xC67 PUSH2 0x22AA JUMP JUMPDEST JUMPDEST PUSH1 0x1 SWAP1 SUB DUP2 DUP2 SWAP1 PUSH1 0x0 MSTORE PUSH1 0x20 PUSH1 0x0 KECCAK256 ADD PUSH1 0x0 SWAP1 SSTORE SWAP1 SSTORE PUSH2 0xC96 JUMP JUMPDEST DUP1 DUP1 PUSH2 0xC8E SWAP1 PUSH2 0x1EA2 JUMP JUMPDEST SWAP2 POP POP PUSH2 0xBD7 JUMP JUMPDEST POP PUSH32 0x9AC3D178FD7A3254BA35847B1C82F6886954CBA1EB2265B381373C8EA1741896 DUP9 DUP8 PUSH1 0x5 PUSH1 0x0 DUP11 DUP2 MSTORE PUSH1 0x20 ADD SWAP1 DUP2 MSTORE PUSH1 0x20 ADD PUSH1 0x0 KECCAK256 PUSH1 0x4 ADD SLOAD PUSH1 0x40 MLOAD PUSH2 0xCE0 SWAP4 SWAP3 SWAP2 SWAP1 PUSH2 0x1EEB JUMP JUMPDEST PUSH1 0x40 MLOAD DUP1 SWAP2 SUB SWAP1 LOG1 POP POP POP POP POP POP POP POP JUMP JUMPDEST PUSH1 0x8 PUSH1 0x20 MSTORE DUP2 PUSH1 0x0 MSTORE PUSH1 0x40 PUSH1 0x0 KECCAK256 DUP2 DUP2 SLOAD DUP2 LT PUSH2 0xD0E JUMPI PUSH1 0x0 DUP1 REVERT JUMPDEST SWAP1 PUSH1 0x0 MSTORE PUSH1 0x20 PUSH1 0x0 KECCAK256 ADD PUSH1 0x0 SWAP2 POP SWAP2 POP POP SLOAD DUP2 JUMP JUMPDEST PUSH1 0x60 DUP3 DUP3 DUP1 PUSH1 0x4 PUSH1 0x0 DUP5 DUP2 MSTORE PUSH1 0x20 ADD SWAP1 DUP2 MSTORE PUSH1 0x20 ADD PUSH1 0x0 KECCAK256 PUSH1 0x1 ADD SLOAD EQ PUSH2 0xD7F JUMPI PUSH1 0x40 MLOAD PUSH32 0x8C379A000000000000000000000000000000000000000000000000000000000 DUP2 MSTORE PUSH1 0x4 ADD PUSH2 0xD76 SWAP1 PUSH2 0x1D92 JUMP JUMPDEST PUSH1 0x40 MLOAD DUP1 SWAP2 SUB SWAP1 REVERT JUMPDEST PUSH1 0x0 PUSH1 0x6 PUSH1 0x0 DUP8 DUP2 MSTORE PUSH1 0x20 ADD SWAP1 DUP2 MSTORE PUSH1 0x20 ADD PUSH1 0x0 KECCAK256 SLOAD SWAP1 POP PUSH1 0x0 DUP2 PUSH8 0xFFFFFFFFFFFFFFFF DUP2 GT ISZERO PUSH2 0xDB3 JUMPI PUSH2 0xDB2 PUSH2 0x18DA JUMP JUMPDEST JUMPDEST PUSH1 0x40 MLOAD SWAP1 DUP1 DUP3 MSTORE DUP1 PUSH1 0x20 MUL PUSH1 0x20 ADD DUP3 ADD PUSH1 0x40 MSTORE DUP1 ISZERO PUSH2 0xDEC JUMPI DUP2 PUSH1 0x20 ADD JUMPDEST PUSH2 0xDD9 PUSH2 0x1558 JUMP JUMPDEST DUP2 MSTORE PUSH1 0x20 ADD SWAP1 PUSH1 0x1 SWAP1 SUB SWAP1 DUP2 PUSH2 0xDD1 JUMPI SWAP1 POP JUMPDEST POP SWAP1 POP PUSH1 0x0 JUMPDEST DUP3 DUP2 LT ISZERO PUSH2 0x1123 JUMPI PUSH1 0x5 PUSH1 0x0 PUSH1 0x7 PUSH1 0x0 DUP12 DUP2 MSTORE PUSH1 0x20 ADD SWAP1 DUP2 MSTORE PUSH1 0x20 ADD PUSH1 0x0 KECCAK256 DUP4 DUP2 SLOAD DUP2 LT PUSH2 0xE23 JUMPI PUSH2 0xE22 PUSH2 0x1DB2 JUMP JUMPDEST JUMPDEST SWAP1 PUSH1 0x0 MSTORE PUSH1 0x20 PUSH1 0x0 KECCAK256 ADD SLOAD DUP2 MSTORE PUSH1 0x20 ADD SWAP1 DUP2 MSTORE PUSH1 0x20 ADD PUSH1 0x0 KECCAK256 PUSH1 0x40 MLOAD DUP1 PUSH1 0xC0 ADD PUSH1 0x40 MSTORE SWAP1 DUP2 PUSH1 0x0 DUP3 ADD SLOAD DUP2 MSTORE PUSH1 0x20 ADD PUSH1 0x1 DUP3 ADD DUP1 SLOAD PUSH2 0xE61 SWAP1 PUSH2 0x1FBD JUMP JUMPDEST DUP1 PUSH1 0x1F ADD PUSH1 0x20 DUP1 SWAP2 DIV MUL PUSH1 0x20 ADD PUSH1 0x40 MLOAD SWAP1 DUP2 ADD PUSH1 0x40 MSTORE DUP1 SWAP3 SWAP2 SWAP1 DUP2 DUP2 MSTORE PUSH1 0x20 ADD DUP3 DUP1 SLOAD PUSH2 0xE8D SWAP1 PUSH2 0x1FBD JUMP JUMPDEST DUP1 ISZERO PUSH2 0xEDA JUMPI DUP1 PUSH1 0x1F LT PUSH2 0xEAF JUMPI PUSH2 0x100 DUP1 DUP4 SLOAD DIV MUL DUP4 MSTORE SWAP2 PUSH1 0x20 ADD SWAP2 PUSH2 0xEDA JUMP JUMPDEST DUP3 ADD SWAP2 SWAP1 PUSH1 0x0 MSTORE PUSH1 0x20 PUSH1 0x0 KECCAK256 SWAP1 JUMPDEST DUP2 SLOAD DUP2 MSTORE SWAP1 PUSH1 0x1 ADD SWAP1 PUSH1 0x20 ADD DUP1 DUP4 GT PUSH2 0xEBD JUMPI DUP3 SWAP1 SUB PUSH1 0x1F AND DUP3 ADD SWAP2 JUMPDEST POP POP POP POP POP DUP2 MSTORE PUSH1 0x20 ADD PUSH1 0x2 DUP3 ADD DUP1 SLOAD PUSH2 0xEF3 SWAP1 PUSH2 0x1FBD JUMP JUMPDEST DUP1 PUSH1 0x1F ADD PUSH1 0x20 DUP1 SWAP2 DIV MUL PUSH1 0x20 ADD PUSH1 0x40 MLOAD SWAP1 DUP2 ADD PUSH1 0x40 MSTORE DUP1 SWAP3 SWAP2 SWAP1 DUP2 DUP2 MSTORE PUSH1 0x20 ADD DUP3 DUP1 SLOAD PUSH2 0xF1F SWAP1 PUSH2 0x1FBD JUMP JUMPDEST DUP1 ISZERO PUSH2 0xF6C JUMPI DUP1 PUSH1 0x1F LT PUSH2 0xF41 JUMPI PUSH2 0x100 DUP1 DUP4 SLOAD DIV MUL DUP4 MSTORE SWAP2 PUSH1 0x20 ADD SWAP2 PUSH2 0xF6C JUMP JUMPDEST DUP3 ADD SWAP2 SWAP1 PUSH1 0x0 MSTORE PUSH1 0x20 PUSH1 0x0 KECCAK256 SWAP1 JUMPDEST DUP2 SLOAD DUP2 MSTORE SWAP1 PUSH1 0x1 ADD SWAP1 PUSH1 0x20 ADD DUP1 DUP4 GT PUSH2 0xF4F JUMPI DUP3 SWAP1 SUB PUSH1 0x1F AND DUP3 ADD SWAP2 JUMPDEST POP POP POP POP POP DUP2 MSTORE PUSH1 0x20 ADD PUSH1 0x3 DUP3 ADD SLOAD DUP2 MSTORE PUSH1 0x20 ADD PUSH1 0x4 DUP3 ADD SLOAD DUP2 MSTORE PUSH1 0x20 ADD PUSH1 0x5 DUP3 ADD PUSH1 0x0 SWAP1 SLOAD SWAP1 PUSH2 0x100 EXP SWAP1 DIV PUSH1 0xFF AND ISZERO ISZERO ISZERO ISZERO DUP2 MSTORE POP POP DUP3 DUP3 DUP2 MLOAD DUP2 LT PUSH2 0xFB7 JUMPI PUSH2 0xFB6 PUSH2 0x1DB2 JUMP JUMPDEST JUMPDEST PUSH1 0x20 MUL PUSH1 0x20 ADD ADD DUP2 SWAP1 MSTORE POP PUSH1 0x0 DUP3 DUP3 DUP2 MLOAD DUP2 LT PUSH2 0xFD7 JUMPI PUSH2 0xFD6 PUSH2 0x1DB2 JUMP JUMPDEST JUMPDEST PUSH1 0x20 MUL PUSH1 0x20 ADD ADD MLOAD PUSH1 0xA0 ADD SWAP1 ISZERO ISZERO SWAP1 DUP2 ISZERO ISZERO DUP2 MSTORE POP POP PUSH1 0x0 PUSH1 0x8 PUSH1 0x0 CALLER PUSH20 0xFFFFFFFFFFFFFFFFFFFFFFFFFFFFFFFFFFFFFFFF AND PUSH20 0xFFFFFFFFFFFFFFFFFFFFFFFFFFFFFFFFFFFFFFFF AND DUP2 MSTORE PUSH1 0x20 ADD SWAP1 DUP2 MSTORE PUSH1 0x20 ADD PUSH1 0x0 KECCAK256 DUP1 SLOAD DUP1 PUSH1 0x20 MUL PUSH1 0x20 ADD PUSH1 0x40 MLOAD SWAP1 DUP2 ADD PUSH1 0x40 MSTORE DUP1 SWAP3 SWAP2 SWAP1 DUP2 DUP2 MSTORE PUSH1 0x20 ADD DUP3 DUP1 SLOAD DUP1 ISZERO PUSH2 0x1078 JUMPI PUSH1 0x20 MUL DUP3 ADD SWAP2 SWAP1 PUSH1 0x0 MSTORE PUSH1 0x20 PUSH1 0x0 KECCAK256 SWAP1 JUMPDEST DUP2 SLOAD DUP2 MSTORE PUSH1 0x20 ADD SWAP1 PUSH1 0x1 ADD SWAP1 DUP1 DUP4 GT PUSH2 0x1064 JUMPI JUMPDEST POP POP POP POP POP SWAP1 POP PUSH1 0x0 JUMPDEST DUP2 MLOAD DUP2 LT ISZERO PUSH2 0x110E JUMPI DUP4 DUP4 DUP2 MLOAD DUP2 LT PUSH2 0x109E JUMPI PUSH2 0x109D PUSH2 0x1DB2 JUMP JUMPDEST JUMPDEST PUSH1 0x20 MUL PUSH1 0x20 ADD ADD MLOAD PUSH1 0x0 ADD MLOAD DUP3 DUP3 DUP2 MLOAD DUP2 LT PUSH2 0x10BD JUMPI PUSH2 0x10BC PUSH2 0x1DB2 JUMP JUMPDEST JUMPDEST PUSH1 0x20 MUL PUSH1 0x20 ADD ADD MLOAD EQ ISZERO PUSH2 0x10FB JUMPI PUSH1 0x1 DUP5 DUP5 DUP2 MLOAD DUP2 LT PUSH2 0x10E0 JUMPI PUSH2 0x10DF PUSH2 0x1DB2 JUMP JUMPDEST JUMPDEST PUSH1 0x20 MUL PUSH1 0x20 ADD ADD MLOAD PUSH1 0xA0 ADD SWAP1 ISZERO ISZERO SWAP1 DUP2 ISZERO ISZERO DUP2 MSTORE POP POP PUSH2 0x110E JUMP JUMPDEST DUP1 DUP1 PUSH2 0x1106 SWAP1 PUSH2 0x1EA2 JUMP JUMPDEST SWAP2 POP POP PUSH2 0x1082 JUMP JUMPDEST POP POP DUP1 DUP1 PUSH2 0x111B SWAP1 PUSH2 0x1EA2 JUMP JUMPDEST SWAP2 POP POP PUSH2 0xDF2 JUMP JUMPDEST POP DUP1 SWAP5 POP POP POP POP POP SWAP3 SWAP2 POP POP JUMP JUMPDEST PUSH1 0x1 PUSH1 0x0 SWAP1 SLOAD SWAP1 PUSH2 0x100 EXP SWAP1 DIV PUSH20 0xFFFFFFFFFFFFFFFFFFFFFFFFFFFFFFFFFFFFFFFF AND DUP2 JUMP JUMPDEST PUSH1 0x6 PUSH1 0x20 MSTORE DUP1 PUSH1 0x0 MSTORE PUSH1 0x40 PUSH1 0x0 KECCAK256 PUSH1 0x0 SWAP2 POP SWAP1 POP SLOAD DUP2 JUMP JUMPDEST PUSH1 0x0 PUSH1 0x2 SLOAD SWAP1 POP PUSH1 0x0 PUSH2 0x1180 PUSH2 0x1425 JUMP JUMPDEST SWAP1 POP PUSH1 0x40 MLOAD DUP1 PUSH1 0x60 ADD PUSH1 0x40 MSTORE DUP1 DUP5 DUP2 MSTORE PUSH1 0x20 ADD DUP3 DUP2 MSTORE PUSH1 0x20 ADD CALLER PUSH20 0xFFFFFFFFFFFFFFFFFFFFFFFFFFFFFFFFFFFFFFFF AND DUP2 MSTORE POP PUSH1 0x4 PUSH1 0x0 DUP5 DUP2 MSTORE PUSH1 0x20 ADD SWAP1 DUP2 MSTORE PUSH1 0x20 ADD PUSH1 0x0 KECCAK256 PUSH1 0x0 DUP3 ADD MLOAD DUP2 PUSH1 0x0 ADD SWAP1 DUP1 MLOAD SWAP1 PUSH1 0x20 ADD SWAP1 PUSH2 0x11E2 SWAP3 SWAP2 SWAP1 PUSH2 0x14D2 JUMP JUMPDEST POP PUSH1 0x20 DUP3 ADD MLOAD DUP2 PUSH1 0x1 ADD SSTORE PUSH1 0x40 DUP3 ADD MLOAD DUP2 PUSH1 0x2 ADD PUSH1 0x0 PUSH2 0x100 EXP DUP2 SLOAD DUP2 PUSH20 0xFFFFFFFFFFFFFFFFFFFFFFFFFFFFFFFFFFFFFFFF MUL NOT AND SWAP1 DUP4 PUSH20 0xFFFFFFFFFFFFFFFFFFFFFFFFFFFFFFFFFFFFFFFF AND MUL OR SWAP1 SSTORE POP SWAP1 POP POP PUSH1 0x2 PUSH1 0x0 DUP2 SLOAD DUP1 SWAP3 SWAP2 SWAP1 PUSH2 0x124A SWAP1 PUSH2 0x1EA2 JUMP JUMPDEST SWAP2 SWAP1 POP SSTORE POP PUSH32 0xD2054CD4B5B00C541FEA07E8AF0136637B383528DB2F4BDFA9B7AE096E7DCF8 DUP3 DUP5 DUP4 PUSH1 0x40 MLOAD PUSH2 0x1282 SWAP4 SWAP3 SWAP2 SWAP1 PUSH2 0x22D9 JUMP JUMPDEST PUSH1 0x40 MLOAD DUP1 SWAP2 SUB SWAP1 LOG1 POP POP POP JUMP JUMPDEST PUSH1 0x7 PUSH1 0x20 MSTORE DUP2 PUSH1 0x0 MSTORE PUSH1 0x40 PUSH1 0x0 KECCAK256 DUP2 DUP2 SLOAD DUP2 LT PUSH2 0x12AB JUMPI PUSH1 0x0 DUP1 REVERT JUMPDEST SWAP1 PUSH1 0x0 MSTORE PUSH1 0x20 PUSH1 0x0 KECCAK256 ADD PUSH1 0x0 SWAP2 POP SWAP2 POP POP SLOAD DUP2 JUMP JUMPDEST PUSH1 0x0 PUSH1 0x7 PUSH1 0x0 DUP4 DUP2 MSTORE PUSH1 0x20 ADD SWAP1 DUP2 MSTORE PUSH1 0x20 ADD PUSH1 0x0 KECCAK256 SWAP1 POP PUSH1 0x0 DUP2 DUP1 SLOAD SWAP1 POP SWAP1 POP PUSH1 0x0 JUMPDEST DUP2 DUP2 LT ISZERO PUSH2 0x141F JUMPI PUSH1 0x0 PUSH1 0x1 DUP3 PUSH2 0x12FA SWAP2 SWAP1 PUSH2 0x2317 JUMP JUMPDEST SWAP1 POP JUMPDEST DUP3 DUP2 LT ISZERO PUSH2 0x140B JUMPI PUSH1 0x5 PUSH1 0x0 DUP6 DUP4 DUP2 SLOAD DUP2 LT PUSH2 0x131C JUMPI PUSH2 0x131B PUSH2 0x1DB2 JUMP JUMPDEST JUMPDEST SWAP1 PUSH1 0x0 MSTORE PUSH1 0x20 PUSH1 0x0 KECCAK256 ADD SLOAD DUP2 MSTORE PUSH1 0x20 ADD SWAP1 DUP2 MSTORE PUSH1 0x20 ADD PUSH1 0x0 KECCAK256 PUSH1 0x4 ADD SLOAD PUSH1 0x5 PUSH1 0x0 DUP7 DUP6 DUP2 SLOAD DUP2 LT PUSH2 0x1350 JUMPI PUSH2 0x134F PUSH2 0x1DB2 JUMP JUMPDEST JUMPDEST SWAP1 PUSH1 0x0 MSTORE PUSH1 0x20 PUSH1 0x0 KECCAK256 ADD SLOAD DUP2 MSTORE PUSH1 0x20 ADD SWAP1 DUP2 MSTORE PUSH1 0x20 ADD PUSH1 0x0 KECCAK256 PUSH1 0x4 ADD SLOAD LT ISZERO PUSH2 0x13F8 JUMPI PUSH1 0x0 DUP5 DUP4 DUP2 SLOAD DUP2 LT PUSH2 0x1388 JUMPI PUSH2 0x1387 PUSH2 0x1DB2 JUMP JUMPDEST JUMPDEST SWAP1 PUSH1 0x0 MSTORE PUSH1 0x20 PUSH1 0x0 KECCAK256 ADD SLOAD SWAP1 POP DUP5 DUP3 DUP2 SLOAD DUP2 LT PUSH2 0x13A8 JUMPI PUSH2 0x13A7 PUSH2 0x1DB2 JUMP JUMPDEST JUMPDEST SWAP1 PUSH1 0x0 MSTORE PUSH1 0x20 PUSH1 0x0 KECCAK256 ADD SLOAD DUP6 DUP5 DUP2 SLOAD DUP2 LT PUSH2 0x13C6 JUMPI PUSH2 0x13C5 PUSH2 0x1DB2 JUMP JUMPDEST JUMPDEST SWAP1 PUSH1 0x0 MSTORE PUSH1 0x20 PUSH1 0x0 KECCAK256 ADD DUP2 SWAP1 SSTORE POP DUP1 DUP6 DUP4 DUP2 SLOAD DUP2 LT PUSH2 0x13E8 JUMPI PUSH2 0x13E7 PUSH2 0x1DB2 JUMP JUMPDEST JUMPDEST SWAP1 PUSH1 0x0 MSTORE PUSH1 0x20 PUSH1 0x0 KECCAK256 ADD DUP2 SWAP1 SSTORE POP POP JUMPDEST DUP1 DUP1 PUSH2 0x1403 SWAP1 PUSH2 0x1EA2 JUMP JUMPDEST SWAP2 POP POP PUSH2 0x12FD JUMP JUMPDEST POP DUP1 DUP1 PUSH2 0x1417 SWAP1 PUSH2 0x1EA2 JUMP JUMPDEST SWAP2 POP POP PUSH2 0x12E3 JUMP JUMPDEST POP POP POP POP JUMP JUMPDEST PUSH1 0x0 DUP1 PUSH1 0x0 DUP2 SLOAD DUP1 SWAP3 SWAP2 SWAP1 PUSH2 0x1439 SWAP1 PUSH2 0x1EA2 JUMP JUMPDEST SWAP2 SWAP1 POP SSTORE POP PUSH1 0x0 TIMESTAMP CALLER PUSH1 0x0 SLOAD PUSH1 0x40 MLOAD PUSH1 0x20 ADD PUSH2 0x1457 SWAP4 SWAP3 SWAP2 SWAP1 PUSH2 0x23D6 JUMP JUMPDEST PUSH1 0x40 MLOAD PUSH1 0x20 DUP2 DUP4 SUB SUB DUP2 MSTORE SWAP1 PUSH1 0x40 MSTORE DUP1 MLOAD SWAP1 PUSH1 0x20 ADD KECCAK256 PUSH1 0x0 SHR SWAP1 POP PUSH1 0x0 PUSH3 0x186A0 PUSH3 0xDBBA0 DUP4 PUSH2 0x1487 SWAP2 SWAP1 PUSH2 0x2442 JUMP JUMPDEST PUSH2 0x1491 SWAP2 SWAP1 PUSH2 0x2317 JUMP JUMPDEST SWAP1 POP DUP1 SWAP3 POP POP POP SWAP1 JUMP JUMPDEST PUSH1 0x40 MLOAD DUP1 PUSH1 0x60 ADD PUSH1 0x40 MSTORE DUP1 PUSH1 0x60 DUP2 MSTORE PUSH1 0x20 ADD PUSH1 0x0 DUP2 MSTORE PUSH1 0x20 ADD PUSH1 0x0 PUSH20 0xFFFFFFFFFFFFFFFFFFFFFFFFFFFFFFFFFFFFFFFF AND DUP2 MSTORE POP SWAP1 JUMP JUMPDEST DUP3 DUP1 SLOAD PUSH2 0x14DE SWAP1 PUSH2 0x1FBD JUMP JUMPDEST SWAP1 PUSH1 0x0 MSTORE PUSH1 0x20 PUSH1 0x0 KECCAK256 SWAP1 PUSH1 0x1F ADD PUSH1 0x20 SWAP1 DIV DUP2 ADD SWAP3 DUP3 PUSH2 0x1500 JUMPI PUSH1 0x0 DUP6 SSTORE PUSH2 0x1547 JUMP JUMPDEST DUP3 PUSH1 0x1F LT PUSH2 0x1519 JUMPI DUP1 MLOAD PUSH1 0xFF NOT AND DUP4 DUP1 ADD OR DUP6 SSTORE PUSH2 0x1547 JUMP JUMPDEST DUP3 DUP1 ADD PUSH1 0x1 ADD DUP6 SSTORE DUP3 ISZERO PUSH2 0x1547 JUMPI SWAP2 DUP3 ADD JUMPDEST DUP3 DUP2 GT ISZERO PUSH2 0x1546 JUMPI DUP3 MLOAD DUP3 SSTORE SWAP2 PUSH1 0x20 ADD SWAP2 SWAP1 PUSH1 0x1 ADD SWAP1 PUSH2 0x152B JUMP JUMPDEST JUMPDEST POP SWAP1 POP PUSH2 0x1554 SWAP2 SWAP1 PUSH2 0x1590 JUMP JUMPDEST POP SWAP1 JUMP JUMPDEST PUSH1 0x40 MLOAD DUP1 PUSH1 0xC0 ADD PUSH1 0x40 MSTORE DUP1 PUSH1 0x0 DUP2 MSTORE PUSH1 0x20 ADD PUSH1 0x60 DUP2 MSTORE PUSH1 0x20 ADD PUSH1 0x60 DUP2 MSTORE PUSH1 0x20 ADD PUSH1 0x0 DUP2 MSTORE PUSH1 0x20 ADD PUSH1 0x0 DUP2 MSTORE PUSH1 0x20 ADD PUSH1 0x0 ISZERO ISZERO DUP2 MSTORE POP SWAP1 JUMP JUMPDEST JUMPDEST DUP1 DUP3 GT ISZERO PUSH2 0x15A9 JUMPI PUSH1 0x0 DUP2 PUSH1 0x0 SWAP1 SSTORE POP PUSH1 0x1 ADD PUSH2 0x1591 JUMP JUMPDEST POP SWAP1 JUMP JUMPDEST PUSH1 0x0 PUSH1 0x40 MLOAD SWAP1 POP SWAP1 JUMP JUMPDEST PUSH1 0x0 DUP1 REVERT JUMPDEST PUSH1 0x0 DUP1 REVERT JUMPDEST PUSH1 0x0 DUP2 SWAP1 POP SWAP2 SWAP1 POP JUMP JUMPDEST PUSH2 0x15D4 DUP2 PUSH2 0x15C1 JUMP JUMPDEST DUP2 EQ PUSH2 0x15DF JUMPI PUSH1 0x0 DUP1 REVERT JUMPDEST POP JUMP JUMPDEST PUSH1 0x0 DUP2 CALLDATALOAD SWAP1 POP PUSH2 0x15F1 DUP2 PUSH2 0x15CB JUMP JUMPDEST SWAP3 SWAP2 POP POP JUMP JUMPDEST PUSH1 0x0 DUP1 PUSH1 0x0 PUSH1 0x60 DUP5 DUP7 SUB SLT ISZERO PUSH2 0x1610 JUMPI PUSH2 0x160F PUSH2 0x15B7 JUMP JUMPDEST JUMPDEST PUSH1 0x0 PUSH2 0x161E DUP7 DUP3 DUP8 ADD PUSH2 0x15E2 JUMP JUMPDEST SWAP4 POP POP PUSH1 0x20 PUSH2 0x162F DUP7 DUP3 DUP8 ADD PUSH2 0x15E2 JUMP JUMPDEST SWAP3 POP POP PUSH1 0x40 PUSH2 0x1640 DUP7 DUP3 DUP8 ADD PUSH2 0x15E2 JUMP JUMPDEST SWAP2 POP POP SWAP3 POP SWAP3 POP SWAP3 JUMP JUMPDEST PUSH1 0x0 PUSH1 0x20 DUP3 DUP5 SUB SLT ISZERO PUSH2 0x1660 JUMPI PUSH2 0x165F PUSH2 0x15B7 JUMP JUMPDEST JUMPDEST PUSH1 0x0 PUSH2 0x166E DUP5 DUP3 DUP6 ADD PUSH2 0x15E2 JUMP JUMPDEST SWAP2 POP POP SWAP3 SWAP2 POP POP JUMP JUMPDEST PUSH1 0x0 DUP2 MLOAD SWAP1 POP SWAP2 SWAP1 POP JUMP JUMPDEST PUSH1 0x0 DUP3 DUP3 MSTORE PUSH1 0x20 DUP3 ADD SWAP1 POP SWAP3 SWAP2 POP POP JUMP JUMPDEST PUSH1 0x0 JUMPDEST DUP4 DUP2 LT ISZERO PUSH2 0x16B1 JUMPI DUP1 DUP3 ADD MLOAD DUP2 DUP5 ADD MSTORE PUSH1 0x20 DUP2 ADD SWAP1 POP PUSH2 0x1696 JUMP JUMPDEST DUP4 DUP2 GT ISZERO PUSH2 0x16C0 JUMPI PUSH1 0x0 DUP5 DUP5 ADD MSTORE JUMPDEST POP POP POP POP JUMP JUMPDEST PUSH1 0x0 PUSH1 0x1F NOT PUSH1 0x1F DUP4 ADD AND SWAP1 POP SWAP2 SWAP1 POP JUMP JUMPDEST PUSH1 0x0 PUSH2 0x16E2 DUP3 PUSH2 0x1677 JUMP JUMPDEST PUSH2 0x16EC DUP2 DUP6 PUSH2 0x1682 JUMP JUMPDEST SWAP4 POP PUSH2 0x16FC DUP2 DUP6 PUSH1 0x20 DUP7 ADD PUSH2 0x1693 JUMP JUMPDEST PUSH2 0x1705 DUP2 PUSH2 0x16C6 JUMP JUMPDEST DUP5 ADD SWAP2 POP POP SWAP3 SWAP2 POP POP JUMP JUMPDEST PUSH2 0x1719 DUP2 PUSH2 0x15C1 JUMP JUMPDEST DUP3 MSTORE POP POP JUMP JUMPDEST PUSH1 0x0 PUSH20 0xFFFFFFFFFFFFFFFFFFFFFFFFFFFFFFFFFFFFFFFF DUP3 AND SWAP1 POP SWAP2 SWAP1 POP JUMP JUMPDEST PUSH1 0x0 PUSH2 0x174A DUP3 PUSH2 0x171F JUMP JUMPDEST SWAP1 POP SWAP2 SWAP1 POP JUMP JUMPDEST PUSH2 0x175A DUP2 PUSH2 0x173F JUMP JUMPDEST DUP3 MSTORE POP POP JUMP JUMPDEST PUSH1 0x0 PUSH1 0x60 DUP4 ADD PUSH1 0x0 DUP4 ADD MLOAD DUP5 DUP3 SUB PUSH1 0x0 DUP7 ADD MSTORE PUSH2 0x177D DUP3 DUP3 PUSH2 0x16D7 JUMP JUMPDEST SWAP2 POP POP PUSH1 0x20 DUP4 ADD MLOAD PUSH2 0x1792 PUSH1 0x20 DUP7 ADD DUP3 PUSH2 0x1710 JUMP JUMPDEST POP PUSH1 0x40 DUP4 ADD MLOAD PUSH2 0x17A5 PUSH1 0x40 DUP7 ADD DUP3 PUSH2 0x1751 JUMP JUMPDEST POP DUP1 SWAP2 POP POP SWAP3 SWAP2 POP POP JUMP JUMPDEST PUSH1 0x0 PUSH1 0x20 DUP3 ADD SWAP1 POP DUP2 DUP2 SUB PUSH1 0x0 DUP4 ADD MSTORE PUSH2 0x17CA DUP2 DUP5 PUSH2 0x1760 JUMP JUMPDEST SWAP1 POP SWAP3 SWAP2 POP POP JUMP JUMPDEST PUSH2 0x17DB DUP2 PUSH2 0x15C1 JUMP JUMPDEST DUP3 MSTORE POP POP JUMP JUMPDEST PUSH1 0x0 DUP3 DUP3 MSTORE PUSH1 0x20 DUP3 ADD SWAP1 POP SWAP3 SWAP2 POP POP JUMP JUMPDEST PUSH1 0x0 PUSH2 0x17FD DUP3 PUSH2 0x1677 JUMP JUMPDEST PUSH2 0x1807 DUP2 DUP6 PUSH2 0x17E1 JUMP JUMPDEST SWAP4 POP PUSH2 0x1817 DUP2 DUP6 PUSH1 0x20 DUP7 ADD PUSH2 0x1693 JUMP JUMPDEST PUSH2 0x1820 DUP2 PUSH2 0x16C6 JUMP JUMPDEST DUP5 ADD SWAP2 POP POP SWAP3 SWAP2 POP POP JUMP JUMPDEST PUSH1 0x0 DUP2 ISZERO ISZERO SWAP1 POP SWAP2 SWAP1 POP JUMP JUMPDEST PUSH2 0x1840 DUP2 PUSH2 0x182B JUMP JUMPDEST DUP3 MSTORE POP POP JUMP JUMPDEST PUSH1 0x0 PUSH1 0xC0 DUP3 ADD SWAP1 POP PUSH2 0x185B PUSH1 0x0 DUP4 ADD DUP10 PUSH2 0x17D2 JUMP JUMPDEST DUP2 DUP2 SUB PUSH1 0x20 DUP4 ADD MSTORE PUSH2 0x186D DUP2 DUP9 PUSH2 0x17F2 JUMP JUMPDEST SWAP1 POP DUP2 DUP2 SUB PUSH1 0x40 DUP4 ADD MSTORE PUSH2 0x1881 DUP2 DUP8 PUSH2 0x17F2 JUMP JUMPDEST SWAP1 POP PUSH2 0x1890 PUSH1 0x60 DUP4 ADD DUP7 PUSH2 0x17D2 JUMP JUMPDEST PUSH2 0x189D PUSH1 0x80 DUP4 ADD DUP6 PUSH2 0x17D2 JUMP JUMPDEST PUSH2 0x18AA PUSH1 0xA0 DUP4 ADD DUP5 PUSH2 0x1837 JUMP JUMPDEST SWAP8 SWAP7 POP POP POP POP POP POP POP JUMP JUMPDEST PUSH1 0x0 PUSH1 0x20 DUP3 ADD SWAP1 POP PUSH2 0x18CA PUSH1 0x0 DUP4 ADD DUP5 PUSH2 0x17D2 JUMP JUMPDEST SWAP3 SWAP2 POP POP JUMP JUMPDEST PUSH1 0x0 DUP1 REVERT JUMPDEST PUSH1 0x0 DUP1 REVERT JUMPDEST PUSH32 0x4E487B7100000000000000000000000000000000000000000000000000000000 PUSH1 0x0 MSTORE PUSH1 0x41 PUSH1 0x4 MSTORE PUSH1 0x24 PUSH1 0x0 REVERT JUMPDEST PUSH2 0x1912 DUP3 PUSH2 0x16C6 JUMP JUMPDEST DUP2 ADD DUP2 DUP2 LT PUSH8 0xFFFFFFFFFFFFFFFF DUP3 GT OR ISZERO PUSH2 0x1931 JUMPI PUSH2 0x1930 PUSH2 0x18DA JUMP JUMPDEST JUMPDEST DUP1 PUSH1 0x40 MSTORE POP POP POP JUMP JUMPDEST PUSH1 0x0 PUSH2 0x1944 PUSH2 0x15AD JUMP JUMPDEST SWAP1 POP PUSH2 0x1950 DUP3 DUP3 PUSH2 0x1909 JUMP JUMPDEST SWAP2 SWAP1 POP JUMP JUMPDEST PUSH1 0x0 PUSH8 0xFFFFFFFFFFFFFFFF DUP3 GT ISZERO PUSH2 0x1970 JUMPI PUSH2 0x196F PUSH2 0x18DA JUMP JUMPDEST JUMPDEST PUSH2 0x1979 DUP3 PUSH2 0x16C6 JUMP JUMPDEST SWAP1 POP PUSH1 0x20 DUP2 ADD SWAP1 POP SWAP2 SWAP1 POP JUMP JUMPDEST DUP3 DUP2 DUP4 CALLDATACOPY PUSH1 0x0 DUP4 DUP4 ADD MSTORE POP POP POP JUMP JUMPDEST PUSH1 0x0 PUSH2 0x19A8 PUSH2 0x19A3 DUP5 PUSH2 0x1955 JUMP JUMPDEST PUSH2 0x193A JUMP JUMPDEST SWAP1 POP DUP3 DUP2 MSTORE PUSH1 0x20 DUP2 ADD DUP5 DUP5 DUP5 ADD GT ISZERO PUSH2 0x19C4 JUMPI PUSH2 0x19C3 PUSH2 0x18D5 JUMP JUMPDEST JUMPDEST PUSH2 0x19CF DUP5 DUP3 DUP6 PUSH2 0x1986 JUMP JUMPDEST POP SWAP4 SWAP3 POP POP POP JUMP JUMPDEST PUSH1 0x0 DUP3 PUSH1 0x1F DUP4 ADD SLT PUSH2 0x19EC JUMPI PUSH2 0x19EB PUSH2 0x18D0 JUMP JUMPDEST JUMPDEST DUP2 CALLDATALOAD PUSH2 0x19FC DUP5 DUP3 PUSH1 0x20 DUP7 ADD PUSH2 0x1995 JUMP JUMPDEST SWAP2 POP POP SWAP3 SWAP2 POP POP JUMP JUMPDEST PUSH1 0x0 DUP1 PUSH1 0x0 DUP1 PUSH1 0x80 DUP6 DUP8 SUB SLT ISZERO PUSH2 0x1A1F JUMPI PUSH2 0x1A1E PUSH2 0x15B7 JUMP JUMPDEST JUMPDEST PUSH1 0x0 PUSH2 0x1A2D DUP8 DUP3 DUP9 ADD PUSH2 0x15E2 JUMP JUMPDEST SWAP5 POP POP PUSH1 0x20 PUSH2 0x1A3E DUP8 DUP3 DUP9 ADD PUSH2 0x15E2 JUMP JUMPDEST SWAP4 POP POP PUSH1 0x40 DUP6 ADD CALLDATALOAD PUSH8 0xFFFFFFFFFFFFFFFF DUP2 GT ISZERO PUSH2 0x1A5F JUMPI PUSH2 0x1A5E PUSH2 0x15BC JUMP JUMPDEST JUMPDEST PUSH2 0x1A6B DUP8 DUP3 DUP9 ADD PUSH2 0x19D7 JUMP JUMPDEST SWAP3 POP POP PUSH1 0x60 DUP6 ADD CALLDATALOAD PUSH8 0xFFFFFFFFFFFFFFFF DUP2 GT ISZERO PUSH2 0x1A8C JUMPI PUSH2 0x1A8B PUSH2 0x15BC JUMP JUMPDEST JUMPDEST PUSH2 0x1A98 DUP8 DUP3 DUP9 ADD PUSH2 0x19D7 JUMP JUMPDEST SWAP2 POP POP SWAP3 SWAP6 SWAP2 SWAP5 POP SWAP3 POP JUMP JUMPDEST PUSH2 0x1AAD DUP2 PUSH2 0x173F JUMP JUMPDEST DUP2 EQ PUSH2 0x1AB8 JUMPI PUSH1 0x0 DUP1 REVERT JUMPDEST POP JUMP JUMPDEST PUSH1 0x0 DUP2 CALLDATALOAD SWAP1 POP PUSH2 0x1ACA DUP2 PUSH2 0x1AA4 JUMP JUMPDEST SWAP3 SWAP2 POP POP JUMP JUMPDEST PUSH1 0x0 DUP1 PUSH1 0x40 DUP4 DUP6 SUB SLT ISZERO PUSH2 0x1AE7 JUMPI PUSH2 0x1AE6 PUSH2 0x15B7 JUMP JUMPDEST JUMPDEST PUSH1 0x0 PUSH2 0x1AF5 DUP6 DUP3 DUP7 ADD PUSH2 0x1ABB JUMP JUMPDEST SWAP3 POP POP PUSH1 0x20 PUSH2 0x1B06 DUP6 DUP3 DUP7 ADD PUSH2 0x15E2 JUMP JUMPDEST SWAP2 POP POP SWAP3 POP SWAP3 SWAP1 POP JUMP JUMPDEST PUSH1 0x0 DUP1 PUSH1 0x40 DUP4 DUP6 SUB SLT ISZERO PUSH2 0x1B27 JUMPI PUSH2 0x1B26 PUSH2 0x15B7 JUMP JUMPDEST JUMPDEST PUSH1 0x0 PUSH2 0x1B35 DUP6 DUP3 DUP7 ADD PUSH2 0x15E2 JUMP JUMPDEST SWAP3 POP POP PUSH1 0x20 PUSH2 0x1B46 DUP6 DUP3 DUP7 ADD PUSH2 0x15E2 JUMP JUMPDEST SWAP2 POP POP SWAP3 POP SWAP3 SWAP1 POP JUMP JUMPDEST PUSH1 0x0 DUP2 MLOAD SWAP1 POP SWAP2 SWAP1 POP JUMP JUMPDEST PUSH1 0x0 DUP3 DUP3 MSTORE PUSH1 0x20 DUP3 ADD SWAP1 POP SWAP3 SWAP2 POP POP JUMP JUMPDEST PUSH1 0x0 DUP2 SWAP1 POP PUSH1 0x20 DUP3 ADD SWAP1 POP SWAP2 SWAP1 POP JUMP JUMPDEST PUSH2 0x1B85 DUP2 PUSH2 0x182B JUMP JUMPDEST DUP3 MSTORE POP POP JUMP JUMPDEST PUSH1 0x0 PUSH1 0xC0 DUP4 ADD PUSH1 0x0 DUP4 ADD MLOAD PUSH2 0x1BA3 PUSH1 0x0 DUP7 ADD DUP3 PUSH2 0x1710 JUMP JUMPDEST POP PUSH1 0x20 DUP4 ADD MLOAD DUP5 DUP3 SUB PUSH1 0x20 DUP7 ADD MSTORE PUSH2 0x1BBB DUP3 DUP3 PUSH2 0x16D7 JUMP JUMPDEST SWAP2 POP POP PUSH1 0x40 DUP4 ADD MLOAD DUP5 DUP3 SUB PUSH1 0x40 DUP7 ADD MSTORE PUSH2 0x1BD5 DUP3 DUP3 PUSH2 0x16D7 JUMP JUMPDEST SWAP2 POP POP PUSH1 0x60 DUP4 ADD MLOAD PUSH2 0x1BEA PUSH1 0x60 DUP7 ADD DUP3 PUSH2 0x1710 JUMP JUMPDEST POP PUSH1 0x80 DUP4 ADD MLOAD PUSH2 0x1BFD PUSH1 0x80 DUP7 ADD DUP3 PUSH2 0x1710 JUMP JUMPDEST POP PUSH1 0xA0 DUP4 ADD MLOAD PUSH2 0x1C10 PUSH1 0xA0 DUP7 ADD DUP3 PUSH2 0x1B7C JUMP JUMPDEST POP DUP1 SWAP2 POP POP SWAP3 SWAP2 POP POP JUMP JUMPDEST PUSH1 0x0 PUSH2 0x1C27 DUP4 DUP4 PUSH2 0x1B8B JUMP JUMPDEST SWAP1 POP SWAP3 SWAP2 POP POP JUMP JUMPDEST PUSH1 0x0 PUSH1 0x20 DUP3 ADD SWAP1 POP SWAP2 SWAP1 POP JUMP JUMPDEST PUSH1 0x0 PUSH2 0x1C47 DUP3 PUSH2 0x1B50 JUMP JUMPDEST PUSH2 0x1C51 DUP2 DUP6 PUSH2 0x1B5B JUMP JUMPDEST SWAP4 POP DUP4 PUSH1 0x20 DUP3 MUL DUP6 ADD PUSH2 0x1C63 DUP6 PUSH2 0x1B6C JUMP JUMPDEST DUP1 PUSH1 0x0 JUMPDEST DUP6 DUP2 LT ISZERO PUSH2 0x1C9F JUMPI DUP5 DUP5 SUB DUP10 MSTORE DUP2 MLOAD PUSH2 0x1C80 DUP6 DUP3 PUSH2 0x1C1B JUMP JUMPDEST SWAP5 POP PUSH2 0x1C8B DUP4 PUSH2 0x1C2F JUMP JUMPDEST SWAP3 POP PUSH1 0x20 DUP11 ADD SWAP10 POP POP PUSH1 0x1 DUP2 ADD SWAP1 POP PUSH2 0x1C67 JUMP JUMPDEST POP DUP3 SWAP8 POP DUP8 SWAP6 POP POP POP POP POP POP SWAP3 SWAP2 POP POP JUMP JUMPDEST PUSH1 0x0 PUSH1 0x20 DUP3 ADD SWAP1 POP DUP2 DUP2 SUB PUSH1 0x0 DUP4 ADD MSTORE PUSH2 0x1CCB DUP2 DUP5 PUSH2 0x1C3C JUMP JUMPDEST SWAP1 POP SWAP3 SWAP2 POP POP JUMP JUMPDEST PUSH2 0x1CDC DUP2 PUSH2 0x173F JUMP JUMPDEST DUP3 MSTORE POP POP JUMP JUMPDEST PUSH1 0x0 PUSH1 0x20 DUP3 ADD SWAP1 POP PUSH2 0x1CF7 PUSH1 0x0 DUP4 ADD DUP5 PUSH2 0x1CD3 JUMP JUMPDEST SWAP3 SWAP2 POP POP JUMP JUMPDEST PUSH1 0x0 PUSH1 0x20 DUP3 DUP5 SUB SLT ISZERO PUSH2 0x1D13 JUMPI PUSH2 0x1D12 PUSH2 0x15B7 JUMP JUMPDEST JUMPDEST PUSH1 0x0 DUP3 ADD CALLDATALOAD PUSH8 0xFFFFFFFFFFFFFFFF DUP2 GT ISZERO PUSH2 0x1D31 JUMPI PUSH2 0x1D30 PUSH2 0x15BC JUMP JUMPDEST JUMPDEST PUSH2 0x1D3D DUP5 DUP3 DUP6 ADD PUSH2 0x19D7 JUMP JUMPDEST SWAP2 POP POP SWAP3 SWAP2 POP POP JUMP JUMPDEST PUSH32 0x596F75722070696E20697320696E636F72726563740000000000000000000000 PUSH1 0x0 DUP3 ADD MSTORE POP JUMP JUMPDEST PUSH1 0x0 PUSH2 0x1D7C PUSH1 0x15 DUP4 PUSH2 0x17E1 JUMP JUMPDEST SWAP2 POP PUSH2 0x1D87 DUP3 PUSH2 0x1D46 JUMP JUMPDEST PUSH1 0x20 DUP3 ADD SWAP1 POP SWAP2 SWAP1 POP JUMP JUMPDEST PUSH1 0x0 PUSH1 0x20 DUP3 ADD SWAP1 POP DUP2 DUP2 SUB PUSH1 0x0 DUP4 ADD MSTORE PUSH2 0x1DAB DUP2 PUSH2 0x1D6F JUMP JUMPDEST SWAP1 POP SWAP2 SWAP1 POP JUMP JUMPDEST PUSH32 0x4E487B7100000000000000000000000000000000000000000000000000000000 PUSH1 0x0 MSTORE PUSH1 0x32 PUSH1 0x4 MSTORE PUSH1 0x24 PUSH1 0x0 REVERT JUMPDEST PUSH32 0x596F75206861766520616C726561647920766F74656420666F72207468697320 PUSH1 0x0 DUP3 ADD MSTORE PUSH32 0x7175657374696F6E000000000000000000000000000000000000000000000000 PUSH1 0x20 DUP3 ADD MSTORE POP JUMP JUMPDEST PUSH1 0x0 PUSH2 0x1E3D PUSH1 0x28 DUP4 PUSH2 0x17E1 JUMP JUMPDEST SWAP2 POP PUSH2 0x1E48 DUP3 PUSH2 0x1DE1 JUMP JUMPDEST PUSH1 0x40 DUP3 ADD SWAP1 POP SWAP2 SWAP1 POP JUMP JUMPDEST PUSH1 0x0 PUSH1 0x20 DUP3 ADD SWAP1 POP DUP2 DUP2 SUB PUSH1 0x0 DUP4 ADD MSTORE PUSH2 0x1E6C DUP2 PUSH2 0x1E30 JUMP JUMPDEST SWAP1 POP SWAP2 SWAP1 POP JUMP JUMPDEST PUSH32 0x4E487B7100000000000000000000000000000000000000000000000000000000 PUSH1 0x0 MSTORE PUSH1 0x11 PUSH1 0x4 MSTORE PUSH1 0x24 PUSH1 0x0 REVERT JUMPDEST PUSH1 0x0 PUSH2 0x1EAD DUP3 PUSH2 0x15C1 JUMP JUMPDEST SWAP2 POP PUSH32 0xFFFFFFFFFFFFFFFFFFFFFFFFFFFFFFFFFFFFFFFFFFFFFFFFFFFFFFFFFFFFFFFF DUP3 EQ ISZERO PUSH2 0x1EE0 JUMPI PUSH2 0x1EDF PUSH2 0x1E73 JUMP JUMPDEST JUMPDEST PUSH1 0x1 DUP3 ADD SWAP1 POP SWAP2 SWAP1 POP JUMP JUMPDEST PUSH1 0x0 PUSH1 0x60 DUP3 ADD SWAP1 POP PUSH2 0x1F00 PUSH1 0x0 DUP4 ADD DUP7 PUSH2 0x17D2 JUMP JUMPDEST PUSH2 0x1F0D PUSH1 0x20 DUP4 ADD DUP6 PUSH2 0x17D2 JUMP JUMPDEST PUSH2 0x1F1A PUSH1 0x40 DUP4 ADD DUP5 PUSH2 0x17D2 JUMP JUMPDEST SWAP5 SWAP4 POP POP POP POP JUMP JUMPDEST PUSH32 0x4F6E6C79206F776E65722063616E20646F207468697300000000000000000000 PUSH1 0x0 DUP3 ADD MSTORE POP JUMP JUMPDEST PUSH1 0x0 PUSH2 0x1F58 PUSH1 0x16 DUP4 PUSH2 0x17E1 JUMP JUMPDEST SWAP2 POP PUSH2 0x1F63 DUP3 PUSH2 0x1F22 JUMP JUMPDEST PUSH1 0x20 DUP3 ADD SWAP1 POP SWAP2 SWAP1 POP JUMP JUMPDEST PUSH1 0x0 PUSH1 0x20 DUP3 ADD SWAP1 POP DUP2 DUP2 SUB PUSH1 0x0 DUP4 ADD MSTORE PUSH2 0x1F87 DUP2 PUSH2 0x1F4B JUMP JUMPDEST SWAP1 POP SWAP2 SWAP1 POP JUMP JUMPDEST PUSH32 0x4E487B7100000000000000000000000000000000000000000000000000000000 PUSH1 0x0 MSTORE PUSH1 0x22 PUSH1 0x4 MSTORE PUSH1 0x24 PUSH1 0x0 REVERT JUMPDEST PUSH1 0x0 PUSH1 0x2 DUP3 DIV SWAP1 POP PUSH1 0x1 DUP3 AND DUP1 PUSH2 0x1FD5 JUMPI PUSH1 0x7F DUP3 AND SWAP2 POP JUMPDEST PUSH1 0x20 DUP3 LT DUP2 EQ ISZERO PUSH2 0x1FE9 JUMPI PUSH2 0x1FE8 PUSH2 0x1F8E JUMP JUMPDEST JUMPDEST POP SWAP2 SWAP1 POP JUMP JUMPDEST PUSH1 0x0 DUP2 PUSH1 0x0 SHR SWAP1 POP SWAP2 SWAP1 POP JUMP JUMPDEST PUSH1 0x0 DUP2 SWAP1 POP SWAP2 SWAP1 POP JUMP JUMPDEST PUSH1 0x0 PUSH2 0x2019 PUSH2 0x2014 DUP4 PUSH2 0x1FEF JUMP JUMPDEST PUSH2 0x1FFC JUMP JUMPDEST SWAP1 POP SWAP2 SWAP1 POP JUMP JUMPDEST PUSH1 0x0 DUP2 SWAP1 POP DUP2 PUSH1 0x0 MSTORE PUSH1 0x20 PUSH1 0x0 KECCAK256 SWAP1 POP SWAP2 SWAP1 POP JUMP JUMPDEST PUSH1 0x0 DUP2 SLOAD PUSH2 0x2042 DUP2 PUSH2 0x1FBD JUMP JUMPDEST PUSH2 0x204C DUP2 DUP7 PUSH2 0x1682 JUMP JUMPDEST SWAP5 POP PUSH1 0x1 DUP3 AND PUSH1 0x0 DUP2 EQ PUSH2 0x2067 JUMPI PUSH1 0x1 DUP2 EQ PUSH2 0x2079 JUMPI PUSH2 0x20AC JUMP JUMPDEST PUSH1 0xFF NOT DUP4 AND DUP7 MSTORE PUSH1 0x20 DUP7 ADD SWAP4 POP PUSH2 0x20AC JUMP JUMPDEST PUSH2 0x2082 DUP6 PUSH2 0x2020 JUMP JUMPDEST PUSH1 0x0 JUMPDEST DUP4 DUP2 LT ISZERO PUSH2 0x20A4 JUMPI DUP2 SLOAD DUP2 DUP10 ADD MSTORE PUSH1 0x1 DUP3 ADD SWAP2 POP PUSH1 0x20 DUP2 ADD SWAP1 POP PUSH2 0x2085 JUMP JUMPDEST DUP1 DUP9 ADD SWAP6 POP POP POP JUMPDEST POP POP POP SWAP3 SWAP2 POP POP JUMP JUMPDEST PUSH1 0x0 PUSH1 0xFF DUP3 AND SWAP1 POP SWAP2 SWAP1 POP JUMP JUMPDEST PUSH1 0x0 PUSH2 0x20D5 PUSH2 0x20D0 DUP4 PUSH2 0x1FEF JUMP JUMPDEST PUSH2 0x20B5 JUMP JUMPDEST SWAP1 POP SWAP2 SWAP1 POP JUMP JUMPDEST PUSH1 0x0 PUSH1 0xC0 DUP4 ADD PUSH1 0x0 DUP1 DUP5 ADD SLOAD SWAP1 POP PUSH2 0x20F3 DUP2 PUSH2 0x2006 JUMP JUMPDEST PUSH2 0x2100 PUSH1 0x0 DUP8 ADD DUP3 PUSH2 0x1710 JUMP JUMPDEST POP PUSH1 0x1 DUP5 ADD DUP6 DUP4 SUB PUSH1 0x20 DUP8 ADD MSTORE PUSH2 0x2117 DUP4 DUP3 PUSH2 0x2035 JUMP JUMPDEST SWAP3 POP POP PUSH1 0x2 DUP5 ADD DUP6 DUP4 SUB PUSH1 0x40 DUP8 ADD MSTORE PUSH2 0x2130 DUP4 DUP3 PUSH2 0x2035 JUMP JUMPDEST SWAP3 POP POP PUSH1 0x3 DUP5 ADD SLOAD SWAP1 POP PUSH2 0x2143 DUP2 PUSH2 0x2006 JUMP JUMPDEST PUSH2 0x2150 PUSH1 0x60 DUP8 ADD DUP3 PUSH2 0x1710 JUMP JUMPDEST POP PUSH1 0x4 DUP5 ADD SLOAD SWAP1 POP PUSH2 0x2161 DUP2 PUSH2 0x2006 JUMP JUMPDEST PUSH2 0x216E PUSH1 0x80 DUP8 ADD DUP3 PUSH2 0x1710 JUMP JUMPDEST POP PUSH1 0x5 DUP5 ADD SLOAD SWAP1 POP PUSH2 0x217F DUP2 PUSH2 0x20C2 JUMP JUMPDEST PUSH2 0x218C PUSH1 0xA0 DUP8 ADD DUP3 PUSH2 0x1B7C JUMP JUMPDEST POP DUP2 SWAP3 POP POP POP SWAP3 SWAP2 POP POP JUMP JUMPDEST PUSH1 0x0 PUSH1 0x20 DUP3 ADD SWAP1 POP DUP2 DUP2 SUB PUSH1 0x0 DUP4 ADD MSTORE PUSH2 0x21B2 DUP2 DUP5 PUSH2 0x20DC JUMP JUMPDEST SWAP1 POP SWAP3 SWAP2 POP POP JUMP JUMPDEST PUSH32 0x596F752068617665206E6F7420766F74656420666F7220746869732071756573 PUSH1 0x0 DUP3 ADD MSTORE PUSH32 0x74696F6E00000000000000000000000000000000000000000000000000000000 PUSH1 0x20 DUP3 ADD MSTORE POP JUMP JUMPDEST PUSH1 0x0 PUSH2 0x2216 PUSH1 0x24 DUP4 PUSH2 0x17E1 JUMP JUMPDEST SWAP2 POP PUSH2 0x2221 DUP3 PUSH2 0x21BA JUMP JUMPDEST PUSH1 0x40 DUP3 ADD SWAP1 POP SWAP2 SWAP1 POP JUMP JUMPDEST PUSH1 0x0 PUSH1 0x20 DUP3 ADD SWAP1 POP DUP2 DUP2 SUB PUSH1 0x0 DUP4 ADD MSTORE PUSH2 0x2245 DUP2 PUSH2 0x2209 JUMP JUMPDEST SWAP1 POP SWAP2 SWAP1 POP JUMP JUMPDEST PUSH1 0x0 PUSH2 0x2257 DUP3 PUSH2 0x15C1 JUMP JUMPDEST SWAP2 POP PUSH1 0x0 DUP3 EQ ISZERO PUSH2 0x226B JUMPI PUSH2 0x226A PUSH2 0x1E73 JUMP JUMPDEST JUMPDEST PUSH1 0x1 DUP3 SUB SWAP1 POP SWAP2 SWAP1 POP JUMP JUMPDEST PUSH1 0x0 PUSH2 0x2281 DUP3 PUSH2 0x15C1 JUMP JUMPDEST SWAP2 POP PUSH2 0x228C DUP4 PUSH2 0x15C1 JUMP JUMPDEST SWAP3 POP DUP3 DUP3 LT ISZERO PUSH2 0x229F JUMPI PUSH2 0x229E PUSH2 0x1E73 JUMP JUMPDEST JUMPDEST DUP3 DUP3 SUB SWAP1 POP SWAP3 SWAP2 POP POP JUMP JUMPDEST PUSH32 0x4E487B7100000000000000000000000000000000000000000000000000000000 PUSH1 0x0 MSTORE PUSH1 0x31 PUSH1 0x4 MSTORE PUSH1 0x24 PUSH1 0x0 REVERT JUMPDEST PUSH1 0x0 PUSH1 0x60 DUP3 ADD SWAP1 POP PUSH2 0x22EE PUSH1 0x0 DUP4 ADD DUP7 PUSH2 0x17D2 JUMP JUMPDEST DUP2 DUP2 SUB PUSH1 0x20 DUP4 ADD MSTORE PUSH2 0x2300 DUP2 DUP6 PUSH2 0x17F2 JUMP JUMPDEST SWAP1 POP PUSH2 0x230F PUSH1 0x40 DUP4 ADD DUP5 PUSH2 0x17D2 JUMP JUMPDEST SWAP5 SWAP4 POP POP POP POP JUMP JUMPDEST PUSH1 0x0 PUSH2 0x2322 DUP3 PUSH2 0x15C1 JUMP JUMPDEST SWAP2 POP PUSH2 0x232D DUP4 PUSH2 0x15C1 JUMP JUMPDEST SWAP3 POP DUP3 PUSH32 0xFFFFFFFFFFFFFFFFFFFFFFFFFFFFFFFFFFFFFFFFFFFFFFFFFFFFFFFFFFFFFFFF SUB DUP3 GT ISZERO PUSH2 0x2362 JUMPI PUSH2 0x2361 PUSH2 0x1E73 JUMP JUMPDEST JUMPDEST DUP3 DUP3 ADD SWAP1 POP SWAP3 SWAP2 POP POP JUMP JUMPDEST PUSH1 0x0 DUP2 SWAP1 POP SWAP2 SWAP1 POP JUMP JUMPDEST PUSH2 0x2388 PUSH2 0x2383 DUP3 PUSH2 0x15C1 JUMP JUMPDEST PUSH2 0x236D JUMP JUMPDEST DUP3 MSTORE POP POP JUMP JUMPDEST PUSH1 0x0 DUP2 PUSH1 0x60 SHL SWAP1 POP SWAP2 SWAP1 POP JUMP JUMPDEST PUSH1 0x0 PUSH2 0x23A6 DUP3 PUSH2 0x238E JUMP JUMPDEST SWAP1 POP SWAP2 SWAP1 POP JUMP JUMPDEST PUSH1 0x0 PUSH2 0x23B8 DUP3 PUSH2 0x239B JUMP JUMPDEST SWAP1 POP SWAP2 SWAP1 POP JUMP JUMPDEST PUSH2 0x23D0 PUSH2 0x23CB DUP3 PUSH2 0x173F JUMP JUMPDEST PUSH2 0x23AD JUMP JUMPDEST DUP3 MSTORE POP POP JUMP JUMPDEST PUSH1 0x0 PUSH2 0x23E2 DUP3 DUP7 PUSH2 0x2377 JUMP JUMPDEST PUSH1 0x20 DUP3 ADD SWAP2 POP PUSH2 0x23F2 DUP3 DUP6 PUSH2 0x23BF JUMP JUMPDEST PUSH1 0x14 DUP3 ADD SWAP2 POP PUSH2 0x2402 DUP3 DUP5 PUSH2 0x2377 JUMP JUMPDEST PUSH1 0x20 DUP3 ADD SWAP2 POP DUP2 SWAP1 POP SWAP5 SWAP4 POP POP POP POP JUMP JUMPDEST PUSH32 0x4E487B7100000000000000000000000000000000000000000000000000000000 PUSH1 0x0 MSTORE PUSH1 0x12 PUSH1 0x4 MSTORE PUSH1 0x24 PUSH1 0x0 REVERT JUMPDEST PUSH1 0x0 PUSH2 0x244D DUP3 PUSH2 0x15C1 JUMP JUMPDEST SWAP2 POP PUSH2 0x2458 DUP4 PUSH2 0x15C1 JUMP JUMPDEST SWAP3 POP DUP3 PUSH2 0x2468 JUMPI PUSH2 0x2467 PUSH2 0x2413 JUMP JUMPDEST JUMPDEST DUP3 DUP3 MOD SWAP1 POP SWAP3 SWAP2 POP POP JUMP INVALID LOG2 PUSH5 0x6970667358 0x22 SLT KECCAK256 0xBB DUP7 0xE3 0xE1 0xEE PUSH26 0xF37636753B35DAFDAF22675D44261DC7376B7EE2D29729CA3A6D PUSH5 0x736F6C6343 STOP ADDMOD MULMOD STOP CALLER "},"methodIdentifiers":{"UnvoteQuestionOfChannel(uint256,uint256,uint256)":"7b2a1e5d","addQuestionToChannel(uint256,uint256,string,string)":"7553efb4","channelIdCounter()":"3c310266","createChannel(string)":"cb6af4cb","getChannel(uint256)":"10df54a0","getQuestionsOfChannel(uint256,uint256)":"8baa6ff8","owner()":"8da5cb5b","questions(uint256)":"31b1b978","sortedQuestionIdsByVotes(uint256,uint256)":"f6c20077","totalQuestionsPerChannel(uint256)":"aa7ff0b5","userVotes(address,uint256)":"8b3511f7","voteQuestionOfChannel(uint256,uint256,uint256)":"0be8179a"}}}}}