{
  "_format": "hh-sol-artifact-1",
  "contractName": "HelloWorld",
  "sourceName": "contracts/HelloWorld.sol",
  "abi": [
    {
      "inputs": [
        {
          "internalType": "string",
          "name": "initMessage",
          "type": "string"
        }
      ],
      "stateMutability": "nonpayable",
      "type": "constructor"
    },
    {
      "anonymous": false,
      "inputs": [
        {
          "indexed": false,
          "internalType": "string",
          "name": "oldAppName",
          "type": "string"
        },
        {
          "indexed": false,
          "internalType": "string",
          "name": "newAppName",
          "type": "string"
        }
      ],
      "name": "AppNameUpdated",
      "type": "event"
    },
    {
      "anonymous": false,
      "inputs": [
        {
          "indexed": false,
          "internalType": "string",
          "name": "oldStr",
          "type": "string"
        },
        {
          "indexed": false,
          "internalType": "string",
          "name": "newStr",
          "type": "string"
        }
      ],
      "name": "UpdatedMessages",
      "type": "event"
    },
    {
      "inputs": [],
      "name": "appName",
      "outputs": [
        {
          "internalType": "string",
          "name": "",
          "type": "string"
        }
      ],
      "stateMutability": "view",
      "type": "function"
    },
    {
      "inputs": [],
      "name": "message",
      "outputs": [
        {
          "internalType": "string",
          "name": "",
          "type": "string"
        }
      ],
      "stateMutability": "view",
      "type": "function"
    },
    {
      "inputs": [],
      "name": "owner",
      "outputs": [
        {
          "internalType": "address",
          "name": "",
          "type": "address"
        }
      ],
      "stateMutability": "view",
      "type": "function"
    },
    {
      "inputs": [
        {
          "internalType": "string",
          "name": "newMessage",
          "type": "string"
        }
      ],
      "name": "update",
      "outputs": [],
      "stateMutability": "nonpayable",
      "type": "function"
    },
    {
      "inputs": [
        {
          "internalType": "string",
          "name": "newAppName",
          "type": "string"
        }
      ],
      "name": "updateAppName",
      "outputs": [],
      "stateMutability": "nonpayable",
      "type": "function"
    }
  ],
  "bytecode": "0x60806040526040518060400160405280600b81526020017f48656c6c6f20576f726c640000000000000000000000000000000000000000008152506001908051906020019062000051929190620000e6565b503480156200005f57600080fd5b5060405162000d4138038062000d41833981810160405281019062000085919062000333565b80600090805190602001906200009d929190620000e6565b5033600260006101000a81548173ffffffffffffffffffffffffffffffffffffffff021916908373ffffffffffffffffffffffffffffffffffffffff16021790555050620003e9565b828054620000f490620003b3565b90600052602060002090601f01602090048101928262000118576000855562000164565b82601f106200013357805160ff191683800117855562000164565b8280016001018555821562000164579182015b828111156200016357825182559160200191906001019062000146565b5b50905062000173919062000177565b5090565b5b808211156200019257600081600090555060010162000178565b5090565b6000604051905090565b600080fd5b600080fd5b600080fd5b600080fd5b6000601f19601f8301169050919050565b7f4e487b7100000000000000000000000000000000000000000000000000000000600052604160045260246000fd5b620001ff82620001b4565b810181811067ffffffffffffffff82111715620002215762000220620001c5565b5b80604052505050565b60006200023662000196565b9050620002448282620001f4565b919050565b600067ffffffffffffffff821115620002675762000266620001c5565b5b6200027282620001b4565b9050602081019050919050565b60005b838110156200029f57808201518184015260208101905062000282565b83811115620002af576000848401525b50505050565b6000620002cc620002c68462000249565b6200022a565b905082815260208101848484011115620002eb57620002ea620001af565b5b620002f88482856200027f565b509392505050565b600082601f830112620003185762000317620001aa565b5b81516200032a848260208601620002b5565b91505092915050565b6000602082840312156200034c576200034b620001a0565b5b600082015167ffffffffffffffff8111156200036d576200036c620001a5565b5b6200037b8482850162000300565b91505092915050565b7f4e487b7100000000000000000000000000000000000000000000000000000000600052602260045260246000fd5b60006002820490506001821680620003cc57607f821691505b60208210811415620003e357620003e262000384565b5b50919050565b61094880620003f96000396000f3fe608060405234801561001057600080fd5b50600436106100575760003560e01c80630c97282c1461005c5780633d7403a31461007a57806381ecdf45146100965780638da5cb5b146100b2578063e21f37ce146100d0575b600080fd5b6100646100ee565b6040516100719190610532565b60405180910390f35b610094600480360381019061008f919061069d565b61017c565b005b6100b060048036038101906100ab919061069d565b61025e565b005b6100ba610342565b6040516100c79190610727565b60405180910390f35b6100d8610368565b6040516100e59190610532565b60405180910390f35b600180546100fb90610771565b80601f016020809104026020016040519081016040528092919081815260200182805461012790610771565b80156101745780601f1061014957610100808354040283529160200191610174565b820191906000526020600020905b81548152906001019060200180831161015757829003601f168201915b505050505081565b600080805461018a90610771565b80601f01602080910402602001604051908101604052809291908181526020018280546101b690610771565b80156102035780601f106101d857610100808354040283529160200191610203565b820191906000526020600020905b8154815290600101906020018083116101e657829003601f168201915b5050505050905081600090805190602001906102209291906103f6565b507ff91d506d7335e83e4869a58cd98e0557cdcef6f507ba1e52725521305626d05b81836040516102529291906107a3565b60405180910390a15050565b600260009054906101000a900473ffffffffffffffffffffffffffffffffffffffff1673ffffffffffffffffffffffffffffffffffffffff163373ffffffffffffffffffffffffffffffffffffffff16146102ee576040517f08c379a00000000000000000000000000000000000000000000000000000000081526004016102e590610826565b60405180910390fd5b80600190805190602001906103049291906103f6565b507f4ad7c860ae721250a921f4dbf1b94b42494795de29ada699395934f024e854c36001826040516103379291906108db565b60405180910390a150565b600260009054906101000a900473ffffffffffffffffffffffffffffffffffffffff1681565b6000805461037590610771565b80601f01602080910402602001604051908101604052809291908181526020018280546103a190610771565b80156103ee5780601f106103c3576101008083540402835291602001916103ee565b820191906000526020600020905b8154815290600101906020018083116103d157829003601f168201915b505050505081565b82805461040290610771565b90600052602060002090601f016020900481019282610424576000855561046b565b82601f1061043d57805160ff191683800117855561046b565b8280016001018555821561046b579182015b8281111561046a57825182559160200191906001019061044f565b5b509050610478919061047c565b5090565b5b8082111561049557600081600090555060010161047d565b5090565b600081519050919050565b600082825260208201905092915050565b60005b838110156104d35780820151818401526020810190506104b8565b838111156104e2576000848401525b50505050565b6000601f19601f8301169050919050565b600061050482610499565b61050e81856104a4565b935061051e8185602086016104b5565b610527816104e8565b840191505092915050565b6000602082019050818103600083015261054c81846104f9565b905092915050565b6000604051905090565b600080fd5b600080fd5b600080fd5b600080fd5b7f4e487b7100000000000000000000000000000000000000000000000000000000600052604160045260246000fd5b6105aa826104e8565b810181811067ffffffffffffffff821117156105c9576105c8610572565b5b80604052505050565b60006105dc610554565b90506105e882826105a1565b919050565b600067ffffffffffffffff82111561060857610607610572565b5b610611826104e8565b9050602081019050919050565b82818337600083830152505050565b600061064061063b846105ed565b6105d2565b90508281526020810184848401111561065c5761065b61056d565b5b61066784828561061e565b509392505050565b600082601f83011261068457610683610568565b5b813561069484826020860161062d565b91505092915050565b6000602082840312156106b3576106b261055e565b5b600082013567ffffffffffffffff8111156106d1576106d0610563565b5b6106dd8482850161066f565b91505092915050565b600073ffffffffffffffffffffffffffffffffffffffff82169050919050565b6000610711826106e6565b9050919050565b61072181610706565b82525050565b600060208201905061073c6000830184610718565b92915050565b7f4e487b7100000000000000000000000000000000000000000000000000000000600052602260045260246000fd5b6000600282049050600182168061078957607f821691505b6020821081141561079d5761079c610742565b5b50919050565b600060408201905081810360008301526107bd81856104f9565b905081810360208301526107d181846104f9565b90509392505050565b7f596f7520617265206e6f7420746865206f776e65720000000000000000000000600082015250565b60006108106015836104a4565b915061081b826107da565b602082019050919050565b6000602082019050818103600083015261083f81610803565b9050919050565b60008190508160005260206000209050919050565b6000815461086881610771565b61087281866104a4565b9450600182166000811461088d576001811461089f576108d2565b60ff19831686526020860193506108d2565b6108a885610846565b60005b838110156108ca578154818901526001820191506020810190506108ab565b808801955050505b50505092915050565b600060408201905081810360008301526108f5818561085b565b9050818103602083015261090981846104f9565b9050939250505056fea26469706673582212206d7fd278bb4b1329c7c2f92eb855a2270f8d3b784e4de25ff24b2bac40845e5a64736f6c63430008090033",
  "linkReferences": {},
  "deployedLinkReferences": {}
}