{
  "_format": "hh-sol-artifact-1",
  "contractName": "LiveQnA",
  "sourceName": "contracts/LiveQnA.sol",
  "abi": [
    {
      "inputs": [],
      "stateMutability": "nonpayable",
      "type": "constructor"
    },
    {
      "anonymous": false,
      "inputs": [
        {
          "indexed": false,
          "internalType": "uint256",
          "name": "channelId",
          "type": "uint256"
        },
        {
          "indexed": false,
          "internalType": "string",
          "name": "channelName",
          "type": "string"
        },
        {
          "indexed": false,
          "internalType": "uint256",
          "name": "pin",
          "type": "uint256"
        }
      ],
      "name": "ChannelCreated",
      "type": "event"
    },
    {
      "inputs": [
        {
          "internalType": "uint256",
          "name": "channelId",
          "type": "uint256"
        },
        {
          "internalType": "uint256",
          "name": "pin",
          "type": "uint256"
        },
        {
          "internalType": "string",
          "name": "text",
          "type": "string"
        },
        {
          "internalType": "string",
          "name": "author",
          "type": "string"
        }
      ],
      "name": "addQuestionToChannel",
      "outputs": [],
      "stateMutability": "nonpayable",
      "type": "function"
    },
    {
      "inputs": [],
      "name": "channelIdCounter",
      "outputs": [
        {
          "internalType": "uint256",
          "name": "",
          "type": "uint256"
        }
      ],
      "stateMutability": "view",
      "type": "function"
    },
    {
      "inputs": [
        {
          "internalType": "string",
          "name": "channelName",
          "type": "string"
        }
      ],
      "name": "createChannel",
      "outputs": [],
      "stateMutability": "nonpayable",
      "type": "function"
    },
    {
      "inputs": [
        {
          "internalType": "uint256",
          "name": "channelId",
          "type": "uint256"
        }
      ],
      "name": "getChannel",
      "outputs": [
        {
          "components": [
            {
              "internalType": "string",
              "name": "name",
              "type": "string"
            },
            {
              "internalType": "uint256",
              "name": "pin",
              "type": "uint256"
            },
            {
              "internalType": "address",
              "name": "admin",
              "type": "address"
            }
          ],
          "internalType": "struct LiveQnA.Channel",
          "name": "",
          "type": "tuple"
        }
      ],
      "stateMutability": "view",
      "type": "function"
    },
    {
      "inputs": [
        {
          "internalType": "uint256",
          "name": "channelId",
          "type": "uint256"
        },
        {
          "internalType": "uint256",
          "name": "pin",
          "type": "uint256"
        }
      ],
      "name": "getQuestionsOfChannel",
      "outputs": [
        {
          "components": [
            {
              "internalType": "uint256",
              "name": "id",
              "type": "uint256"
            },
            {
              "internalType": "string",
              "name": "text",
              "type": "string"
            },
            {
              "internalType": "string",
              "name": "author",
              "type": "string"
            },
            {
              "internalType": "uint256",
              "name": "channelId",
              "type": "uint256"
            },
            {
              "internalType": "uint256",
              "name": "votes",
              "type": "uint256"
            }
          ],
          "internalType": "struct LiveQnA.Question[]",
          "name": "",
          "type": "tuple[]"
        }
      ],
      "stateMutability": "view",
      "type": "function"
    },
    {
      "inputs": [],
      "name": "owner",
      "outputs": [
        {
          "internalType": "address",
          "name": "",
          "type": "address"
        }
      ],
      "stateMutability": "view",
      "type": "function"
    },
    {
      "inputs": [
        {
          "internalType": "uint256",
          "name": "",
          "type": "uint256"
        }
      ],
      "name": "questions",
      "outputs": [
        {
          "internalType": "uint256",
          "name": "id",
          "type": "uint256"
        },
        {
          "internalType": "string",
          "name": "text",
          "type": "string"
        },
        {
          "internalType": "string",
          "name": "author",
          "type": "string"
        },
        {
          "internalType": "uint256",
          "name": "channelId",
          "type": "uint256"
        },
        {
          "internalType": "uint256",
          "name": "votes",
          "type": "uint256"
        }
      ],
      "stateMutability": "view",
      "type": "function"
    },
    {
      "inputs": [
        {
          "internalType": "uint256",
          "name": "",
          "type": "uint256"
        },
        {
          "internalType": "uint256",
          "name": "",
          "type": "uint256"
        }
      ],
      "name": "sortedQuestionIdsByVotes",
      "outputs": [
        {
          "internalType": "uint256",
          "name": "",
          "type": "uint256"
        }
      ],
      "stateMutability": "view",
      "type": "function"
    },
    {
      "inputs": [
        {
          "internalType": "uint256",
          "name": "",
          "type": "uint256"
        }
      ],
      "name": "totalQuestionsPerChannel",
      "outputs": [
        {
          "internalType": "uint256",
          "name": "",
          "type": "uint256"
        }
      ],
      "stateMutability": "view",
      "type": "function"
    },
    {
      "inputs": [
        {
          "internalType": "uint256",
          "name": "channelId",
          "type": "uint256"
        },
        {
          "internalType": "uint256",
          "name": "pin",
          "type": "uint256"
        },
        {
          "internalType": "uint256",
          "name": "questionId",
          "type": "uint256"
        }
      ],
      "name": "voteQuestionOfChannel",
      "outputs": [],
      "stateMutability": "nonpayable",
      "type": "function"
    }
  ],
  "bytecode": "0x6080604052600080556000600255600060035534801561001e57600080fd5b5033600160006101000a81548173ffffffffffffffffffffffffffffffffffffffff021916908373ffffffffffffffffffffffffffffffffffffffff1602179055506118df8061006f6000396000f3fe608060405234801561001057600080fd5b506004361061009e5760003560e01c80638baa6ff8116100665780638baa6ff81461015d5780638da5cb5b1461018d578063aa7ff0b5146101ab578063cb6af4cb146101db578063f6c20077146101f75761009e565b80630be8179a146100a357806310df54a0146100bf57806331b1b978146100ef5780633c310266146101235780637553efb414610141575b600080fd5b6100bd60048036038101906100b89190610e97565b610227565b005b6100d960048036038101906100d49190610eea565b6102bd565b6040516100e69190611050565b60405180910390f35b61010960048036038101906101049190610eea565b61046c565b60405161011a9594939291906110cb565b60405180910390f35b61012b6105b2565b604051610138919061112c565b60405180910390f35b61015b6004803603810190610156919061127c565b6105b8565b005b6101776004803603810190610172919061131b565b610735565b604051610184919061149a565b60405180910390f35b6101956109da565b6040516101a291906114cb565b60405180910390f35b6101c560048036038101906101c09190610eea565b610a00565b6040516101d2919061112c565b60405180910390f35b6101f560048036038101906101f091906114e6565b610a18565b005b610211600480360381019061020c919061131b565b610b38565b60405161021e919061112c565b60405180910390f35b828280600460008481526020019081526020016000206001015414610281576040517f08c379a00000000000000000000000000000000000000000000000000000000081526004016102789061157b565b60405180910390fd5b6005600084815260200190815260200160002060040160008154809291906102a8906115ca565b91905055506102b685610b69565b5050505050565b6102c5610d44565b600160009054906101000a900473ffffffffffffffffffffffffffffffffffffffff1673ffffffffffffffffffffffffffffffffffffffff163373ffffffffffffffffffffffffffffffffffffffff1614610355576040517f08c379a000000000000000000000000000000000000000000000000000000000815260040161034c9061165f565b60405180910390fd5b60046000838152602001908152602001600020604051806060016040529081600082018054610383906116ae565b80601f01602080910402602001604051908101604052809291908181526020018280546103af906116ae565b80156103fc5780601f106103d1576101008083540402835291602001916103fc565b820191906000526020600020905b8154815290600101906020018083116103df57829003601f168201915b50505050508152602001600182015481526020016002820160009054906101000a900473ffffffffffffffffffffffffffffffffffffffff1673ffffffffffffffffffffffffffffffffffffffff1673ffffffffffffffffffffffffffffffffffffffff16815250509050919050565b6005602052806000526040600020600091509050806000015490806001018054610495906116ae565b80601f01602080910402602001604051908101604052809291908181526020018280546104c1906116ae565b801561050e5780601f106104e35761010080835404028352916020019161050e565b820191906000526020600020905b8154815290600101906020018083116104f157829003601f168201915b505050505090806002018054610523906116ae565b80601f016020809104026020016040519081016040528092919081815260200182805461054f906116ae565b801561059c5780601f106105715761010080835404028352916020019161059c565b820191906000526020600020905b81548152906001019060200180831161057f57829003601f168201915b5050505050908060030154908060040154905085565b60025481565b838380600460008481526020019081526020016000206001015414610612576040517f08c379a00000000000000000000000000000000000000000000000000000000081526004016106099061157b565b60405180910390fd5b600060035490506040518060a00160405280828152602001868152602001858152602001888152602001600081525060056000600354815260200190815260200160002060008201518160000155602082015181600101908051906020019061067c929190610d7b565b506040820151816002019080519060200190610699929190610d7b565b506060820151816003015560808201518160040155905050600360008154809291906106c4906115ca565b91905055506006600088815260200190815260200160002060008154809291906106ed906115ca565b91905055506007600088815260200190815260200160002081908060018154018082558091505060019003906000526020600020016000909190919091505550505050505050565b6060828280600460008481526020019081526020016000206001015414610791576040517f08c379a00000000000000000000000000000000000000000000000000000000081526004016107889061157b565b60405180910390fd5b60006006600087815260200190815260200160002054905060008167ffffffffffffffff8111156107c5576107c4611151565b5b6040519080825280602002602001820160405280156107fe57816020015b6107eb610e01565b8152602001906001900390816107e35790505b50905060005b828110156109cc5760056000600760008b81526020019081526020016000208381548110610835576108346116e0565b5b906000526020600020015481526020019081526020016000206040518060a001604052908160008201548152602001600182018054610873906116ae565b80601f016020809104026020016040519081016040528092919081815260200182805461089f906116ae565b80156108ec5780601f106108c1576101008083540402835291602001916108ec565b820191906000526020600020905b8154815290600101906020018083116108cf57829003601f168201915b50505050508152602001600282018054610905906116ae565b80601f0160208091040260200160405190810160405280929190818152602001828054610931906116ae565b801561097e5780601f106109535761010080835404028352916020019161097e565b820191906000526020600020905b81548152906001019060200180831161096157829003601f168201915b50505050508152602001600382015481526020016004820154815250508282815181106109ae576109ad6116e0565b5b602002602001018190525080806109c4906115ca565b915050610804565b508094505050505092915050565b600160009054906101000a900473ffffffffffffffffffffffffffffffffffffffff1681565b60066020528060005260406000206000915090505481565b600060025490506000610a29610cce565b905060405180606001604052808481526020018281526020013373ffffffffffffffffffffffffffffffffffffffff16815250600460008481526020019081526020016000206000820151816000019080519060200190610a8b929190610d7b565b506020820151816001015560408201518160020160006101000a81548173ffffffffffffffffffffffffffffffffffffffff021916908373ffffffffffffffffffffffffffffffffffffffff16021790555090505060026000815480929190610af3906115ca565b91905055507f0d2054cd4b5b00c541fea07e8af0136637b383528db2f4bdfa9b7ae096e7dcf8828483604051610b2b9392919061170f565b60405180910390a1505050565b60076020528160005260406000208181548110610b5457600080fd5b90600052602060002001600091509150505481565b600060076000838152602001908152602001600020905060008180549050905060005b81811015610cc8576000600182610ba3919061174d565b90505b82811015610cb45760056000858381548110610bc557610bc46116e0565b5b906000526020600020015481526020019081526020016000206004015460056000868581548110610bf957610bf86116e0565b5b90600052602060002001548152602001908152602001600020600401541015610ca1576000848381548110610c3157610c306116e0565b5b90600052602060002001549050848281548110610c5157610c506116e0565b5b9060005260206000200154858481548110610c6f57610c6e6116e0565b5b906000526020600020018190555080858381548110610c9157610c906116e0565b5b9060005260206000200181905550505b8080610cac906115ca565b915050610ba6565b508080610cc0906115ca565b915050610b8c565b50505050565b6000806000815480929190610ce2906115ca565b919050555060004233600054604051602001610d009392919061180c565b6040516020818303038152906040528051906020012060001c90506000620186a0620dbba083610d309190611878565b610d3a919061174d565b9050809250505090565b60405180606001604052806060815260200160008152602001600073ffffffffffffffffffffffffffffffffffffffff1681525090565b828054610d87906116ae565b90600052602060002090601f016020900481019282610da95760008555610df0565b82601f10610dc257805160ff1916838001178555610df0565b82800160010185558215610df0579182015b82811115610def578251825591602001919060010190610dd4565b5b509050610dfd9190610e30565b5090565b6040518060a0016040528060008152602001606081526020016060815260200160008152602001600081525090565b5b80821115610e49576000816000905550600101610e31565b5090565b6000604051905090565b600080fd5b600080fd5b6000819050919050565b610e7481610e61565b8114610e7f57600080fd5b50565b600081359050610e9181610e6b565b92915050565b600080600060608486031215610eb057610eaf610e57565b5b6000610ebe86828701610e82565b9350506020610ecf86828701610e82565b9250506040610ee086828701610e82565b9150509250925092565b600060208284031215610f0057610eff610e57565b5b6000610f0e84828501610e82565b91505092915050565b600081519050919050565b600082825260208201905092915050565b60005b83811015610f51578082015181840152602081019050610f36565b83811115610f60576000848401525b50505050565b6000601f19601f8301169050919050565b6000610f8282610f17565b610f8c8185610f22565b9350610f9c818560208601610f33565b610fa581610f66565b840191505092915050565b610fb981610e61565b82525050565b600073ffffffffffffffffffffffffffffffffffffffff82169050919050565b6000610fea82610fbf565b9050919050565b610ffa81610fdf565b82525050565b6000606083016000830151848203600086015261101d8282610f77565b91505060208301516110326020860182610fb0565b5060408301516110456040860182610ff1565b508091505092915050565b6000602082019050818103600083015261106a8184611000565b905092915050565b61107b81610e61565b82525050565b600082825260208201905092915050565b600061109d82610f17565b6110a78185611081565b93506110b7818560208601610f33565b6110c081610f66565b840191505092915050565b600060a0820190506110e06000830188611072565b81810360208301526110f28187611092565b905081810360408301526111068186611092565b90506111156060830185611072565b6111226080830184611072565b9695505050505050565b60006020820190506111416000830184611072565b92915050565b600080fd5b600080fd5b7f4e487b7100000000000000000000000000000000000000000000000000000000600052604160045260246000fd5b61118982610f66565b810181811067ffffffffffffffff821117156111a8576111a7611151565b5b80604052505050565b60006111bb610e4d565b90506111c78282611180565b919050565b600067ffffffffffffffff8211156111e7576111e6611151565b5b6111f082610f66565b9050602081019050919050565b82818337600083830152505050565b600061121f61121a846111cc565b6111b1565b90508281526020810184848401111561123b5761123a61114c565b5b6112468482856111fd565b509392505050565b600082601f83011261126357611262611147565b5b813561127384826020860161120c565b91505092915050565b6000806000806080858703121561129657611295610e57565b5b60006112a487828801610e82565b94505060206112b587828801610e82565b935050604085013567ffffffffffffffff8111156112d6576112d5610e5c565b5b6112e28782880161124e565b925050606085013567ffffffffffffffff81111561130357611302610e5c565b5b61130f8782880161124e565b91505092959194509250565b6000806040838503121561133257611331610e57565b5b600061134085828601610e82565b925050602061135185828601610e82565b9150509250929050565b600081519050919050565b600082825260208201905092915050565b6000819050602082019050919050565b600060a08301600083015161139f6000860182610fb0565b50602083015184820360208601526113b78282610f77565b915050604083015184820360408601526113d18282610f77565b91505060608301516113e66060860182610fb0565b5060808301516113f96080860182610fb0565b508091505092915050565b60006114108383611387565b905092915050565b6000602082019050919050565b60006114308261135b565b61143a8185611366565b93508360208202850161144c85611377565b8060005b8581101561148857848403895281516114698582611404565b945061147483611418565b925060208a01995050600181019050611450565b50829750879550505050505092915050565b600060208201905081810360008301526114b48184611425565b905092915050565b6114c581610fdf565b82525050565b60006020820190506114e060008301846114bc565b92915050565b6000602082840312156114fc576114fb610e57565b5b600082013567ffffffffffffffff81111561151a57611519610e5c565b5b6115268482850161124e565b91505092915050565b7f596f75722070696e20697320696e636f72726563740000000000000000000000600082015250565b6000611565601583611081565b91506115708261152f565b602082019050919050565b6000602082019050818103600083015261159481611558565b9050919050565b7f4e487b7100000000000000000000000000000000000000000000000000000000600052601160045260246000fd5b60006115d582610e61565b91507fffffffffffffffffffffffffffffffffffffffffffffffffffffffffffffffff8214156116085761160761159b565b5b600182019050919050565b7f4f6e6c79206f776e65722063616e20646f207468697300000000000000000000600082015250565b6000611649601683611081565b915061165482611613565b602082019050919050565b600060208201905081810360008301526116788161163c565b9050919050565b7f4e487b7100000000000000000000000000000000000000000000000000000000600052602260045260246000fd5b600060028204905060018216806116c657607f821691505b602082108114156116da576116d961167f565b5b50919050565b7f4e487b7100000000000000000000000000000000000000000000000000000000600052603260045260246000fd5b60006060820190506117246000830186611072565b81810360208301526117368185611092565b90506117456040830184611072565b949350505050565b600061175882610e61565b915061176383610e61565b9250827fffffffffffffffffffffffffffffffffffffffffffffffffffffffffffffffff038211156117985761179761159b565b5b828201905092915050565b6000819050919050565b6117be6117b982610e61565b6117a3565b82525050565b60008160601b9050919050565b60006117dc826117c4565b9050919050565b60006117ee826117d1565b9050919050565b61180661180182610fdf565b6117e3565b82525050565b600061181882866117ad565b60208201915061182882856117f5565b60148201915061183882846117ad565b602082019150819050949350505050565b7f4e487b7100000000000000000000000000000000000000000000000000000000600052601260045260246000fd5b600061188382610e61565b915061188e83610e61565b92508261189e5761189d611849565b5b82820690509291505056fea2646970667358221220ca39061782ffd456c760490f61427d84a00e867fc86113f290b06b854425fab764736f6c63430008090033",
  "linkReferences": {},
  "deployedLinkReferences": {}
}