{
  "_format": "hh-sol-artifact-1",
  "contractName": "LiveQnA",
  "sourceName": "contracts/LiveQnA.sol",
  "abi": [
    {
      "inputs": [],
      "stateMutability": "nonpayable",
      "type": "constructor"
    },
    {
      "anonymous": false,
      "inputs": [
        {
          "indexed": false,
          "internalType": "uint256",
          "name": "channelId",
          "type": "uint256"
        },
        {
          "indexed": false,
          "internalType": "string",
          "name": "channelName",
          "type": "string"
        },
        {
          "indexed": false,
          "internalType": "uint256",
          "name": "pin",
          "type": "uint256"
        }
      ],
      "name": "ChannelCreated",
      "type": "event"
    },
    {
      "anonymous": false,
      "inputs": [
        {
          "components": [
            {
              "internalType": "uint256",
              "name": "id",
              "type": "uint256"
            },
            {
              "internalType": "string",
              "name": "text",
              "type": "string"
            },
            {
              "internalType": "string",
              "name": "author",
              "type": "string"
            },
            {
              "internalType": "uint256",
              "name": "channelId",
              "type": "uint256"
            },
            {
              "internalType": "uint256",
              "name": "votes",
              "type": "uint256"
            },
            {
              "internalType": "bool",
              "name": "isVoted",
              "type": "bool"
            }
          ],
          "indexed": false,
          "internalType": "struct LiveQnA.Question",
          "name": "question",
          "type": "tuple"
        }
      ],
      "name": "QuestionAdded",
      "type": "event"
    },
    {
      "anonymous": false,
      "inputs": [
        {
          "indexed": false,
          "internalType": "uint256",
          "name": "channelId",
          "type": "uint256"
        },
        {
          "indexed": false,
          "internalType": "uint256",
          "name": "questionId",
          "type": "uint256"
        },
        {
          "indexed": false,
          "internalType": "uint256",
          "name": "votes",
          "type": "uint256"
        }
      ],
      "name": "QuestionUnvoted",
      "type": "event"
    },
    {
      "anonymous": false,
      "inputs": [
        {
          "indexed": false,
          "internalType": "uint256",
          "name": "channelId",
          "type": "uint256"
        },
        {
          "indexed": false,
          "internalType": "uint256",
          "name": "questionId",
          "type": "uint256"
        },
        {
          "indexed": false,
          "internalType": "uint256",
          "name": "votes",
          "type": "uint256"
        }
      ],
      "name": "QuestionVoted",
      "type": "event"
    },
    {
      "inputs": [
        {
          "internalType": "uint256",
          "name": "channelId",
          "type": "uint256"
        },
        {
          "internalType": "uint256",
          "name": "pin",
          "type": "uint256"
        },
        {
          "internalType": "uint256",
          "name": "questionId",
          "type": "uint256"
        }
      ],
      "name": "UnvoteQuestionOfChannel",
      "outputs": [],
      "stateMutability": "nonpayable",
      "type": "function"
    },
    {
      "inputs": [
        {
          "internalType": "uint256",
          "name": "channelId",
          "type": "uint256"
        },
        {
          "internalType": "uint256",
          "name": "pin",
          "type": "uint256"
        },
        {
          "internalType": "string",
          "name": "text",
          "type": "string"
        },
        {
          "internalType": "string",
          "name": "author",
          "type": "string"
        }
      ],
      "name": "addQuestionToChannel",
      "outputs": [],
      "stateMutability": "nonpayable",
      "type": "function"
    },
    {
      "inputs": [],
      "name": "channelIdCounter",
      "outputs": [
        {
          "internalType": "uint256",
          "name": "",
          "type": "uint256"
        }
      ],
      "stateMutability": "view",
      "type": "function"
    },
    {
      "inputs": [
        {
          "internalType": "string",
          "name": "channelName",
          "type": "string"
        }
      ],
      "name": "createChannel",
      "outputs": [],
      "stateMutability": "nonpayable",
      "type": "function"
    },
    {
      "inputs": [
        {
          "internalType": "uint256",
          "name": "channelId",
          "type": "uint256"
        }
      ],
      "name": "getChannel",
      "outputs": [
        {
          "components": [
            {
              "internalType": "string",
              "name": "name",
              "type": "string"
            },
            {
              "internalType": "uint256",
              "name": "pin",
              "type": "uint256"
            },
            {
              "internalType": "address",
              "name": "admin",
              "type": "address"
            }
          ],
          "internalType": "struct LiveQnA.Channel",
          "name": "",
          "type": "tuple"
        }
      ],
      "stateMutability": "view",
      "type": "function"
    },
    {
      "inputs": [
        {
          "internalType": "uint256",
          "name": "channelId",
          "type": "uint256"
        },
        {
          "internalType": "uint256",
          "name": "pin",
          "type": "uint256"
        }
      ],
      "name": "getQuestionsOfChannel",
      "outputs": [
        {
          "components": [
            {
              "internalType": "uint256",
              "name": "id",
              "type": "uint256"
            },
            {
              "internalType": "string",
              "name": "text",
              "type": "string"
            },
            {
              "internalType": "string",
              "name": "author",
              "type": "string"
            },
            {
              "internalType": "uint256",
              "name": "channelId",
              "type": "uint256"
            },
            {
              "internalType": "uint256",
              "name": "votes",
              "type": "uint256"
            },
            {
              "internalType": "bool",
              "name": "isVoted",
              "type": "bool"
            }
          ],
          "internalType": "struct LiveQnA.Question[]",
          "name": "",
          "type": "tuple[]"
        }
      ],
      "stateMutability": "view",
      "type": "function"
    },
    {
      "inputs": [],
      "name": "owner",
      "outputs": [
        {
          "internalType": "address",
          "name": "",
          "type": "address"
        }
      ],
      "stateMutability": "view",
      "type": "function"
    },
    {
      "inputs": [
        {
          "internalType": "uint256",
          "name": "",
          "type": "uint256"
        }
      ],
      "name": "questions",
      "outputs": [
        {
          "internalType": "uint256",
          "name": "id",
          "type": "uint256"
        },
        {
          "internalType": "string",
          "name": "text",
          "type": "string"
        },
        {
          "internalType": "string",
          "name": "author",
          "type": "string"
        },
        {
          "internalType": "uint256",
          "name": "channelId",
          "type": "uint256"
        },
        {
          "internalType": "uint256",
          "name": "votes",
          "type": "uint256"
        },
        {
          "internalType": "bool",
          "name": "isVoted",
          "type": "bool"
        }
      ],
      "stateMutability": "view",
      "type": "function"
    },
    {
      "inputs": [
        {
          "internalType": "uint256",
          "name": "",
          "type": "uint256"
        },
        {
          "internalType": "uint256",
          "name": "",
          "type": "uint256"
        }
      ],
      "name": "sortedQuestionIdsByVotes",
      "outputs": [
        {
          "internalType": "uint256",
          "name": "",
          "type": "uint256"
        }
      ],
      "stateMutability": "view",
      "type": "function"
    },
    {
      "inputs": [
        {
          "internalType": "uint256",
          "name": "",
          "type": "uint256"
        }
      ],
      "name": "totalQuestionsPerChannel",
      "outputs": [
        {
          "internalType": "uint256",
          "name": "",
          "type": "uint256"
        }
      ],
      "stateMutability": "view",
      "type": "function"
    },
    {
      "inputs": [
        {
          "internalType": "address",
          "name": "",
          "type": "address"
        },
        {
          "internalType": "uint256",
          "name": "",
          "type": "uint256"
        }
      ],
      "name": "userVotes",
      "outputs": [
        {
          "internalType": "uint256",
          "name": "",
          "type": "uint256"
        }
      ],
      "stateMutability": "view",
      "type": "function"
    },
    {
      "inputs": [
        {
          "internalType": "uint256",
          "name": "channelId",
          "type": "uint256"
        },
        {
          "internalType": "uint256",
          "name": "pin",
          "type": "uint256"
        },
        {
          "internalType": "uint256",
          "name": "questionId",
          "type": "uint256"
        }
      ],
      "name": "voteQuestionOfChannel",
      "outputs": [],
      "stateMutability": "nonpayable",
      "type": "function"
    }
  ],
  "bytecode": "0x6080604052600080556000600255600060035534801561001e57600080fd5b5033600160006101000a81548173ffffffffffffffffffffffffffffffffffffffff021916908373ffffffffffffffffffffffffffffffffffffffff1602179055506123ad8061006f6000396000f3fe608060405234801561001057600080fd5b50600436106100b45760003560e01c80638b3511f7116100715780638b3511f7146101905780638baa6ff8146101c05780638da5cb5b146101f0578063aa7ff0b51461020e578063cb6af4cb1461023e578063f6c200771461025a576100b4565b80630be8179a146100b957806310df54a0146100d557806331b1b978146101055780633c3102661461013a5780637553efb4146101585780637b2a1e5d14610174575b600080fd5b6100d360048036038101906100ce9190611567565b61028a565b005b6100ef60048036038101906100ea91906115ba565b6104e7565b6040516100fc9190611720565b60405180910390f35b61011f600480360381019061011a91906115ba565b610606565b604051610131969594939291906117b6565b60405180910390f35b61014261075f565b60405161014f9190611825565b60405180910390f35b610172600480360381019061016d9190611975565b610765565b005b61018e60048036038101906101899190611567565b610954565b005b6101aa60048036038101906101a59190611a40565b610c62565b6040516101b79190611825565b60405180910390f35b6101da60048036038101906101d59190611a80565b610c93565b6040516101e79190611c21565b60405180910390f35b6101f86110a1565b6040516102059190611c52565b60405180910390f35b610228600480360381019061022391906115ba565b6110c7565b6040516102359190611825565b60405180910390f35b61025860048036038101906102539190611c6d565b6110df565b005b610274600480360381019061026f9190611a80565b6111ff565b6040516102819190611825565b60405180910390f35b8282806004600084815260200190815260200160002060010154146102e4576040517f08c379a00000000000000000000000000000000000000000000000000000000081526004016102db90611d02565b60405180910390fd5b6000600860003373ffffffffffffffffffffffffffffffffffffffff1673ffffffffffffffffffffffffffffffffffffffff16815260200190815260200160002080548060200260200160405190810160405280929190818152602001828054801561036f57602002820191906000526020600020905b81548152602001906001019080831161035b575b5050505050905060005b81518110156103f2578482828151811061039657610395611d22565b5b602002602001015114156103df576040517f08c379a00000000000000000000000000000000000000000000000000000000081526004016103d690611dc3565b60405180910390fd5b80806103ea90611e12565b915050610379565b5060056000858152602001908152602001600020600401600081548092919061041a90611e12565b919050555061042886611230565b600860003373ffffffffffffffffffffffffffffffffffffffff1673ffffffffffffffffffffffffffffffffffffffff1681526020019081526020016000208490806001815401808255809150506001900390600052602060002001600090919091909150557fe032b0171b8688390474f14cb113a546cf69cd6385ba4a5ae43550afe994e0cc868560056000888152602001908152602001600020600401546040516104d793929190611e5b565b60405180910390a1505050505050565b6104ef61140b565b6004600083815260200190815260200160002060405180606001604052908160008201805461051d90611ec1565b80601f016020809104026020016040519081016040528092919081815260200182805461054990611ec1565b80156105965780601f1061056b57610100808354040283529160200191610596565b820191906000526020600020905b81548152906001019060200180831161057957829003601f168201915b50505050508152602001600182015481526020016002820160009054906101000a900473ffffffffffffffffffffffffffffffffffffffff1673ffffffffffffffffffffffffffffffffffffffff1673ffffffffffffffffffffffffffffffffffffffff16815250509050919050565b600560205280600052604060002060009150905080600001549080600101805461062f90611ec1565b80601f016020809104026020016040519081016040528092919081815260200182805461065b90611ec1565b80156106a85780601f1061067d576101008083540402835291602001916106a8565b820191906000526020600020905b81548152906001019060200180831161068b57829003601f168201915b5050505050908060020180546106bd90611ec1565b80601f01602080910402602001604051908101604052809291908181526020018280546106e990611ec1565b80156107365780601f1061070b57610100808354040283529160200191610736565b820191906000526020600020905b81548152906001019060200180831161071957829003601f168201915b5050505050908060030154908060040154908060050160009054906101000a900460ff16905086565b60025481565b8383806004600084815260200190815260200160002060010154146107bf576040517f08c379a00000000000000000000000000000000000000000000000000000000081526004016107b690611d02565b60405180910390fd5b600060035490506040518060c001604052808281526020018681526020018581526020018881526020016000815260200160001515815250600560006003548152602001908152602001600020600082015181600001556020820151816001019080519060200190610832929190611442565b50604082015181600201908051906020019061084f929190611442565b50606082015181600301556080820151816004015560a08201518160050160006101000a81548160ff0219169083151502179055509050506003600081548092919061089a90611e12565b91905055506006600088815260200190815260200160002060008154809291906108c390611e12565b9190505550600760008881526020019081526020016000208190806001815401808255809150506001900390600052602060002001600090919091909150557f491fdc42458554e4129b4791a55a9106d21fd297a6b991e5165112a8b4ea008860056000838152602001908152602001600020604051610943919061209c565b60405180910390a150505050505050565b8282806004600084815260200190815260200160002060010154146109ae576040517f08c379a00000000000000000000000000000000000000000000000000000000081526004016109a590611d02565b60405180910390fd5b6000600860003373ffffffffffffffffffffffffffffffffffffffff1673ffffffffffffffffffffffffffffffffffffffff168152602001908152602001600020805480602002602001604051908101604052809291908181526020018280548015610a3957602002820191906000526020600020905b815481526020019060010190808311610a25575b505050505090506000805b8251811015610a8b5785838281518110610a6157610a60611d22565b5b60200260200101511415610a785760019150610a8b565b8080610a8390611e12565b915050610a44565b5080610acc576040517f08c379a0000000000000000000000000000000000000000000000000000000008152600401610ac390612130565b60405180910390fd5b600560008681526020019081526020016000206004016000815480929190610af390612150565b9190505550610b0187611230565b6000600860003373ffffffffffffffffffffffffffffffffffffffff1673ffffffffffffffffffffffffffffffffffffffff168152602001908152602001600020905060005b8180549050811015610c065786828281548110610b6757610b66611d22565b5b90600052602060002001541415610bf3578160018380549050610b8a919061217a565b81548110610b9b57610b9a611d22565b5b9060005260206000200154828281548110610bb957610bb8611d22565b5b906000526020600020018190555081805480610bd857610bd76121ae565b5b60019003818190600052602060002001600090559055610c06565b8080610bfe90611e12565b915050610b47565b507f9ac3d178fd7a3254ba35847b1c82f6886954cba1eb2265b381373c8ea17418968887600560008a815260200190815260200160002060040154604051610c5093929190611e5b565b60405180910390a15050505050505050565b60086020528160005260406000208181548110610c7e57600080fd5b90600052602060002001600091509150505481565b6060828280600460008481526020019081526020016000206001015414610cef576040517f08c379a0000000000000000000000000000000000000000000000000000000008152600401610ce690611d02565b60405180910390fd5b60006006600087815260200190815260200160002054905060008167ffffffffffffffff811115610d2357610d2261184a565b5b604051908082528060200260200182016040528015610d5c57816020015b610d496114c8565b815260200190600190039081610d415790505b50905060005b828110156110935760056000600760008b81526020019081526020016000208381548110610d9357610d92611d22565b5b906000526020600020015481526020019081526020016000206040518060c001604052908160008201548152602001600182018054610dd190611ec1565b80601f0160208091040260200160405190810160405280929190818152602001828054610dfd90611ec1565b8015610e4a5780601f10610e1f57610100808354040283529160200191610e4a565b820191906000526020600020905b815481529060010190602001808311610e2d57829003601f168201915b50505050508152602001600282018054610e6390611ec1565b80601f0160208091040260200160405190810160405280929190818152602001828054610e8f90611ec1565b8015610edc5780601f10610eb157610100808354040283529160200191610edc565b820191906000526020600020905b815481529060010190602001808311610ebf57829003601f168201915b5050505050815260200160038201548152602001600482015481526020016005820160009054906101000a900460ff161515151581525050828281518110610f2757610f26611d22565b5b60200260200101819052506000828281518110610f4757610f46611d22565b5b602002602001015160a00190151590811515815250506000600860003373ffffffffffffffffffffffffffffffffffffffff1673ffffffffffffffffffffffffffffffffffffffff168152602001908152602001600020805480602002602001604051908101604052809291908181526020018280548015610fe857602002820191906000526020600020905b815481526020019060010190808311610fd4575b5050505050905060005b815181101561107e5783838151811061100e5761100d611d22565b5b60200260200101516000015182828151811061102d5761102c611d22565b5b6020026020010151141561106b5760018484815181106110505761104f611d22565b5b602002602001015160a001901515908115158152505061107e565b808061107690611e12565b915050610ff2565b5050808061108b90611e12565b915050610d62565b508094505050505092915050565b600160009054906101000a900473ffffffffffffffffffffffffffffffffffffffff1681565b60066020528060005260406000206000915090505481565b6000600254905060006110f0611395565b905060405180606001604052808481526020018281526020013373ffffffffffffffffffffffffffffffffffffffff16815250600460008481526020019081526020016000206000820151816000019080519060200190611152929190611442565b506020820151816001015560408201518160020160006101000a81548173ffffffffffffffffffffffffffffffffffffffff021916908373ffffffffffffffffffffffffffffffffffffffff160217905550905050600260008154809291906111ba90611e12565b91905055507f0d2054cd4b5b00c541fea07e8af0136637b383528db2f4bdfa9b7ae096e7dcf88284836040516111f2939291906121dd565b60405180910390a1505050565b6007602052816000526040600020818154811061121b57600080fd5b90600052602060002001600091509150505481565b600060076000838152602001908152602001600020905060008180549050905060005b8181101561138f57600060018261126a919061221b565b90505b8281101561137b576005600085838154811061128c5761128b611d22565b5b9060005260206000200154815260200190815260200160002060040154600560008685815481106112c0576112bf611d22565b5b906000526020600020015481526020019081526020016000206004015410156113685760008483815481106112f8576112f7611d22565b5b9060005260206000200154905084828154811061131857611317611d22565b5b906000526020600020015485848154811061133657611335611d22565b5b90600052602060002001819055508085838154811061135857611357611d22565b5b9060005260206000200181905550505b808061137390611e12565b91505061126d565b50808061138790611e12565b915050611253565b50505050565b60008060008154809291906113a990611e12565b9190505550600042336000546040516020016113c7939291906122da565b6040516020818303038152906040528051906020012060001c90506000620186a0620dbba0836113f79190612346565b611401919061221b565b9050809250505090565b60405180606001604052806060815260200160008152602001600073ffffffffffffffffffffffffffffffffffffffff1681525090565b82805461144e90611ec1565b90600052602060002090601f01602090048101928261147057600085556114b7565b82601f1061148957805160ff19168380011785556114b7565b828001600101855582156114b7579182015b828111156114b657825182559160200191906001019061149b565b5b5090506114c49190611500565b5090565b6040518060c0016040528060008152602001606081526020016060815260200160008152602001600081526020016000151581525090565b5b80821115611519576000816000905550600101611501565b5090565b6000604051905090565b600080fd5b600080fd5b6000819050919050565b61154481611531565b811461154f57600080fd5b50565b6000813590506115618161153b565b92915050565b6000806000606084860312156115805761157f611527565b5b600061158e86828701611552565b935050602061159f86828701611552565b92505060406115b086828701611552565b9150509250925092565b6000602082840312156115d0576115cf611527565b5b60006115de84828501611552565b91505092915050565b600081519050919050565b600082825260208201905092915050565b60005b83811015611621578082015181840152602081019050611606565b83811115611630576000848401525b50505050565b6000601f19601f8301169050919050565b6000611652826115e7565b61165c81856115f2565b935061166c818560208601611603565b61167581611636565b840191505092915050565b61168981611531565b82525050565b600073ffffffffffffffffffffffffffffffffffffffff82169050919050565b60006116ba8261168f565b9050919050565b6116ca816116af565b82525050565b600060608301600083015184820360008601526116ed8282611647565b91505060208301516117026020860182611680565b50604083015161171560408601826116c1565b508091505092915050565b6000602082019050818103600083015261173a81846116d0565b905092915050565b61174b81611531565b82525050565b600082825260208201905092915050565b600061176d826115e7565b6117778185611751565b9350611787818560208601611603565b61179081611636565b840191505092915050565b60008115159050919050565b6117b08161179b565b82525050565b600060c0820190506117cb6000830189611742565b81810360208301526117dd8188611762565b905081810360408301526117f18187611762565b90506118006060830186611742565b61180d6080830185611742565b61181a60a08301846117a7565b979650505050505050565b600060208201905061183a6000830184611742565b92915050565b600080fd5b600080fd5b7f4e487b7100000000000000000000000000000000000000000000000000000000600052604160045260246000fd5b61188282611636565b810181811067ffffffffffffffff821117156118a1576118a061184a565b5b80604052505050565b60006118b461151d565b90506118c08282611879565b919050565b600067ffffffffffffffff8211156118e0576118df61184a565b5b6118e982611636565b9050602081019050919050565b82818337600083830152505050565b6000611918611913846118c5565b6118aa565b90508281526020810184848401111561193457611933611845565b5b61193f8482856118f6565b509392505050565b600082601f83011261195c5761195b611840565b5b813561196c848260208601611905565b91505092915050565b6000806000806080858703121561198f5761198e611527565b5b600061199d87828801611552565b94505060206119ae87828801611552565b935050604085013567ffffffffffffffff8111156119cf576119ce61152c565b5b6119db87828801611947565b925050606085013567ffffffffffffffff8111156119fc576119fb61152c565b5b611a0887828801611947565b91505092959194509250565b611a1d816116af565b8114611a2857600080fd5b50565b600081359050611a3a81611a14565b92915050565b60008060408385031215611a5757611a56611527565b5b6000611a6585828601611a2b565b9250506020611a7685828601611552565b9150509250929050565b60008060408385031215611a9757611a96611527565b5b6000611aa585828601611552565b9250506020611ab685828601611552565b9150509250929050565b600081519050919050565b600082825260208201905092915050565b6000819050602082019050919050565b611af58161179b565b82525050565b600060c083016000830151611b136000860182611680565b5060208301518482036020860152611b2b8282611647565b91505060408301518482036040860152611b458282611647565b9150506060830151611b5a6060860182611680565b506080830151611b6d6080860182611680565b5060a0830151611b8060a0860182611aec565b508091505092915050565b6000611b978383611afb565b905092915050565b6000602082019050919050565b6000611bb782611ac0565b611bc18185611acb565b935083602082028501611bd385611adc565b8060005b85811015611c0f5784840389528151611bf08582611b8b565b9450611bfb83611b9f565b925060208a01995050600181019050611bd7565b50829750879550505050505092915050565b60006020820190508181036000830152611c3b8184611bac565b905092915050565b611c4c816116af565b82525050565b6000602082019050611c676000830184611c43565b92915050565b600060208284031215611c8357611c82611527565b5b600082013567ffffffffffffffff811115611ca157611ca061152c565b5b611cad84828501611947565b91505092915050565b7f596f75722070696e20697320696e636f72726563740000000000000000000000600082015250565b6000611cec601583611751565b9150611cf782611cb6565b602082019050919050565b60006020820190508181036000830152611d1b81611cdf565b9050919050565b7f4e487b7100000000000000000000000000000000000000000000000000000000600052603260045260246000fd5b7f596f75206861766520616c726561647920766f74656420666f7220746869732060008201527f7175657374696f6e000000000000000000000000000000000000000000000000602082015250565b6000611dad602883611751565b9150611db882611d51565b604082019050919050565b60006020820190508181036000830152611ddc81611da0565b9050919050565b7f4e487b7100000000000000000000000000000000000000000000000000000000600052601160045260246000fd5b6000611e1d82611531565b91507fffffffffffffffffffffffffffffffffffffffffffffffffffffffffffffffff821415611e5057611e4f611de3565b5b600182019050919050565b6000606082019050611e706000830186611742565b611e7d6020830185611742565b611e8a6040830184611742565b949350505050565b7f4e487b7100000000000000000000000000000000000000000000000000000000600052602260045260246000fd5b60006002820490506001821680611ed957607f821691505b60208210811415611eed57611eec611e92565b5b50919050565b60008160001c9050919050565b6000819050919050565b6000611f1d611f1883611ef3565b611f00565b9050919050565b60008190508160005260206000209050919050565b60008154611f4681611ec1565b611f5081866115f2565b94506001821660008114611f6b5760018114611f7d57611fb0565b60ff1983168652602086019350611fb0565b611f8685611f24565b60005b83811015611fa857815481890152600182019150602081019050611f89565b808801955050505b50505092915050565b600060ff82169050919050565b6000611fd9611fd483611ef3565b611fb9565b9050919050565b600060c083016000808401549050611ff781611f0a565b6120046000870182611680565b5060018401858303602087015261201b8382611f39565b9250506002840185830360408701526120348382611f39565b9250506003840154905061204781611f0a565b6120546060870182611680565b506004840154905061206581611f0a565b6120726080870182611680565b506005840154905061208381611fc6565b61209060a0870182611aec565b50819250505092915050565b600060208201905081810360008301526120b68184611fe0565b905092915050565b7f596f752068617665206e6f7420766f74656420666f722074686973207175657360008201527f74696f6e00000000000000000000000000000000000000000000000000000000602082015250565b600061211a602483611751565b9150612125826120be565b604082019050919050565b600060208201905081810360008301526121498161210d565b9050919050565b600061215b82611531565b9150600082141561216f5761216e611de3565b5b600182039050919050565b600061218582611531565b915061219083611531565b9250828210156121a3576121a2611de3565b5b828203905092915050565b7f4e487b7100000000000000000000000000000000000000000000000000000000600052603160045260246000fd5b60006060820190506121f26000830186611742565b81810360208301526122048185611762565b90506122136040830184611742565b949350505050565b600061222682611531565b915061223183611531565b9250827fffffffffffffffffffffffffffffffffffffffffffffffffffffffffffffffff0382111561226657612265611de3565b5b828201905092915050565b6000819050919050565b61228c61228782611531565b612271565b82525050565b60008160601b9050919050565b60006122aa82612292565b9050919050565b60006122bc8261229f565b9050919050565b6122d46122cf826116af565b6122b1565b82525050565b60006122e6828661227b565b6020820191506122f682856122c3565b601482019150612306828461227b565b602082019150819050949350505050565b7f4e487b7100000000000000000000000000000000000000000000000000000000600052601260045260246000fd5b600061235182611531565b915061235c83611531565b92508261236c5761236b612317565b5b82820690509291505056fea2646970667358221220dbcafa05b304cad345b1ffb6ce0b94d3d25bf62451db2ff9a0320630293c36a264736f6c63430008090033",
  "linkReferences": {},
  "deployedLinkReferences": {}
}