{
  "_format": "hh-sol-artifact-1",
  "contractName": "LiveQnA",
  "sourceName": "contracts/LiveQnA.sol",
  "abi": [
    {
      "inputs": [],
      "stateMutability": "nonpayable",
      "type": "constructor"
    },
    {
      "inputs": [
        {
          "internalType": "uint256",
          "name": "channelId",
          "type": "uint256"
        },
        {
          "internalType": "uint256",
          "name": "pin",
          "type": "uint256"
        },
        {
          "internalType": "string",
          "name": "text",
          "type": "string"
        },
        {
          "internalType": "string",
          "name": "author",
          "type": "string"
        }
      ],
      "name": "addQuestionToChannel",
      "outputs": [],
      "stateMutability": "nonpayable",
      "type": "function"
    },
    {
      "inputs": [
        {
          "internalType": "string",
          "name": "channelName",
          "type": "string"
        }
      ],
      "name": "createChannel",
      "outputs": [
        {
          "internalType": "uint256",
          "name": "",
          "type": "uint256"
        },
        {
          "internalType": "string",
          "name": "",
          "type": "string"
        },
        {
          "internalType": "uint256",
          "name": "",
          "type": "uint256"
        }
      ],
      "stateMutability": "nonpayable",
      "type": "function"
    },
    {
      "inputs": [
        {
          "internalType": "uint256",
          "name": "channelId",
          "type": "uint256"
        }
      ],
      "name": "getChannel",
      "outputs": [
        {
          "components": [
            {
              "internalType": "string",
              "name": "name",
              "type": "string"
            },
            {
              "internalType": "uint256",
              "name": "pin",
              "type": "uint256"
            },
            {
              "internalType": "address",
              "name": "admin",
              "type": "address"
            }
          ],
          "internalType": "struct LiveQnA.Channel",
          "name": "",
          "type": "tuple"
        }
      ],
      "stateMutability": "view",
      "type": "function"
    },
    {
      "inputs": [
        {
          "internalType": "uint256",
          "name": "channelId",
          "type": "uint256"
        },
        {
          "internalType": "uint256",
          "name": "pin",
          "type": "uint256"
        }
      ],
      "name": "getQuestionsOfChannel",
      "outputs": [
        {
          "components": [
            {
              "internalType": "uint256",
              "name": "id",
              "type": "uint256"
            },
            {
              "internalType": "string",
              "name": "text",
              "type": "string"
            },
            {
              "internalType": "string",
              "name": "author",
              "type": "string"
            },
            {
              "internalType": "uint256",
              "name": "channelId",
              "type": "uint256"
            },
            {
              "internalType": "uint256",
              "name": "votes",
              "type": "uint256"
            }
          ],
          "internalType": "struct LiveQnA.Question[]",
          "name": "",
          "type": "tuple[]"
        }
      ],
      "stateMutability": "view",
      "type": "function"
    },
    {
      "inputs": [
        {
          "internalType": "uint256",
          "name": "",
          "type": "uint256"
        }
      ],
      "name": "questions",
      "outputs": [
        {
          "internalType": "uint256",
          "name": "id",
          "type": "uint256"
        },
        {
          "internalType": "string",
          "name": "text",
          "type": "string"
        },
        {
          "internalType": "string",
          "name": "author",
          "type": "string"
        },
        {
          "internalType": "uint256",
          "name": "channelId",
          "type": "uint256"
        },
        {
          "internalType": "uint256",
          "name": "votes",
          "type": "uint256"
        }
      ],
      "stateMutability": "view",
      "type": "function"
    },
    {
      "inputs": [
        {
          "internalType": "uint256",
          "name": "",
          "type": "uint256"
        },
        {
          "internalType": "uint256",
          "name": "",
          "type": "uint256"
        }
      ],
      "name": "sortedQuestionIdsByVotes",
      "outputs": [
        {
          "internalType": "uint256",
          "name": "",
          "type": "uint256"
        }
      ],
      "stateMutability": "view",
      "type": "function"
    },
    {
      "inputs": [
        {
          "internalType": "uint256",
          "name": "",
          "type": "uint256"
        }
      ],
      "name": "totalQuestionsPerChannel",
      "outputs": [
        {
          "internalType": "uint256",
          "name": "",
          "type": "uint256"
        }
      ],
      "stateMutability": "view",
      "type": "function"
    },
    {
      "inputs": [
        {
          "internalType": "uint256",
          "name": "channelId",
          "type": "uint256"
        },
        {
          "internalType": "uint256",
          "name": "pin",
          "type": "uint256"
        },
        {
          "internalType": "uint256",
          "name": "questionId",
          "type": "uint256"
        }
      ],
      "name": "voteQuestionOfChannel",
      "outputs": [],
      "stateMutability": "nonpayable",
      "type": "function"
    }
  ],
  "bytecode": "0x6080604052600080556000600255600060035534801561001e57600080fd5b5033600160006101000a81548173ffffffffffffffffffffffffffffffffffffffff021916908373ffffffffffffffffffffffffffffffffffffffff1602179055506118248061006f6000396000f3fe608060405234801561001057600080fd5b50600436106100885760003560e01c80638baa6ff81161005b5780638baa6ff814610129578063aa7ff0b514610159578063cb6af4cb14610189578063f6c20077146101bb57610088565b80630be8179a1461008d57806310df54a0146100a957806331b1b978146100d95780637553efb41461010d575b600080fd5b6100a760048036038101906100a29190610e06565b6101eb565b005b6100c360048036038101906100be9190610e59565b610281565b6040516100d09190610fbf565b60405180910390f35b6100f360048036038101906100ee9190610e59565b610430565b60405161010495949392919061103a565b60405180910390f35b610127600480360381019061012291906111d0565b610576565b005b610143600480360381019061013e919061126f565b6106f3565b60405161015091906113ee565b60405180910390f35b610173600480360381019061016e9190610e59565b610998565b6040516101809190611410565b60405180910390f35b6101a3600480360381019061019e919061142b565b6109b0565b6040516101b293929190611474565b60405180910390f35b6101d560048036038101906101d0919061126f565b610aa7565b6040516101e29190611410565b60405180910390f35b828280600460008481526020019081526020016000206001015414610245576040517f08c379a000000000000000000000000000000000000000000000000000000000815260040161023c906114fe565b60405180910390fd5b60056000848152602001908152602001600020600401600081548092919061026c9061154d565b919050555061027a85610ad8565b5050505050565b610289610cb3565b600160009054906101000a900473ffffffffffffffffffffffffffffffffffffffff1673ffffffffffffffffffffffffffffffffffffffff163373ffffffffffffffffffffffffffffffffffffffff1614610319576040517f08c379a0000000000000000000000000000000000000000000000000000000008152600401610310906115e2565b60405180910390fd5b6004600083815260200190815260200160002060405180606001604052908160008201805461034790611631565b80601f016020809104026020016040519081016040528092919081815260200182805461037390611631565b80156103c05780601f10610395576101008083540402835291602001916103c0565b820191906000526020600020905b8154815290600101906020018083116103a357829003601f168201915b50505050508152602001600182015481526020016002820160009054906101000a900473ffffffffffffffffffffffffffffffffffffffff1673ffffffffffffffffffffffffffffffffffffffff1673ffffffffffffffffffffffffffffffffffffffff16815250509050919050565b600560205280600052604060002060009150905080600001549080600101805461045990611631565b80601f016020809104026020016040519081016040528092919081815260200182805461048590611631565b80156104d25780601f106104a7576101008083540402835291602001916104d2565b820191906000526020600020905b8154815290600101906020018083116104b557829003601f168201915b5050505050908060020180546104e790611631565b80601f016020809104026020016040519081016040528092919081815260200182805461051390611631565b80156105605780601f1061053557610100808354040283529160200191610560565b820191906000526020600020905b81548152906001019060200180831161054357829003601f168201915b5050505050908060030154908060040154905085565b8383806004600084815260200190815260200160002060010154146105d0576040517f08c379a00000000000000000000000000000000000000000000000000000000081526004016105c7906114fe565b60405180910390fd5b600060035490506040518060a00160405280828152602001868152602001858152602001888152602001600081525060056000600354815260200190815260200160002060008201518160000155602082015181600101908051906020019061063a929190610cea565b506040820151816002019080519060200190610657929190610cea565b506060820151816003015560808201518160040155905050600360008154809291906106829061154d565b91905055506006600088815260200190815260200160002060008154809291906106ab9061154d565b91905055506007600088815260200190815260200160002081908060018154018082558091505060019003906000526020600020016000909190919091505550505050505050565b606082828060046000848152602001908152602001600020600101541461074f576040517f08c379a0000000000000000000000000000000000000000000000000000000008152600401610746906114fe565b60405180910390fd5b60006006600087815260200190815260200160002054905060008167ffffffffffffffff811115610783576107826110a5565b5b6040519080825280602002602001820160405280156107bc57816020015b6107a9610d70565b8152602001906001900390816107a15790505b50905060005b8281101561098a5760056000600760008b815260200190815260200160002083815481106107f3576107f2611663565b5b906000526020600020015481526020019081526020016000206040518060a00160405290816000820154815260200160018201805461083190611631565b80601f016020809104026020016040519081016040528092919081815260200182805461085d90611631565b80156108aa5780601f1061087f576101008083540402835291602001916108aa565b820191906000526020600020905b81548152906001019060200180831161088d57829003601f168201915b505050505081526020016002820180546108c390611631565b80601f01602080910402602001604051908101604052809291908181526020018280546108ef90611631565b801561093c5780601f106109115761010080835404028352916020019161093c565b820191906000526020600020905b81548152906001019060200180831161091f57829003601f168201915b505050505081526020016003820154815260200160048201548152505082828151811061096c5761096b611663565b5b602002602001018190525080806109829061154d565b9150506107c2565b508094505050505092915050565b60066020528060005260406000206000915090505481565b60006060600080600254905060006109c6610c3d565b905060405180606001604052808781526020018281526020013373ffffffffffffffffffffffffffffffffffffffff16815250600460008481526020019081526020016000206000820151816000019080519060200190610a28929190610cea565b506020820151816001015560408201518160020160006101000a81548173ffffffffffffffffffffffffffffffffffffffff021916908373ffffffffffffffffffffffffffffffffffffffff16021790555090505060026000815480929190610a909061154d565b919050555081868294509450945050509193909250565b60076020528160005260406000208181548110610ac357600080fd5b90600052602060002001600091509150505481565b600060076000838152602001908152602001600020905060008180549050905060005b81811015610c37576000600182610b129190611692565b90505b82811015610c235760056000858381548110610b3457610b33611663565b5b906000526020600020015481526020019081526020016000206004015460056000868581548110610b6857610b67611663565b5b90600052602060002001548152602001908152602001600020600401541015610c10576000848381548110610ba057610b9f611663565b5b90600052602060002001549050848281548110610bc057610bbf611663565b5b9060005260206000200154858481548110610bde57610bdd611663565b5b906000526020600020018190555080858381548110610c0057610bff611663565b5b9060005260206000200181905550505b8080610c1b9061154d565b915050610b15565b508080610c2f9061154d565b915050610afb565b50505050565b6000806000815480929190610c519061154d565b919050555060004233600054604051602001610c6f93929190611751565b6040516020818303038152906040528051906020012060001c90506000620186a0620dbba083610c9f91906117bd565b610ca99190611692565b9050809250505090565b60405180606001604052806060815260200160008152602001600073ffffffffffffffffffffffffffffffffffffffff1681525090565b828054610cf690611631565b90600052602060002090601f016020900481019282610d185760008555610d5f565b82601f10610d3157805160ff1916838001178555610d5f565b82800160010185558215610d5f579182015b82811115610d5e578251825591602001919060010190610d43565b5b509050610d6c9190610d9f565b5090565b6040518060a0016040528060008152602001606081526020016060815260200160008152602001600081525090565b5b80821115610db8576000816000905550600101610da0565b5090565b6000604051905090565b600080fd5b600080fd5b6000819050919050565b610de381610dd0565b8114610dee57600080fd5b50565b600081359050610e0081610dda565b92915050565b600080600060608486031215610e1f57610e1e610dc6565b5b6000610e2d86828701610df1565b9350506020610e3e86828701610df1565b9250506040610e4f86828701610df1565b9150509250925092565b600060208284031215610e6f57610e6e610dc6565b5b6000610e7d84828501610df1565b91505092915050565b600081519050919050565b600082825260208201905092915050565b60005b83811015610ec0578082015181840152602081019050610ea5565b83811115610ecf576000848401525b50505050565b6000601f19601f8301169050919050565b6000610ef182610e86565b610efb8185610e91565b9350610f0b818560208601610ea2565b610f1481610ed5565b840191505092915050565b610f2881610dd0565b82525050565b600073ffffffffffffffffffffffffffffffffffffffff82169050919050565b6000610f5982610f2e565b9050919050565b610f6981610f4e565b82525050565b60006060830160008301518482036000860152610f8c8282610ee6565b9150506020830151610fa16020860182610f1f565b506040830151610fb46040860182610f60565b508091505092915050565b60006020820190508181036000830152610fd98184610f6f565b905092915050565b610fea81610dd0565b82525050565b600082825260208201905092915050565b600061100c82610e86565b6110168185610ff0565b9350611026818560208601610ea2565b61102f81610ed5565b840191505092915050565b600060a08201905061104f6000830188610fe1565b81810360208301526110618187611001565b905081810360408301526110758186611001565b90506110846060830185610fe1565b6110916080830184610fe1565b9695505050505050565b600080fd5b600080fd5b7f4e487b7100000000000000000000000000000000000000000000000000000000600052604160045260246000fd5b6110dd82610ed5565b810181811067ffffffffffffffff821117156110fc576110fb6110a5565b5b80604052505050565b600061110f610dbc565b905061111b82826110d4565b919050565b600067ffffffffffffffff82111561113b5761113a6110a5565b5b61114482610ed5565b9050602081019050919050565b82818337600083830152505050565b600061117361116e84611120565b611105565b90508281526020810184848401111561118f5761118e6110a0565b5b61119a848285611151565b509392505050565b600082601f8301126111b7576111b661109b565b5b81356111c7848260208601611160565b91505092915050565b600080600080608085870312156111ea576111e9610dc6565b5b60006111f887828801610df1565b945050602061120987828801610df1565b935050604085013567ffffffffffffffff81111561122a57611229610dcb565b5b611236878288016111a2565b925050606085013567ffffffffffffffff81111561125757611256610dcb565b5b611263878288016111a2565b91505092959194509250565b6000806040838503121561128657611285610dc6565b5b600061129485828601610df1565b92505060206112a585828601610df1565b9150509250929050565b600081519050919050565b600082825260208201905092915050565b6000819050602082019050919050565b600060a0830160008301516112f36000860182610f1f565b506020830151848203602086015261130b8282610ee6565b915050604083015184820360408601526113258282610ee6565b915050606083015161133a6060860182610f1f565b50608083015161134d6080860182610f1f565b508091505092915050565b600061136483836112db565b905092915050565b6000602082019050919050565b6000611384826112af565b61138e81856112ba565b9350836020820285016113a0856112cb565b8060005b858110156113dc57848403895281516113bd8582611358565b94506113c88361136c565b925060208a019950506001810190506113a4565b50829750879550505050505092915050565b600060208201905081810360008301526114088184611379565b905092915050565b60006020820190506114256000830184610fe1565b92915050565b60006020828403121561144157611440610dc6565b5b600082013567ffffffffffffffff81111561145f5761145e610dcb565b5b61146b848285016111a2565b91505092915050565b60006060820190506114896000830186610fe1565b818103602083015261149b8185611001565b90506114aa6040830184610fe1565b949350505050565b7f596f75722070696e20697320696e636f72726563740000000000000000000000600082015250565b60006114e8601583610ff0565b91506114f3826114b2565b602082019050919050565b60006020820190508181036000830152611517816114db565b9050919050565b7f4e487b7100000000000000000000000000000000000000000000000000000000600052601160045260246000fd5b600061155882610dd0565b91507fffffffffffffffffffffffffffffffffffffffffffffffffffffffffffffffff82141561158b5761158a61151e565b5b600182019050919050565b7f4f6e6c79206f776e65722063616e20646f207468697300000000000000000000600082015250565b60006115cc601683610ff0565b91506115d782611596565b602082019050919050565b600060208201905081810360008301526115fb816115bf565b9050919050565b7f4e487b7100000000000000000000000000000000000000000000000000000000600052602260045260246000fd5b6000600282049050600182168061164957607f821691505b6020821081141561165d5761165c611602565b5b50919050565b7f4e487b7100000000000000000000000000000000000000000000000000000000600052603260045260246000fd5b600061169d82610dd0565b91506116a883610dd0565b9250827fffffffffffffffffffffffffffffffffffffffffffffffffffffffffffffffff038211156116dd576116dc61151e565b5b828201905092915050565b6000819050919050565b6117036116fe82610dd0565b6116e8565b82525050565b60008160601b9050919050565b600061172182611709565b9050919050565b600061173382611716565b9050919050565b61174b61174682610f4e565b611728565b82525050565b600061175d82866116f2565b60208201915061176d828561173a565b60148201915061177d82846116f2565b602082019150819050949350505050565b7f4e487b7100000000000000000000000000000000000000000000000000000000600052601260045260246000fd5b60006117c882610dd0565b91506117d383610dd0565b9250826117e3576117e261178e565b5b82820690509291505056fea2646970667358221220f2dcf724bf598a3ff0a1d715dccc479d273517d045bf50f1bc2bc6263c1e443164736f6c63430008090033",
  "linkReferences": {},
  "deployedLinkReferences": {}
}