{
  "_format": "hh-sol-artifact-1",
  "contractName": "LiveQnA",
  "sourceName": "contracts/LiveQnA.sol",
  "abi": [
    {
      "inputs": [],
      "stateMutability": "nonpayable",
      "type": "constructor"
    },
    {
      "anonymous": false,
      "inputs": [
        {
          "indexed": false,
          "internalType": "uint256",
          "name": "channelId",
          "type": "uint256"
        },
        {
          "indexed": false,
          "internalType": "string",
          "name": "channelName",
          "type": "string"
        },
        {
          "indexed": false,
          "internalType": "uint256",
          "name": "pin",
          "type": "uint256"
        }
      ],
      "name": "ChannelCreated",
      "type": "event"
    },
    {
      "inputs": [
        {
          "internalType": "uint256",
          "name": "channelId",
          "type": "uint256"
        },
        {
          "internalType": "uint256",
          "name": "pin",
          "type": "uint256"
        },
        {
          "internalType": "string",
          "name": "text",
          "type": "string"
        },
        {
          "internalType": "string",
          "name": "author",
          "type": "string"
        }
      ],
      "name": "addQuestionToChannel",
      "outputs": [],
      "stateMutability": "nonpayable",
      "type": "function"
    },
    {
      "inputs": [],
      "name": "channelIdCounter",
      "outputs": [
        {
          "internalType": "uint256",
          "name": "",
          "type": "uint256"
        }
      ],
      "stateMutability": "view",
      "type": "function"
    },
    {
      "inputs": [
        {
          "internalType": "string",
          "name": "channelName",
          "type": "string"
        }
      ],
      "name": "createChannel",
      "outputs": [],
      "stateMutability": "nonpayable",
      "type": "function"
    },
    {
      "inputs": [
        {
          "internalType": "uint256",
          "name": "channelId",
          "type": "uint256"
        }
      ],
      "name": "getChannel",
      "outputs": [
        {
          "components": [
            {
              "internalType": "string",
              "name": "name",
              "type": "string"
            },
            {
              "internalType": "uint256",
              "name": "pin",
              "type": "uint256"
            },
            {
              "internalType": "address",
              "name": "admin",
              "type": "address"
            }
          ],
          "internalType": "struct LiveQnA.Channel",
          "name": "",
          "type": "tuple"
        }
      ],
      "stateMutability": "view",
      "type": "function"
    },
    {
      "inputs": [
        {
          "internalType": "uint256",
          "name": "channelId",
          "type": "uint256"
        },
        {
          "internalType": "uint256",
          "name": "pin",
          "type": "uint256"
        }
      ],
      "name": "getQuestionsOfChannel",
      "outputs": [
        {
          "components": [
            {
              "internalType": "uint256",
              "name": "id",
              "type": "uint256"
            },
            {
              "internalType": "string",
              "name": "text",
              "type": "string"
            },
            {
              "internalType": "string",
              "name": "author",
              "type": "string"
            },
            {
              "internalType": "uint256",
              "name": "channelId",
              "type": "uint256"
            },
            {
              "internalType": "uint256",
              "name": "votes",
              "type": "uint256"
            },
            {
              "internalType": "bool",
              "name": "isVoted",
              "type": "bool"
            }
          ],
          "internalType": "struct LiveQnA.Question[]",
          "name": "",
          "type": "tuple[]"
        }
      ],
      "stateMutability": "view",
      "type": "function"
    },
    {
      "inputs": [],
      "name": "owner",
      "outputs": [
        {
          "internalType": "address",
          "name": "",
          "type": "address"
        }
      ],
      "stateMutability": "view",
      "type": "function"
    },
    {
      "inputs": [
        {
          "internalType": "uint256",
          "name": "",
          "type": "uint256"
        }
      ],
      "name": "questions",
      "outputs": [
        {
          "internalType": "uint256",
          "name": "id",
          "type": "uint256"
        },
        {
          "internalType": "string",
          "name": "text",
          "type": "string"
        },
        {
          "internalType": "string",
          "name": "author",
          "type": "string"
        },
        {
          "internalType": "uint256",
          "name": "channelId",
          "type": "uint256"
        },
        {
          "internalType": "uint256",
          "name": "votes",
          "type": "uint256"
        },
        {
          "internalType": "bool",
          "name": "isVoted",
          "type": "bool"
        }
      ],
      "stateMutability": "view",
      "type": "function"
    },
    {
      "inputs": [
        {
          "internalType": "uint256",
          "name": "",
          "type": "uint256"
        },
        {
          "internalType": "uint256",
          "name": "",
          "type": "uint256"
        }
      ],
      "name": "sortedQuestionIdsByVotes",
      "outputs": [
        {
          "internalType": "uint256",
          "name": "",
          "type": "uint256"
        }
      ],
      "stateMutability": "view",
      "type": "function"
    },
    {
      "inputs": [
        {
          "internalType": "uint256",
          "name": "",
          "type": "uint256"
        }
      ],
      "name": "totalQuestionsPerChannel",
      "outputs": [
        {
          "internalType": "uint256",
          "name": "",
          "type": "uint256"
        }
      ],
      "stateMutability": "view",
      "type": "function"
    },
    {
      "inputs": [
        {
          "internalType": "address",
          "name": "",
          "type": "address"
        },
        {
          "internalType": "uint256",
          "name": "",
          "type": "uint256"
        }
      ],
      "name": "userVotes",
      "outputs": [
        {
          "internalType": "uint256",
          "name": "",
          "type": "uint256"
        }
      ],
      "stateMutability": "view",
      "type": "function"
    },
    {
      "inputs": [
        {
          "internalType": "uint256",
          "name": "channelId",
          "type": "uint256"
        },
        {
          "internalType": "uint256",
          "name": "pin",
          "type": "uint256"
        },
        {
          "internalType": "uint256",
          "name": "questionId",
          "type": "uint256"
        }
      ],
      "name": "voteQuestionOfChannel",
      "outputs": [],
      "stateMutability": "nonpayable",
      "type": "function"
    }
  ],
  "bytecode": "0x6080604052600080556000600255600060035534801561001e57600080fd5b5033600160006101000a81548173ffffffffffffffffffffffffffffffffffffffff021916908373ffffffffffffffffffffffffffffffffffffffff160217905550611db98061006f6000396000f3fe608060405234801561001057600080fd5b50600436106100a95760003560e01c80638b3511f7116100715780638b3511f7146101695780638baa6ff8146101995780638da5cb5b146101c9578063aa7ff0b5146101e7578063cb6af4cb14610217578063f6c2007714610233576100a9565b80630be8179a146100ae57806310df54a0146100ca57806331b1b978146100fa5780633c3102661461012f5780637553efb41461014d575b600080fd5b6100c860048036038101906100c39190611228565b610263565b005b6100e460048036038101906100df919061127b565b61046f565b6040516100f191906113e1565b60405180910390f35b610114600480360381019061010f919061127b565b61061e565b60405161012696959493929190611477565b60405180910390f35b610137610777565b60405161014491906114e6565b60405180910390f35b61016760048036038101906101629190611636565b61077d565b005b610183600480360381019061017e9190611701565b610923565b60405161019091906114e6565b60405180910390f35b6101b360048036038101906101ae9190611741565b610954565b6040516101c091906118e2565b60405180910390f35b6101d1610d62565b6040516101de9190611913565b60405180910390f35b61020160048036038101906101fc919061127b565b610d88565b60405161020e91906114e6565b60405180910390f35b610231600480360381019061022c919061192e565b610da0565b005b61024d60048036038101906102489190611741565b610ec0565b60405161025a91906114e6565b60405180910390f35b8282806004600084815260200190815260200160002060010154146102bd576040517f08c379a00000000000000000000000000000000000000000000000000000000081526004016102b4906119c3565b60405180910390fd5b6000600860003373ffffffffffffffffffffffffffffffffffffffff1673ffffffffffffffffffffffffffffffffffffffff16815260200190815260200160002080548060200260200160405190810160405280929190818152602001828054801561034857602002820191906000526020600020905b815481526020019060010190808311610334575b5050505050905060005b81518110156103cb578482828151811061036f5761036e6119e3565b5b602002602001015114156103b8576040517f08c379a00000000000000000000000000000000000000000000000000000000081526004016103af90611a84565b60405180910390fd5b80806103c390611ad3565b915050610352565b506005600085815260200190815260200160002060040160008154809291906103f390611ad3565b919050555061040186610ef1565b600860003373ffffffffffffffffffffffffffffffffffffffff1673ffffffffffffffffffffffffffffffffffffffff168152602001908152602001600020849080600181540180825580915050600190039060005260206000200160009091909190915055505050505050565b6104776110cc565b600160009054906101000a900473ffffffffffffffffffffffffffffffffffffffff1673ffffffffffffffffffffffffffffffffffffffff163373ffffffffffffffffffffffffffffffffffffffff1614610507576040517f08c379a00000000000000000000000000000000000000000000000000000000081526004016104fe90611b68565b60405180910390fd5b6004600083815260200190815260200160002060405180606001604052908160008201805461053590611bb7565b80601f016020809104026020016040519081016040528092919081815260200182805461056190611bb7565b80156105ae5780601f10610583576101008083540402835291602001916105ae565b820191906000526020600020905b81548152906001019060200180831161059157829003601f168201915b50505050508152602001600182015481526020016002820160009054906101000a900473ffffffffffffffffffffffffffffffffffffffff1673ffffffffffffffffffffffffffffffffffffffff1673ffffffffffffffffffffffffffffffffffffffff16815250509050919050565b600560205280600052604060002060009150905080600001549080600101805461064790611bb7565b80601f016020809104026020016040519081016040528092919081815260200182805461067390611bb7565b80156106c05780601f10610695576101008083540402835291602001916106c0565b820191906000526020600020905b8154815290600101906020018083116106a357829003601f168201915b5050505050908060020180546106d590611bb7565b80601f016020809104026020016040519081016040528092919081815260200182805461070190611bb7565b801561074e5780601f106107235761010080835404028352916020019161074e565b820191906000526020600020905b81548152906001019060200180831161073157829003601f168201915b5050505050908060030154908060040154908060050160009054906101000a900460ff16905086565b60025481565b8383806004600084815260200190815260200160002060010154146107d7576040517f08c379a00000000000000000000000000000000000000000000000000000000081526004016107ce906119c3565b60405180910390fd5b600060035490506040518060c00160405280828152602001868152602001858152602001888152602001600081526020016000151581525060056000600354815260200190815260200160002060008201518160000155602082015181600101908051906020019061084a929190611103565b506040820151816002019080519060200190610867929190611103565b50606082015181600301556080820151816004015560a08201518160050160006101000a81548160ff021916908315150217905550905050600360008154809291906108b290611ad3565b91905055506006600088815260200190815260200160002060008154809291906108db90611ad3565b91905055506007600088815260200190815260200160002081908060018154018082558091505060019003906000526020600020016000909190919091505550505050505050565b6008602052816000526040600020818154811061093f57600080fd5b90600052602060002001600091509150505481565b60608282806004600084815260200190815260200160002060010154146109b0576040517f08c379a00000000000000000000000000000000000000000000000000000000081526004016109a7906119c3565b60405180910390fd5b60006006600087815260200190815260200160002054905060008167ffffffffffffffff8111156109e4576109e361150b565b5b604051908082528060200260200182016040528015610a1d57816020015b610a0a611189565b815260200190600190039081610a025790505b50905060005b82811015610d545760056000600760008b81526020019081526020016000208381548110610a5457610a536119e3565b5b906000526020600020015481526020019081526020016000206040518060c001604052908160008201548152602001600182018054610a9290611bb7565b80601f0160208091040260200160405190810160405280929190818152602001828054610abe90611bb7565b8015610b0b5780601f10610ae057610100808354040283529160200191610b0b565b820191906000526020600020905b815481529060010190602001808311610aee57829003601f168201915b50505050508152602001600282018054610b2490611bb7565b80601f0160208091040260200160405190810160405280929190818152602001828054610b5090611bb7565b8015610b9d5780601f10610b7257610100808354040283529160200191610b9d565b820191906000526020600020905b815481529060010190602001808311610b8057829003601f168201915b5050505050815260200160038201548152602001600482015481526020016005820160009054906101000a900460ff161515151581525050828281518110610be857610be76119e3565b5b60200260200101819052506000828281518110610c0857610c076119e3565b5b602002602001015160a00190151590811515815250506000600860003373ffffffffffffffffffffffffffffffffffffffff1673ffffffffffffffffffffffffffffffffffffffff168152602001908152602001600020805480602002602001604051908101604052809291908181526020018280548015610ca957602002820191906000526020600020905b815481526020019060010190808311610c95575b5050505050905060005b8151811015610d3f57838381518110610ccf57610cce6119e3565b5b602002602001015160000151828281518110610cee57610ced6119e3565b5b60200260200101511415610d2c576001848481518110610d1157610d106119e3565b5b602002602001015160a0019015159081151581525050610d3f565b8080610d3790611ad3565b915050610cb3565b50508080610d4c90611ad3565b915050610a23565b508094505050505092915050565b600160009054906101000a900473ffffffffffffffffffffffffffffffffffffffff1681565b60066020528060005260406000206000915090505481565b600060025490506000610db1611056565b905060405180606001604052808481526020018281526020013373ffffffffffffffffffffffffffffffffffffffff16815250600460008481526020019081526020016000206000820151816000019080519060200190610e13929190611103565b506020820151816001015560408201518160020160006101000a81548173ffffffffffffffffffffffffffffffffffffffff021916908373ffffffffffffffffffffffffffffffffffffffff16021790555090505060026000815480929190610e7b90611ad3565b91905055507f0d2054cd4b5b00c541fea07e8af0136637b383528db2f4bdfa9b7ae096e7dcf8828483604051610eb393929190611be9565b60405180910390a1505050565b60076020528160005260406000208181548110610edc57600080fd5b90600052602060002001600091509150505481565b600060076000838152602001908152602001600020905060008180549050905060005b81811015611050576000600182610f2b9190611c27565b90505b8281101561103c5760056000858381548110610f4d57610f4c6119e3565b5b906000526020600020015481526020019081526020016000206004015460056000868581548110610f8157610f806119e3565b5b90600052602060002001548152602001908152602001600020600401541015611029576000848381548110610fb957610fb86119e3565b5b90600052602060002001549050848281548110610fd957610fd86119e3565b5b9060005260206000200154858481548110610ff757610ff66119e3565b5b906000526020600020018190555080858381548110611019576110186119e3565b5b9060005260206000200181905550505b808061103490611ad3565b915050610f2e565b50808061104890611ad3565b915050610f14565b50505050565b600080600081548092919061106a90611ad3565b91905055506000423360005460405160200161108893929190611ce6565b6040516020818303038152906040528051906020012060001c90506000620186a0620dbba0836110b89190611d52565b6110c29190611c27565b9050809250505090565b60405180606001604052806060815260200160008152602001600073ffffffffffffffffffffffffffffffffffffffff1681525090565b82805461110f90611bb7565b90600052602060002090601f0160209004810192826111315760008555611178565b82601f1061114a57805160ff1916838001178555611178565b82800160010185558215611178579182015b8281111561117757825182559160200191906001019061115c565b5b50905061118591906111c1565b5090565b6040518060c0016040528060008152602001606081526020016060815260200160008152602001600081526020016000151581525090565b5b808211156111da5760008160009055506001016111c2565b5090565b6000604051905090565b600080fd5b600080fd5b6000819050919050565b611205816111f2565b811461121057600080fd5b50565b600081359050611222816111fc565b92915050565b600080600060608486031215611241576112406111e8565b5b600061124f86828701611213565b935050602061126086828701611213565b925050604061127186828701611213565b9150509250925092565b600060208284031215611291576112906111e8565b5b600061129f84828501611213565b91505092915050565b600081519050919050565b600082825260208201905092915050565b60005b838110156112e25780820151818401526020810190506112c7565b838111156112f1576000848401525b50505050565b6000601f19601f8301169050919050565b6000611313826112a8565b61131d81856112b3565b935061132d8185602086016112c4565b611336816112f7565b840191505092915050565b61134a816111f2565b82525050565b600073ffffffffffffffffffffffffffffffffffffffff82169050919050565b600061137b82611350565b9050919050565b61138b81611370565b82525050565b600060608301600083015184820360008601526113ae8282611308565b91505060208301516113c36020860182611341565b5060408301516113d66040860182611382565b508091505092915050565b600060208201905081810360008301526113fb8184611391565b905092915050565b61140c816111f2565b82525050565b600082825260208201905092915050565b600061142e826112a8565b6114388185611412565b93506114488185602086016112c4565b611451816112f7565b840191505092915050565b60008115159050919050565b6114718161145c565b82525050565b600060c08201905061148c6000830189611403565b818103602083015261149e8188611423565b905081810360408301526114b28187611423565b90506114c16060830186611403565b6114ce6080830185611403565b6114db60a0830184611468565b979650505050505050565b60006020820190506114fb6000830184611403565b92915050565b600080fd5b600080fd5b7f4e487b7100000000000000000000000000000000000000000000000000000000600052604160045260246000fd5b611543826112f7565b810181811067ffffffffffffffff821117156115625761156161150b565b5b80604052505050565b60006115756111de565b9050611581828261153a565b919050565b600067ffffffffffffffff8211156115a1576115a061150b565b5b6115aa826112f7565b9050602081019050919050565b82818337600083830152505050565b60006115d96115d484611586565b61156b565b9050828152602081018484840111156115f5576115f4611506565b5b6116008482856115b7565b509392505050565b600082601f83011261161d5761161c611501565b5b813561162d8482602086016115c6565b91505092915050565b600080600080608085870312156116505761164f6111e8565b5b600061165e87828801611213565b945050602061166f87828801611213565b935050604085013567ffffffffffffffff8111156116905761168f6111ed565b5b61169c87828801611608565b925050606085013567ffffffffffffffff8111156116bd576116bc6111ed565b5b6116c987828801611608565b91505092959194509250565b6116de81611370565b81146116e957600080fd5b50565b6000813590506116fb816116d5565b92915050565b60008060408385031215611718576117176111e8565b5b6000611726858286016116ec565b925050602061173785828601611213565b9150509250929050565b60008060408385031215611758576117576111e8565b5b600061176685828601611213565b925050602061177785828601611213565b9150509250929050565b600081519050919050565b600082825260208201905092915050565b6000819050602082019050919050565b6117b68161145c565b82525050565b600060c0830160008301516117d46000860182611341565b50602083015184820360208601526117ec8282611308565b915050604083015184820360408601526118068282611308565b915050606083015161181b6060860182611341565b50608083015161182e6080860182611341565b5060a083015161184160a08601826117ad565b508091505092915050565b600061185883836117bc565b905092915050565b6000602082019050919050565b600061187882611781565b611882818561178c565b9350836020820285016118948561179d565b8060005b858110156118d057848403895281516118b1858261184c565b94506118bc83611860565b925060208a01995050600181019050611898565b50829750879550505050505092915050565b600060208201905081810360008301526118fc818461186d565b905092915050565b61190d81611370565b82525050565b60006020820190506119286000830184611904565b92915050565b600060208284031215611944576119436111e8565b5b600082013567ffffffffffffffff811115611962576119616111ed565b5b61196e84828501611608565b91505092915050565b7f596f75722070696e20697320696e636f72726563740000000000000000000000600082015250565b60006119ad601583611412565b91506119b882611977565b602082019050919050565b600060208201905081810360008301526119dc816119a0565b9050919050565b7f4e487b7100000000000000000000000000000000000000000000000000000000600052603260045260246000fd5b7f596f75206861766520616c726561647920766f74656420666f7220746869732060008201527f7175657374696f6e000000000000000000000000000000000000000000000000602082015250565b6000611a6e602883611412565b9150611a7982611a12565b604082019050919050565b60006020820190508181036000830152611a9d81611a61565b9050919050565b7f4e487b7100000000000000000000000000000000000000000000000000000000600052601160045260246000fd5b6000611ade826111f2565b91507fffffffffffffffffffffffffffffffffffffffffffffffffffffffffffffffff821415611b1157611b10611aa4565b5b600182019050919050565b7f4f6e6c79206f776e65722063616e20646f207468697300000000000000000000600082015250565b6000611b52601683611412565b9150611b5d82611b1c565b602082019050919050565b60006020820190508181036000830152611b8181611b45565b9050919050565b7f4e487b7100000000000000000000000000000000000000000000000000000000600052602260045260246000fd5b60006002820490506001821680611bcf57607f821691505b60208210811415611be357611be2611b88565b5b50919050565b6000606082019050611bfe6000830186611403565b8181036020830152611c108185611423565b9050611c1f6040830184611403565b949350505050565b6000611c32826111f2565b9150611c3d836111f2565b9250827fffffffffffffffffffffffffffffffffffffffffffffffffffffffffffffffff03821115611c7257611c71611aa4565b5b828201905092915050565b6000819050919050565b611c98611c93826111f2565b611c7d565b82525050565b60008160601b9050919050565b6000611cb682611c9e565b9050919050565b6000611cc882611cab565b9050919050565b611ce0611cdb82611370565b611cbd565b82525050565b6000611cf28286611c87565b602082019150611d028285611ccf565b601482019150611d128284611c87565b602082019150819050949350505050565b7f4e487b7100000000000000000000000000000000000000000000000000000000600052601260045260246000fd5b6000611d5d826111f2565b9150611d68836111f2565b925082611d7857611d77611d23565b5b82820690509291505056fea264697066735822122029007a72fc71f35f4af5761483e7ac3caf2fe9644f006774e103f0d4f7324e8364736f6c63430008090033",
  "linkReferences": {},
  "deployedLinkReferences": {}
}